{
  "contractName": "Faucet",
  "abi": [
    {
      "constant": true,
      "inputs": [],
      "name": "faucetSize",
      "outputs": [
        {
          "name": "",
          "type": "uint256"
        }
      ],
      "payable": false,
      "stateMutability": "view",
      "type": "function"
    },
    {
      "inputs": [
        {
          "name": "_faucetSize",
          "type": "uint256"
        }
      ],
      "payable": false,
      "stateMutability": "nonpayable",
      "type": "constructor"
    },
    {
      "anonymous": false,
      "inputs": [
        {
          "indexed": false,
          "name": "receiver",
          "type": "address"
        },
        {
          "indexed": false,
          "name": "amount",
          "type": "uint256"
        }
      ],
      "name": "FaucetSended",
      "type": "event"
    },
    {
      "constant": true,
      "inputs": [],
      "name": "getBalance",
      "outputs": [
        {
          "name": "",
          "type": "uint256"
        }
      ],
      "payable": false,
      "stateMutability": "view",
      "type": "function"
    },
    {
      "constant": false,
      "inputs": [],
      "name": "faucet",
      "outputs": [],
      "payable": false,
      "stateMutability": "nonpayable",
      "type": "function"
    }
  ],
  "bytecode": "0x608060405234801561001057600080fd5b5060405160208061032583398101604052516001556102f1806100346000396000f3006080604052600436106100565763ffffffff7c010000000000000000000000000000000000000000000000000000000060003504166312065fe0811461005b578063de5f72fd14610082578063f0288c8f14610099575b600080fd5b34801561006757600080fd5b506100706100ae565b60408051918252519081900360200190f35b34801561008e57600080fd5b50610097610152565b005b3480156100a557600080fd5b506100706102bf565b60008054604080517f70a08231000000000000000000000000000000000000000000000000000000008152306004820152905173ffffffffffffffffffffffffffffffffffffffff909216916370a082319160248082019260209290919082900301818787803b15801561012157600080fd5b505af1158015610135573d6000803e3d6000fd5b505050506040513d602081101561014b57600080fd5b5051905090565b61015a6100ae565b60015411156101ca57604080517f08c379a000000000000000000000000000000000000000000000000000000000815260206004820152601960248201527f6661756365742062616c616e6365206e6f7420656e6f75676800000000000000604482015290519081900360640190fd5b60008054600154604080517fa9059cbb00000000000000000000000000000000000000000000000000000000815233600482015260248101929092525173ffffffffffffffffffffffffffffffffffffffff9092169263a9059cbb926044808401936020939083900390910190829087803b15801561024857600080fd5b505af115801561025c573d6000803e3d6000fd5b505050506040513d602081101561027257600080fd5b5051151561027f57600080fd5b60015460408051338152602081019290925280517f4e8c0e59dbb24fd5e99597a3309bdd0d00b14c6fed0187b37ca991e8323b51259281900390910190a1565b600154815600a165627a7a723058200d691703360bbc9e379dd2aa337b84afae3bb8ce238856841ece29cb9f15c4c50029",
  "source": "pragma solidity ^0.4.24;\n\nimport 'zeppelin-solidity/contracts/token/ERC20/StandardToken.sol';\nimport 'zeppelin-solidity/contracts/math/SafeMath.sol';\n\n\ncontract Faucet {\n    using SafeMath for uint;\n\n    event FaucetSended(\n        address receiver,\n        uint amount\n    );\n\n    StandardToken token;\n    uint256 public faucetSize;\n\n    constructor(uint256 _faucetSize) public {\n        faucetSize = _faucetSize;\n    }\n\n    function getBalance()\n        view\n        public\n        returns (uint)\n    {\n        return token.balanceOf(this);\n    }\n\n    function faucet()\n        public\n    {\n        require(faucetSize <= getBalance(), \"faucet balance not enough\");\n\n        require(token.transfer(msg.sender, faucetSize));\n        emit FaucetSended(msg.sender, faucetSize);\n    }\n}\n",
  "sourcePath": "/home/algys/sources/dapp-tcr/contracts/Faucet.sol",
  "compiler": {
    "name": "solc",
    "version": "0.4.24+commit.e67f0147.Emscripten.clang"
  },
  "schemaVersion": "2.0.1",
  "updatedAt": "2018-10-27T18:24:57.764Z"
}