{
  "contractName": "Registry",
  "abi": [
    {
      "constant": true,
      "inputs": [
        {
          "name": "",
          "type": "uint256"
        }
      ],
      "name": "challenges",
      "outputs": [
        {
          "name": "rewardPool",
          "type": "uint256"
        },
        {
          "name": "challenger",
          "type": "address"
        },
        {
          "name": "resolved",
          "type": "bool"
        },
        {
          "name": "stake",
          "type": "uint256"
        },
        {
          "name": "totalTokens",
          "type": "uint256"
        }
      ],
      "payable": false,
      "stateMutability": "view",
      "type": "function"
    },
    {
      "constant": true,
      "inputs": [
        {
          "name": "",
          "type": "bytes32"
        }
      ],
      "name": "listings",
      "outputs": [
        {
          "name": "ids_position",
          "type": "uint256"
        },
        {
          "name": "ipfs_hash",
          "type": "bytes"
        },
        {
          "name": "owner",
          "type": "address"
        },
        {
          "name": "unstakedDeposit",
          "type": "uint256"
        },
        {
          "name": "state",
          "type": "uint8"
        },
        {
          "name": "applicationExpiry",
          "type": "uint256"
        },
        {
          "name": "challengeID",
          "type": "uint256"
        },
        {
          "name": "exitTime",
          "type": "uint256"
        },
        {
          "name": "exitTimeExpiry",
          "type": "uint256"
        }
      ],
      "payable": false,
      "stateMutability": "view",
      "type": "function"
    },
    {
      "constant": true,
      "inputs": [],
      "name": "parameterizer",
      "outputs": [
        {
          "name": "",
          "type": "address"
        }
      ],
      "payable": false,
      "stateMutability": "view",
      "type": "function"
    },
    {
      "constant": true,
      "inputs": [
        {
          "name": "",
          "type": "uint256"
        }
      ],
      "name": "ids",
      "outputs": [
        {
          "name": "",
          "type": "bytes32"
        }
      ],
      "payable": false,
      "stateMutability": "view",
      "type": "function"
    },
    {
      "constant": true,
      "inputs": [],
      "name": "token",
      "outputs": [
        {
          "name": "",
          "type": "address"
        }
      ],
      "payable": false,
      "stateMutability": "view",
      "type": "function"
    },
    {
      "constant": true,
      "inputs": [],
      "name": "voting",
      "outputs": [
        {
          "name": "",
          "type": "address"
        }
      ],
      "payable": false,
      "stateMutability": "view",
      "type": "function"
    },
    {
      "inputs": [
        {
          "name": "_token",
          "type": "address"
        },
        {
          "name": "_voting",
          "type": "address"
        },
        {
          "name": "_parameterizer",
          "type": "address"
        }
      ],
      "payable": false,
      "stateMutability": "nonpayable",
      "type": "constructor"
    },
    {
      "anonymous": false,
      "inputs": [
        {
          "indexed": true,
          "name": "listingHash",
          "type": "bytes32"
        },
        {
          "indexed": false,
          "name": "deposit",
          "type": "uint256"
        },
        {
          "indexed": false,
          "name": "appEndDate",
          "type": "uint256"
        },
        {
          "indexed": false,
          "name": "ipfs_hash",
          "type": "bytes"
        },
        {
          "indexed": true,
          "name": "applicant",
          "type": "address"
        }
      ],
      "name": "_Application",
      "type": "event"
    },
    {
      "anonymous": false,
      "inputs": [
        {
          "indexed": true,
          "name": "listingHash",
          "type": "bytes32"
        },
        {
          "indexed": false,
          "name": "challengeID",
          "type": "uint256"
        },
        {
          "indexed": false,
          "name": "data",
          "type": "string"
        },
        {
          "indexed": false,
          "name": "commitEndDate",
          "type": "uint256"
        },
        {
          "indexed": false,
          "name": "revealEndDate",
          "type": "uint256"
        },
        {
          "indexed": true,
          "name": "challenger",
          "type": "address"
        }
      ],
      "name": "_Challenge",
      "type": "event"
    },
    {
      "anonymous": false,
      "inputs": [
        {
          "indexed": true,
          "name": "listingHash",
          "type": "bytes32"
        },
        {
          "indexed": false,
          "name": "added",
          "type": "uint256"
        },
        {
          "indexed": false,
          "name": "newTotal",
          "type": "uint256"
        },
        {
          "indexed": true,
          "name": "owner",
          "type": "address"
        }
      ],
      "name": "_Deposit",
      "type": "event"
    },
    {
      "anonymous": false,
      "inputs": [
        {
          "indexed": true,
          "name": "listingHash",
          "type": "bytes32"
        },
        {
          "indexed": false,
          "name": "withdrew",
          "type": "uint256"
        },
        {
          "indexed": false,
          "name": "newTotal",
          "type": "uint256"
        },
        {
          "indexed": true,
          "name": "owner",
          "type": "address"
        }
      ],
      "name": "_Withdrawal",
      "type": "event"
    },
    {
      "anonymous": false,
      "inputs": [
        {
          "indexed": true,
          "name": "listingHash",
          "type": "bytes32"
        }
      ],
      "name": "_ApplicationWhitelisted",
      "type": "event"
    },
    {
      "anonymous": false,
      "inputs": [
        {
          "indexed": true,
          "name": "listingHash",
          "type": "bytes32"
        }
      ],
      "name": "_ApplicationRemoved",
      "type": "event"
    },
    {
      "anonymous": false,
      "inputs": [
        {
          "indexed": true,
          "name": "listingHash",
          "type": "bytes32"
        }
      ],
      "name": "_ListingRemoved",
      "type": "event"
    },
    {
      "anonymous": false,
      "inputs": [
        {
          "indexed": true,
          "name": "listingHash",
          "type": "bytes32"
        },
        {
          "indexed": true,
          "name": "owner",
          "type": "address"
        }
      ],
      "name": "_ListingWithdrawn",
      "type": "event"
    },
    {
      "anonymous": false,
      "inputs": [
        {
          "indexed": true,
          "name": "listingHash",
          "type": "bytes32"
        }
      ],
      "name": "_TouchAndRemoved",
      "type": "event"
    },
    {
      "anonymous": false,
      "inputs": [
        {
          "indexed": true,
          "name": "listingHash",
          "type": "bytes32"
        },
        {
          "indexed": true,
          "name": "challengeID",
          "type": "uint256"
        },
        {
          "indexed": false,
          "name": "rewardPool",
          "type": "uint256"
        },
        {
          "indexed": false,
          "name": "totalTokens",
          "type": "uint256"
        }
      ],
      "name": "_ChallengeFailed",
      "type": "event"
    },
    {
      "anonymous": false,
      "inputs": [
        {
          "indexed": true,
          "name": "listingHash",
          "type": "bytes32"
        },
        {
          "indexed": true,
          "name": "challengeID",
          "type": "uint256"
        },
        {
          "indexed": false,
          "name": "rewardPool",
          "type": "uint256"
        },
        {
          "indexed": false,
          "name": "totalTokens",
          "type": "uint256"
        }
      ],
      "name": "_ChallengeSucceeded",
      "type": "event"
    },
    {
      "anonymous": false,
      "inputs": [
        {
          "indexed": true,
          "name": "challengeID",
          "type": "uint256"
        },
        {
          "indexed": false,
          "name": "reward",
          "type": "uint256"
        },
        {
          "indexed": true,
          "name": "voter",
          "type": "address"
        }
      ],
      "name": "_RewardClaimed",
      "type": "event"
    },
    {
      "anonymous": false,
      "inputs": [
        {
          "indexed": true,
          "name": "listingHash",
          "type": "bytes32"
        },
        {
          "indexed": false,
          "name": "exitTime",
          "type": "uint256"
        },
        {
          "indexed": false,
          "name": "exitDelayEndDate",
          "type": "uint256"
        },
        {
          "indexed": true,
          "name": "owner",
          "type": "address"
        }
      ],
      "name": "_ExitInitialized",
      "type": "event"
    },
    {
      "anonymous": false,
      "inputs": [
        {
          "indexed": true,
          "name": "listing_id",
          "type": "bytes32"
        },
        {
          "indexed": false,
          "name": "new_state",
          "type": "uint8"
        }
      ],
      "name": "_StateChanged",
      "type": "event"
    },
    {
      "constant": false,
      "inputs": [
        {
          "name": "ipfs_hash",
          "type": "bytes"
        }
      ],
      "name": "apply",
      "outputs": [],
      "payable": false,
      "stateMutability": "nonpayable",
      "type": "function"
    },
    {
      "constant": false,
      "inputs": [
        {
          "name": "listing_id",
          "type": "bytes32"
        },
        {
          "name": "new_ipfs_hash",
          "type": "bytes"
        }
      ],
      "name": "edit",
      "outputs": [],
      "payable": false,
      "stateMutability": "nonpayable",
      "type": "function"
    },
    {
      "constant": false,
      "inputs": [
        {
          "name": "listing_id",
          "type": "bytes32"
        }
      ],
      "name": "init_exit",
      "outputs": [],
      "payable": false,
      "stateMutability": "nonpayable",
      "type": "function"
    },
    {
      "constant": true,
      "inputs": [],
      "name": "list",
      "outputs": [
        {
          "name": "",
          "type": "bytes32[]"
        }
      ],
      "payable": false,
      "stateMutability": "view",
      "type": "function"
    },
    {
      "constant": true,
      "inputs": [
        {
          "name": "listing_id",
          "type": "bytes32"
        }
      ],
      "name": "get_info",
      "outputs": [
        {
          "name": "state",
          "type": "uint256"
        },
        {
          "name": "is_challenged",
          "type": "bool"
        },
        {
          "name": "status_can_be_updated",
          "type": "bool"
        },
        {
          "name": "ipfs_hash",
          "type": "bytes"
        },
        {
          "name": "edit_ipfs_hash",
          "type": "bytes"
        }
      ],
      "payable": false,
      "stateMutability": "view",
      "type": "function"
    },
    {
      "constant": true,
      "inputs": [
        {
          "name": "listing_id",
          "type": "bytes32"
        }
      ],
      "name": "can_update_status",
      "outputs": [
        {
          "name": "",
          "type": "bool"
        }
      ],
      "payable": false,
      "stateMutability": "view",
      "type": "function"
    },
    {
      "constant": false,
      "inputs": [
        {
          "name": "listing_id",
          "type": "bytes32"
        }
      ],
      "name": "update_status",
      "outputs": [],
      "payable": false,
      "stateMutability": "nonpayable",
      "type": "function"
    },
    {
      "constant": false,
      "inputs": [
        {
          "name": "listing_id",
          "type": "bytes32"
        },
        {
          "name": "state_check",
          "type": "uint256"
        }
      ],
      "name": "challenge",
      "outputs": [],
      "payable": false,
      "stateMutability": "nonpayable",
      "type": "function"
    },
    {
      "constant": true,
      "inputs": [
        {
          "name": "listing_id",
          "type": "bytes32"
        }
      ],
      "name": "challenge_status",
      "outputs": [
        {
          "name": "challenge_id",
          "type": "uint256"
        },
        {
          "name": "is_commit",
          "type": "bool"
        },
        {
          "name": "is_reveal",
          "type": "bool"
        },
        {
          "name": "votesFor",
          "type": "uint256"
        },
        {
          "name": "votesAgainst",
          "type": "uint256"
        }
      ],
      "payable": false,
      "stateMutability": "view",
      "type": "function"
    },
    {
      "constant": false,
      "inputs": [
        {
          "name": "listing_id",
          "type": "bytes32"
        },
        {
          "name": "secret_hash",
          "type": "bytes32"
        }
      ],
      "name": "commit_vote",
      "outputs": [],
      "payable": false,
      "stateMutability": "nonpayable",
      "type": "function"
    },
    {
      "constant": false,
      "inputs": [
        {
          "name": "listing_id",
          "type": "bytes32"
        },
        {
          "name": "vote_option",
          "type": "uint256"
        },
        {
          "name": "vote_stake",
          "type": "uint256"
        },
        {
          "name": "salt",
          "type": "uint256"
        }
      ],
      "name": "reveal_vote",
      "outputs": [],
      "payable": false,
      "stateMutability": "nonpayable",
      "type": "function"
    },
    {
      "constant": false,
      "inputs": [
        {
          "name": "challenge_id",
          "type": "uint256"
        }
      ],
      "name": "claim_reward",
      "outputs": [],
      "payable": false,
      "stateMutability": "nonpayable",
      "type": "function"
    },
    {
      "constant": true,
      "inputs": [
        {
          "name": "_voter",
          "type": "address"
        },
        {
          "name": "_challengeID",
          "type": "uint256"
        }
      ],
      "name": "voterReward",
      "outputs": [
        {
          "name": "",
          "type": "uint256"
        }
      ],
      "payable": false,
      "stateMutability": "view",
      "type": "function"
    },
    {
      "constant": true,
      "inputs": [
        {
          "name": "listing_id",
          "type": "bytes32"
        }
      ],
      "name": "appWasMade",
      "outputs": [
        {
          "name": "exists",
          "type": "bool"
        }
      ],
      "payable": false,
      "stateMutability": "view",
      "type": "function"
    },
    {
      "constant": true,
      "inputs": [
        {
          "name": "listing_id",
          "type": "bytes32"
        }
      ],
      "name": "challengeExists",
      "outputs": [
        {
          "name": "",
          "type": "bool"
        }
      ],
      "payable": false,
      "stateMutability": "view",
      "type": "function"
    },
    {
      "constant": true,
      "inputs": [
        {
          "name": "listing_id",
          "type": "bytes32"
        }
      ],
      "name": "challengeCanBeResolved",
      "outputs": [
        {
          "name": "",
          "type": "bool"
        }
      ],
      "payable": false,
      "stateMutability": "view",
      "type": "function"
    },
    {
      "constant": true,
      "inputs": [
        {
          "name": "_challengeID",
          "type": "uint256"
        }
      ],
      "name": "determineReward",
      "outputs": [
        {
          "name": "",
          "type": "uint256"
        }
      ],
      "payable": false,
      "stateMutability": "view",
      "type": "function"
    },
    {
      "constant": true,
      "inputs": [
        {
          "name": "_challengeID",
          "type": "uint256"
        },
        {
          "name": "_voter",
          "type": "address"
        }
      ],
      "name": "tokenClaims",
      "outputs": [
        {
          "name": "",
          "type": "bool"
        }
      ],
      "payable": false,
      "stateMutability": "view",
      "type": "function"
    }
  ],
  "bytecode": "0x60806040523480156200001157600080fd5b506040516060806200226b833981016040908152815160208301519190920151600160a060020a03831615801590620000535750600354600160a060020a0316155b15156200005f57600080fd5b600160a060020a03821615801590620000815750600454600160a060020a0316155b15156200008d57600080fd5b600160a060020a03811615801590620000af5750600554600160a060020a0316155b1515620000bb57600080fd5b60038054600160a060020a03948516600160a060020a03199182161790915560048054938516938216939093179092556005805491909316911617905561216380620001086000396000f30060806040526004361061013d5763ffffffff7c010000000000000000000000000000000000000000000000000000000060003504166303405da281146101425780630f560cd7146102555780631b7bbecb146102ba57806321bb7bed146102e65780634b19e93314610329578063540f66911461034c5780635df0721b1461036457806377609a411461037c57806379287e35146103945780638cf8151f146103ac5780638f1d3776146103c45780639dbbbcf71461040f578063a5ba3b1e14610433578063bd0ae40514610457578063c18b8db41461048d578063c8187cf114610575578063c8b54ccd1461058d578063c9d0ba85146105ad578063e1e3f915146105c5578063e2083c18146105f6578063fac333ac14610611578063fc0c546a14610629578063fce1ccca1461063e578063fcf6cf8414610653575b600080fd5b34801561014e57600080fd5b5061015a60043561066e565b6040518086815260200185151515158152602001841515151581526020018060200180602001838103835285818151815260200191508051906020019080838360005b838110156101b557818101518382015260200161019d565b50505050905090810190601f1680156101e25780820380516001836020036101000a031916815260200191505b50838103825284518152845160209182019186019080838360005b838110156102155781810151838201526020016101fd565b50505050905090810190601f1680156102425780820380516001836020036101000a031916815260200191505b5097505050505050505060405180910390f35b34801561026157600080fd5b5061026a6107ed565b60408051602080825283518183015283519192839290830191858101910280838360005b838110156102a657818101518382015260200161028e565b505050509050019250505060405180910390f35b3480156102c657600080fd5b506102d2600435610847565b604080519115158252519081900360200190f35b3480156102f257600080fd5b506102fe600435610899565b6040805195865293151560208601529115158484015260608401526080830152519081900360a00190f35b34801561033557600080fd5b5061034a6004356024356044356064356108b3565b005b34801561035857600080fd5b5061034a6004356108c2565b34801561037057600080fd5b506102d2600435610a27565b34801561038857600080fd5b506102d2600435610b68565b3480156103a057600080fd5b5061034a600435610c26565b3480156103b857600080fd5b506102d2600435610e6a565b3480156103d057600080fd5b506103dc600435610e83565b60408051958652600160a060020a0390941660208601529115158484015260608401526080830152519081900360a00190f35b34801561041b57600080fd5b5061034a600480359060248035908101910135610ed0565b34801561043f57600080fd5b506102d2600435600160a060020a0360243516610f02565b34801561046357600080fd5b5061047b600160a060020a0360043516602435610f30565b60408051918252519081900360200190f35b34801561049957600080fd5b506104a560043561100e565b604051808a81526020018060200189600160a060020a0316600160a060020a031681526020018881526020018760048111156104dd57fe5b60ff16815260200186815260200185815260200184815260200183815260200182810382528a818151815260200191508051906020019080838360005b8381101561053257818101518382015260200161051a565b50505050905090810190601f16801561055f5780820380516001836020036101000a031916815260200191505b509a505050505050505050505060405180910390f35b34801561058157600080fd5b5061047b6004356110ee565b34801561059957600080fd5b5061034a60048035602481019101356111c0565b3480156105b957600080fd5b5061034a60043561155a565b3480156105d157600080fd5b506105da61155d565b60408051600160a060020a039092168252519081900360200190f35b34801561060257600080fd5b5061034a60043560243561156c565b34801561061d57600080fd5b5061047b600435611965565b34801561063557600080fd5b506105da611984565b34801561064a57600080fd5b506105da611993565b34801561065f57600080fd5b5061034a6004356024356119a2565b600080600060608061067f866119af565b61068886611ae6565b600481111561069357fe5b945061069e86610847565b604080517f5df0721b0000000000000000000000000000000000000000000000000000000081526004810189905290519195503091635df0721b916024808201926020929091908290030181600087803b1580156106fb57600080fd5b505af115801561070f573d6000803e3d6000fd5b505050506040513d602081101561072557600080fd5b5051600087815260016020818152604092839020820180548451600260001995831615610100029590950190911693909304601f8101839004830284018301909452838352939650909291908301828280156107c25780601f10610797576101008083540402835291602001916107c2565b820191906000526020600020905b8154815290600101906020018083116107a557829003601f168201915b50506040805160008082526020820190925294965092506107e1915050565b50905091939590929450565b6060600280548060200260200160405190810160405280929190818152602001828054801561083c57602002820191906000526020600020905b81548152600190910190602001808311610827575b505050505090505b90565b6000818152600160205260408120600601548181118015610892575060008181526020819052604090206001015474010000000000000000000000000000000000000000900460ff16155b9392505050565b60008060008060006108aa866119af565b91939590929450565b6108bc846119af565b50505050565b6000806108ce836119af565b6108d783611ae6565b60008481526001602081905260409091209193509091508260048111156108fa57fe5b141561093857610908611afe565b8160050154108015610920575061091e83610847565b155b156109335761092e83611b02565b610a22565b61013d565b600482600481111561094657fe5b1415610a0d576002810154600160a060020a031633148015610972575061096b611afe565b8160070154105b801561098857508060080154610986611afe565b105b156109c85761099683611b4d565b604051339084907f7d16ed55582bcf69d7bb762cda5b82042371fba7de3a8ebea4517079d892f52290600090a3610a22565b6002810154600160a060020a0316331480156109ef575080600801546109ec611afe565b10155b1561093357600060078201819055600882015561092e836002611e20565b6000826004811115610a1b57fe5b1461013d57fe5b505050565b6000806000610a35846119af565b610a3e84611ae6565b6000858152600160208190526040909120919350909150826004811115610a6157fe5b1415610a9a57610a6f611afe565b8160050154108015610a875750610a8584610847565b155b15610a955760019250610b61565b610b61565b6004826004811115610aa857fe5b1415610b2a576002810154600160a060020a031633148015610ad45750610acd611afe565b8160070154105b8015610aea57508060080154610ae8611afe565b105b15610af85760019250610b61565b6002810154600160a060020a031633148015610a8757508060080154610b1c611afe565b10610a955760019250610b61565b6002826004811115610b3857fe5b1415610b475760009250610b61565b6000826004811115610b5557fe5b14610b5c57fe5b600092505b5050919050565b600081815260016020526040812060060154610b8383610847565b1515610b8e57600080fd5b60048054604080517fee68483000000000000000000000000000000000000000000000000000000000815292830184905251600160a060020a039091169163ee6848309160248083019260209291908290030181600087803b158015610bf357600080fd5b505af1158015610c07573d6000803e3d6000fd5b505050506040513d6020811015610c1d57600080fd5b50519392505050565b600081600280610c3583611ae6565b6004811115610c4057fe5b14610c4a57600080fd5b610c53846119af565b60008481526001602052604090206002810154909350600160a060020a03163314610c7d57600080fd5b610c8684610847565b15610c9057600080fd5b6005546040805160e160020a63349f642f028152602060048201819052600d60248301527f6578697454696d6544656c61790000000000000000000000000000000000000060448301529151610d4d93600160a060020a03169263693ec85e92606480820193918290030181600087803b158015610d0d57600080fd5b505af1158015610d21573d6000803e3d6000fd5b505050506040513d6020811015610d3757600080fd5b5051610d41611afe565b9063ffffffff611ff016565b60078401556005546040805160e160020a63349f642f028152602060048201819052600d60248301527f65786974506572696f644c656e0000000000000000000000000000000000000060448301529151610e0c93600160a060020a03169263693ec85e92606480820193918290030181600087803b158015610dcf57600080fd5b505af1158015610de3573d6000803e3d6000fd5b505050506040513d6020811015610df957600080fd5b505160078501549063ffffffff611ff016565b6008840155610e1c846004611e20565b600783015460088401546040805192835260208301919091528051339287927f4b137a01f77b8f1b4ccaca2abac799475d550c8adc298e399e75ee95d317b54692918290030190a350505050565b600081815260016020526040812060050154115b919050565b60006020819052908152604090208054600182015460028301546003909301549192600160a060020a038216927401000000000000000000000000000000000000000090920460ff169185565b82600280610edd83611ae6565b6004811115610ee857fe5b14610ef257600080fd5b610efb856119af565b5050505050565b600082815260208181526040808320600160a060020a038516845260040190915290205460ff165b92915050565b600081815260208181526040808320600381015490546004805484517fd1382092000000000000000000000000000000000000000000000000000000008152600160a060020a038a811693820193909352602481018990529451939592948794929091169263d13820929260448084019382900301818787803b158015610fb657600080fd5b505af1158015610fca573d6000803e3d6000fd5b505050506040513d6020811015610fe057600080fd5b5051905061100483610ff8838563ffffffff611ffd16565b9063ffffffff61202616565b9695505050505050565b600160208181526000928352604092839020805481840180548651600296821615610100026000190190911695909504601f810185900485028601850190965285855290949193929091908301828280156110aa5780601f1061107f576101008083540402835291602001916110aa565b820191906000526020600020905b81548152906001019060200180831161108d57829003601f168201915b505050506002830154600384015460048501546005860154600687015460078801546008909801549697600160a060020a039095169693955060ff90921693909289565b60008181526020819052604081206001015474010000000000000000000000000000000000000000900460ff161580156111b5575060048054604080517fee68483000000000000000000000000000000000000000000000000000000000815292830185905251600160a060020a039091169163ee6848309160248083019260209291908290030181600087803b15801561118857600080fd5b505af115801561119c573d6000803e3d6000fd5b505050506040513d60208110156111b257600080fd5b50515b1515610e7e57600080fd5b6000806000600660008154600101919050819055604051602001808281526020019150506040516020818303038152906040526040518082805190602001908083835b602083106112225780518252601f199092019160209182019101611203565b5181516020939093036101000a60001901801990911692169190911790526040519201829003909120955060009250611259915050565b61126284611ae6565b600481111561126d57fe5b1461127457fe5b6005546040805160e160020a63349f642f028152602060048201819052600a60248301527f6d696e4465706f7369740000000000000000000000000000000000000000000060448301529151600160a060020a039093169263693ec85e926064808401939192918290030181600087803b1580156112f157600080fd5b505af1158015611305573d6000803e3d6000fd5b505050506040513d602081101561131b57600080fd5b50516000848152600160208190526040909120919350909150611341908201868661203b565b5060028101805473ffffffffffffffffffffffffffffffffffffffff1916331790556005546040805160e160020a63349f642f028152602060048201819052600d60248301527f6170706c7953746167654c656e00000000000000000000000000000000000000604483015291516113e093600160a060020a03169263693ec85e92606480820193918290030181600087803b158015610d0d57600080fd5b60058201556003808201839055546002820154604080517f23b872dd000000000000000000000000000000000000000000000000000000008152600160a060020a03928316600482015230602482015260448101869052905191909216916323b872dd9160648083019260209291908290030181600087803b15801561146557600080fd5b505af1158015611479573d6000803e3d6000fd5b505050506040513d602081101561148f57600080fd5b5051151561149c57600080fd5b60028054808355600180820183556000929092527f405787fa12a823e0f2b7631cc41b3ba8828b3321ca811111fa75cd3aa3bb5ace018490556114e0908490611e20565b33600160a060020a031683600019167f4312ccd704584a12352f9061e58caf210d1e8fe14645cb8784e318207ea19121848460050154898960405180858152602001848152602001806020018281038252848482818152602001925080828437604051920182900397509095505050505050a35050505050565b50565b600554600160a060020a031681565b60008060008061157b866119af565b61158486611ae6565b600087815260016020526040902090945092508460048111156115a357fe5b60048111156115ae57fe5b8460048111156115ba57fe5b146115c457600080fd5b60018460048111156115d257fe5b14806115e9575060028460048111156115e757fe5b145b806115ff575060038460048111156115fd57fe5b145b151561160a57600080fd5b6005546040805160e160020a63349f642f028152602060048201819052600a60248301527f6d696e4465706f7369740000000000000000000000000000000000000000000060448301529151600160a060020a039093169263693ec85e926064808401939192918290030181600087803b15801561168757600080fd5b505af115801561169b573d6000803e3d6000fd5b505050506040513d60208110156116b157600080fd5b505191506116be86610847565b156116c857600080fd5b600480546005546040805160e160020a63349f642f0281526020948101859052600a60248201527f766f746551756f72756d0000000000000000000000000000000000000000000060448201529051600160a060020a03938416946332ed3d60949093169263693ec85e92606480820193918290030181600087803b15801561175057600080fd5b505af1158015611764573d6000803e3d6000fd5b505050506040513d602081101561177a57600080fd5b50516005546040805160e160020a63349f642f028152602060048201819052600e60248301527f636f6d6d697453746167654c656e00000000000000000000000000000000000060448301529151600160a060020a039093169263693ec85e926064808401939192918290030181600087803b1580156117f957600080fd5b505af115801561180d573d6000803e3d6000fd5b505050506040513d602081101561182357600080fd5b50516005546040805160e160020a63349f642f028152602060048201819052600e60248301527f72657665616c53746167654c656e00000000000000000000000000000000000060448301529151600160a060020a039093169263693ec85e926064808401939192918290030181600087803b1580156118a257600080fd5b505af11580156118b6573d6000803e3d6000fd5b505050506040513d60208110156118cc57600080fd5b5051604080517c010000000000000000000000000000000000000000000000000000000063ffffffff87160281526004810194909452602484019290925260448301525160648083019260209291908290030181600087803b15801561193157600080fd5b505af1158015611945573d6000803e3d6000fd5b505050506040513d602081101561195b57600080fd5b5050505050505050565b600280548290811061197357fe5b600091825260209091200154905081565b600354600160a060020a031681565b600454600160a060020a031681565b6119ab826119af565b5050565b600081815260016020526040812060028101549091600160a060020a03909116159060048084015460ff16908111156119e457fe5b14146119ec57fe5b60058101541515600160048084015460ff1690811115611a0857fe5b1414611a1057fe5b600781015415156004808084015460ff1690811115611a2b57fe5b1414611a3357fe5b600881015415156004808084015460ff1690811115611a4e57fe5b1414611a5657fe5b60048181015460ff1681811115611a6957fe5b1480611a875750600060048083015460ff1690811115611a8557fe5b145b15611a9c57611a9582610847565b15611a9c57fe5b600060048083015460ff1690811115611ab157fe5b146119ab57600254815410611ac257fe5b8054600280548492908110611ad357fe5b600091825260209091200154146119ab57fe5b60009081526001602052604090206004015460ff1690565b4290565b600081815260016020526040812060050155611b1f816002611e20565b60405181907fa7bc1d57d9006d9d248707c7b6828c1bab8c51719cc06d78c82a3ee891ef967c90600090a250565b600081815260016020526040812090808080611b6886611ae6565b60028087018054600389015473ffffffffffffffffffffffffffffffffffffffff19821690925560008a8152600160205260409020549254939750600160a060020a03169550935091508110611bba57fe5b600254600019018114611c3757600280548291600191600091906000198101908110611be257fe5b60009182526020808320909101548352820192909252604001902055600280546000198101908110611c1057fe5b9060005260206000200154600282815481101515611c2a57fe5b6000918252602090912001555b60028054600091906000198101908110611c4d57fe5b6000918252602090912001556002805490611c6c9060001983016120b9565b5060006007860181905560088601819055611c88908790611e20565b600086815260016020819052604082208281559190611ca9908301826120dd565b5060028101805473ffffffffffffffffffffffffffffffffffffffff1916905560006003820181905560048201805460ff191690556005820181905560068201819055600782018190556008909101819055821115611da857600354604080517fa9059cbb000000000000000000000000000000000000000000000000000000008152600160a060020a038681166004830152602482018690529151919092169163a9059cbb9160448083019260209291908290030181600087803b158015611d7157600080fd5b505af1158015611d85573d6000803e3d6000fd5b505050506040513d6020811015611d9b57600080fd5b50511515611da857600080fd5b836004811115611db457fe5b60011415611dec5760405186907f2e5ec035f6eac8ff1cf7cdf36cfeca7c85413f9f67652dc2c13d20f337204a2690600090a2611e18565b60405186907fd1ffb796b7108387b2f02adf47b4b81a1690cf2a190422c87a4f670780103e6390600090a25b505050505050565b6000611e2b83611ae6565b9050816004811115611e3957fe5b816004811115611e4557fe5b1415611e4d57fe5b806004811115611e5957fe5b1515611e7a57816004811115611e6b57fe5b60015b14611e7557fe5b611f69565b806004811115611e8657fe5b60011415611ebf57816004811115611e9a57fe5b60025b1480611eb75750816004811115611eb057fe5b6000611e6e565b1515611e7557fe5b806004811115611ecb57fe5b60021415611f0d57816004811115611edf57fe5b60031480611efb5750816004811115611ef457fe5b6004611e9d565b80611eb75750816004811115611eb057fe5b806004811115611f1957fe5b60031415611f3457816004811115611f2d57fe5b6002611e6e565b806004811115611f4057fe5b60041415611f6757816004811115611f5457fe5b1580611eb75750816004811115611f2d57fe5bfe5b6000838152600160208190526040909120600490810180548593919260ff1990911691908490811115611f9857fe5b021790555082600019167f5259e6bce9118f32463f9a5d22fec1650fc0a470c6365f2ccd83d4cf75dd67478360405180826004811115611fd457fe5b60ff16815260200191505060405180910390a2610a22836119af565b81810182811015610f2a57fe5b600082151561200e57506000610f2a565b5081810281838281151561201e57fe5b0414610f2a57fe5b6000818381151561203357fe5b049392505050565b828054600181600116156101000203166002900490600052602060002090601f016020900481019282601f1061207c5782800160ff198235161785556120a9565b828001600101855582156120a9579182015b828111156120a957823582559160200191906001019061208e565b506120b592915061211d565b5090565b815481835581811115610a2257600083815260209020610a2291810190830161211d565b50805460018160011615610100020316600290046000825580601f10612103575061155a565b601f01602090049060005260206000209081019061155a91905b61084491905b808211156120b557600081556001016121235600a165627a7a723058204eebdb0dd159b68c2d16c452215ceaae50e2eb3a65e557f3f6834e716ad11e860029",
  "source": "pragma solidity ^0.4.24;\n\nimport \"./IRegistry.sol\";\nimport \"./Parameterizer.sol\";\nimport \"./IVoting.sol\";\nimport \"zeppelin-solidity/contracts/math/SafeMath.sol\";\nimport \"zeppelin-solidity/contracts/token/ERC20/ERC20.sol\";\n\ncontract Registry is IRegistry {\n\n    // ------\n    // EVENTS\n    // ------\n\n    event _Application(bytes32 indexed listingHash, uint deposit, uint appEndDate, bytes ipfs_hash, address indexed applicant);\n    event _Challenge(bytes32 indexed listingHash, uint challengeID, string data, uint commitEndDate, uint revealEndDate, address indexed challenger);\n    event _Deposit(bytes32 indexed listingHash, uint added, uint newTotal, address indexed owner);\n    event _Withdrawal(bytes32 indexed listingHash, uint withdrew, uint newTotal, address indexed owner);\n    event _ApplicationWhitelisted(bytes32 indexed listingHash);\n    event _ApplicationRemoved(bytes32 indexed listingHash);\n    event _ListingRemoved(bytes32 indexed listingHash);\n    event _ListingWithdrawn(bytes32 indexed listingHash, address indexed owner);\n    event _TouchAndRemoved(bytes32 indexed listingHash);\n    event _ChallengeFailed(bytes32 indexed listingHash, uint indexed challengeID, uint rewardPool, uint totalTokens);\n    event _ChallengeSucceeded(bytes32 indexed listingHash, uint indexed challengeID, uint rewardPool, uint totalTokens);\n    event _RewardClaimed(uint indexed challengeID, uint reward, address indexed voter);\n    event _ExitInitialized(bytes32 indexed listingHash, uint exitTime, uint exitDelayEndDate, address indexed owner);\n    event _StateChanged(bytes32 indexed listing_id, DAppState new_state);\n\n    // ============\n    // DATA STRUCTURES:\n    // ============\n\n    enum DAppState {\n        // registry does not know about the dapp\n        NOT_EXISTS,\n\n        // application for inclusion to the registry is in progress\n        APPLICATION,\n\n        // dapp exists in the registry\n        EXISTS,\n\n        // application for edit of registry dapp is in progress\n        EDIT,\n\n        // submitter is calling of the dapp\n        DELETING\n    }\n\n    using SafeMath for uint;\n\n    struct Listing {\n        uint ids_position;\n        bytes ipfs_hash;\n        address owner;          // Owner of Listing\n        uint unstakedDeposit;   // Number of tokens in the listing not locked in a challenge\n\n        DAppState state;\n\n        uint applicationExpiry; // Expiration date of apply stage\n\n        uint challengeID;       // Corresponds to a PollID in Voting\n\n        uint exitTime;          // Time the listing may leave the registry\n        uint exitTimeExpiry;    // Expiration date of exit period\n    }\n\n    struct Challenge {\n        uint rewardPool;        // (remaining) Pool of tokens to be distributed to winning voters\n        address challenger;     // Owner of Challenge\n        bool resolved;          // Indication of if challenge is resolved\n        uint stake;             // Number of tokens at stake for either party during challenge\n        uint totalTokens;       // (remaining) Number of tokens used in voting by the winning side\n        mapping(address => bool) tokenClaims; // Indicates whether a voter has claimed a reward yet\n    }\n\n    // ============\n    // MODIFIERS:\n    // ============\n\n    modifier requiresState(bytes32 listing_id, Registry.DAppState state) {\n        require(dappState(listing_id) == state);\n        _;\n    }\n\n    // ============\n    // GLOBAL STATE:\n    // ============\n\n    // Maps challengeIDs to associated challenge data\n    mapping(uint => Challenge) public challenges;\n\n    // Maps listingHashes to associated listingHash data\n    mapping(bytes32 => Listing) public listings;\n\n    bytes32[] public ids;\n\n    // Global Variables\n    ERC20 public token;\n    IVoting public voting;\n    Parameterizer public parameterizer;\n\n    uint nonce;\n\n\n    function Registry(address _token, address _voting, address _parameterizer) public {\n        require(_token != 0 && address(token) == 0);\n        require(_voting != 0 && address(voting) == 0);\n        require(_parameterizer != 0 && address(parameterizer) == 0);\n\n        token = ERC20(_token);\n        voting = IVoting(_voting);\n        parameterizer = Parameterizer(_parameterizer);\n    }\n\n    // --------------------\n    // PUBLISHER INTERFACE:\n    // --------------------\n\n    function apply(bytes ipfs_hash) external {\n        bytes32 listing_id = keccak256(abi.encode(++nonce));\n        assert(dappState(listing_id) == DAppState.NOT_EXISTS);\n\n        uint token_amount = parameterizer.get(\"minDeposit\");\n\n        // Sets owner\n        Listing storage listing = listings[listing_id];\n        listing.ipfs_hash = ipfs_hash;\n        listing.owner = msg.sender;\n\n        // Sets apply stage end time\n        listing.applicationExpiry = time().add(parameterizer.get(\"applyStageLen\"));\n        listing.unstakedDeposit = token_amount;\n\n        // Transfers tokens from user to Registry contract\n        require(token.transferFrom(listing.owner, this, token_amount));\n\n        // ids <-> listings linkage\n        listing.ids_position = ids.length;\n        ids.push(listing_id);\n\n        changeState(listing_id, DAppState.APPLICATION);\n        emit _Application(listing_id, token_amount, listing.applicationExpiry, ipfs_hash, msg.sender);\n    }\n\n    function edit(bytes32 listing_id, bytes new_ipfs_hash) external requiresState(listing_id, DAppState.EXISTS) {\n        checkDAppInvariant(listing_id);\n        // FIXME FIXME\n    }\n\n    function init_exit(bytes32 listing_id) external requiresState(listing_id, DAppState.EXISTS) {\n        checkDAppInvariant(listing_id);\n        Listing storage listing = listings[listing_id];\n\n        require(msg.sender == listing.owner);\n        // Cannot exit during ongoing challenge\n        require(!challengeExists(listing_id));\n\n        // Set when the listing may be removed from the whitelist\n        listing.exitTime = time().add(parameterizer.get(\"exitTimeDelay\"));\n        // Set exit period end time\n        listing.exitTimeExpiry = listing.exitTime.add(parameterizer.get(\"exitPeriodLen\"));\n        changeState(listing_id, DAppState.DELETING);\n\n        emit _ExitInitialized(listing_id, listing.exitTime, listing.exitTimeExpiry, msg.sender);\n    }\n\n    // -----------------------\n    // VIEW:\n    // -----------------------\n\n    function list() external view returns (bytes32[]) {\n        return ids;\n    }\n\n    function get_info(bytes32 listing_id) external view returns\n            (uint state, bool is_challenged /* many states can be challenged */,\n            bool status_can_be_updated /* if update_status should be called */,\n            bytes ipfs_hash, bytes edit_ipfs_hash /* empty if not editing */) {\n        checkDAppInvariant(listing_id);\n\n        state = uint(dappState(listing_id));\n        is_challenged = challengeExists(listing_id);\n        status_can_be_updated = this.can_update_status(listing_id);\n        ipfs_hash = listings[listing_id].ipfs_hash;\n\n        // FIXME FIXME\n        edit_ipfs_hash = new bytes(0);\n    }\n\n    // -----------------------\n    // MAINTENANCE:\n    // -----------------------\n\n    function can_update_status(bytes32 listing_id) external view returns (bool) {\n        checkDAppInvariant(listing_id);\n        DAppState state = dappState(listing_id);\n        Listing storage listing = listings[listing_id];\n\n        if (state == DAppState.APPLICATION) {\n            if (listing.applicationExpiry < time() && !challengeExists(listing_id))\n                return true;\n        }\n        else if (state == DAppState.DELETING) {\n            if (msg.sender == listing.owner &&\n                    listing.exitTime < time() && time() < listing.exitTimeExpiry)\n                return true;\n            if (msg.sender == listing.owner && time() >= listing.exitTimeExpiry)\n                return true;\n        }\n        else if (state == DAppState.EXISTS) {\n            // FIXME FIXME finish challenge?\n            return false;\n        }\n        else {\n            // FIXME FIXME more states\n            assert(state == DAppState.NOT_EXISTS);\n            return false;\n        }\n    }\n\n    // finish current operation\n    function update_status(bytes32 listing_id) external {\n        checkDAppInvariant(listing_id);\n        DAppState state = dappState(listing_id);\n        Listing storage listing = listings[listing_id];\n\n        if (state == DAppState.APPLICATION) {\n            if (listing.applicationExpiry < time() && !challengeExists(listing_id)) {\n                whitelistApplication(listing_id);\n                return;\n            }\n        }\n        else if (state == DAppState.DELETING) {\n            if (msg.sender == listing.owner &&\n                    listing.exitTime < time() && time() < listing.exitTimeExpiry) {\n                resetListing(listing_id);\n                emit _ListingWithdrawn(listing_id, msg.sender);\n                return;\n            }\n            if (msg.sender == listing.owner && time() >= listing.exitTimeExpiry) {\n                listing.exitTime = 0;\n                listing.exitTimeExpiry = 0;\n                changeState(listing_id, DAppState.EXISTS);\n                return;\n            }\n        }\n        else {\n            // FIXME FIXME more states\n            assert(state == DAppState.NOT_EXISTS);\n        }\n\n        revert();\n    }\n\n    // -----------------------\n    // TOKEN HOLDER INTERFACE:\n    // -----------------------\n\n    function challenge(bytes32 listing_id, uint state_check /* pass state seen by you to prevent race condition */) external {\n        checkDAppInvariant(listing_id);\n        DAppState state = dappState(listing_id);\n        Listing storage listing = listings[listing_id];\n\n        require(state == DAppState(state_check));\n        require(state == DAppState.APPLICATION || state == DAppState.EXISTS || state == DAppState.EDIT);\n\n        uint minDeposit = parameterizer.get(\"minDeposit\");\n\n        // Prevent multiple challenges\n        require(!challengeExists(listing_id));\n\n        // Starts poll\n        uint pollID = voting.startPoll(\n            parameterizer.get(\"voteQuorum\"),\n            parameterizer.get(\"commitStageLen\"),\n            parameterizer.get(\"revealStageLen\")\n        );\n\n/*        uint oneHundred = 100; // Kludge that we need to use SafeMath\n        challenges[pollID] = Challenge({\n            challenger: msg.sender,\n            rewardPool: ((oneHundred.sub(parameterizer.get(\"dispensationPct\"))).mul(minDeposit)).div(100),\n            stake: minDeposit,\n            resolved: false,\n            totalTokens: 0\n        });\n\n        // Updates listingHash to store most recent challenge\n        listing.challengeID = pollID;\n\n        // Locks tokens for listingHash during challenge\n        listing.unstakedDeposit -= minDeposit;\n\n        // Takes tokens from challenger\n        require(token.transferFrom(msg.sender, this, minDeposit));\n\n        (uint commitEndDate, uint revealEndDate,,,) = voting.pollMap(pollID);\n\n        emit _Challenge(listing_id, pollID, _data, commitEndDate, revealEndDate, msg.sender);\n        return pollID;*/\n    }\n\n    function challenge_status(bytes32 listing_id) external view returns\n            (uint challenge_id, bool is_commit, bool is_reveal, uint votesFor /* 0 for commit phase */,\n            uint votesAgainst /* 0 for commit phase */) {\n        checkDAppInvariant(listing_id);\n\n    }\n\n    function commit_vote(bytes32 listing_id, bytes32 secret_hash) external {\n        checkDAppInvariant(listing_id);\n\n    }\n\n    function reveal_vote(bytes32 listing_id, uint vote_option /* 1: for, other: against */, uint vote_stake, uint salt) external {\n        checkDAppInvariant(listing_id);\n\n    }\n\n    // ----------------\n    // TOKEN FUNCTIONS:\n    // ----------------\n\n    function claim_reward(uint challenge_id) external {\n/*        Challenge storage challengeInstance = challenges[_challengeID];\n        // Ensures the voter has not already claimed tokens and challengeInstance results have\n        // been processed\n        require(challengeInstance.tokenClaims[msg.sender] == false);\n        require(challengeInstance.resolved == true);\n\n        uint voterTokens = voting.getNumPassingTokens(msg.sender, _challengeID);\n        uint reward = voterTokens.mul(challengeInstance.rewardPool)\n                      .div(challengeInstance.totalTokens);\n\n        // Subtracts the voter's information to preserve the participation ratios\n        // of other voters compared to the remaining pool of rewards\n        challengeInstance.totalTokens -= voterTokens;\n        challengeInstance.rewardPool -= reward;\n\n        // Ensures a voter cannot claim tokens again\n        challengeInstance.tokenClaims[msg.sender] = true;\n\n        require(token.transfer(msg.sender, reward));\n\n        emit _RewardClaimed(_challengeID, reward, msg.sender);*/\n    }\n\n    // --------\n    // GETTERS:\n    // --------\n\n    /**\n    @dev                Calculates the provided voter's token reward for the given poll.\n    @param _voter       The address of the voter whose reward balance is to be returned\n    @param _challengeID The pollID of the challenge a reward balance is being queried for\n    @return             The uint indicating the voter's reward\n    */\n    function voterReward(address _voter, uint _challengeID)\n    public view returns (uint) {\n        uint totalTokens = challenges[_challengeID].totalTokens;\n        uint rewardPool = challenges[_challengeID].rewardPool;\n        uint voterTokens = voting.getNumTokens(_voter, _challengeID);\n        return voterTokens.mul(rewardPool).div(totalTokens);\n    }\n\n    /**\n    @dev                Returns true if apply was called for this listingHash\n    @param listing_id The listingHash whose status is to be examined\n    */\n    function appWasMade(bytes32 listing_id) view public returns (bool exists) {\n        return listings[listing_id].applicationExpiry > 0;\n    }\n\n    /**\n    @dev                Returns true if the application/listingHash has an unresolved challenge\n    @param listing_id The listingHash whose status is to be examined\n    */\n    function challengeExists(bytes32 listing_id) view public returns (bool) {\n        uint challengeID = listings[listing_id].challengeID;\n\n        return (listings[listing_id].challengeID > 0 && !challenges[challengeID].resolved);\n    }\n\n    /**\n    @dev                Determines whether voting has concluded in a challenge for a given\n                        listingHash. Throws if no challenge exists.\n    @param listing_id A listingHash with an unresolved challenge\n    */\n    function challengeCanBeResolved(bytes32 listing_id) view public returns (bool) {\n        uint challengeID = listings[listing_id].challengeID;\n\n        require(challengeExists(listing_id));\n\n        return voting.pollEnded(challengeID);\n    }\n\n    /**\n    @dev                Determines the number of tokens awarded to the winning party in a challenge.\n    @param _challengeID The challengeID to determine a reward for\n    */\n    function determineReward(uint _challengeID) public view returns (uint) {\n        require(!challenges[_challengeID].resolved && voting.pollEnded(_challengeID));\n\n/*        // Edge case, nobody voted, give all tokens to the challenger.\n        if (voting.getTotalNumberOfTokensForWinningOption(_challengeID) == 0) {\n            return 2 * challenges[_challengeID].stake;\n        }\n\n        return (2 * challenges[_challengeID].stake) - challenges[_challengeID].rewardPool;\n*/    }\n\n    /**\n    @dev                Getter for Challenge tokenClaims mappings\n    @param _challengeID The challengeID to query\n    @param _voter       The voter whose claim status to query for the provided challengeID\n    */\n    function tokenClaims(uint _challengeID, address _voter) external view returns (bool) {\n        return challenges[_challengeID].tokenClaims[_voter];\n    }\n\n    // ----------------\n    // PRIVATE FUNCTIONS:\n    // ----------------\n\n    /**\n    @dev                Determines the winner in a challenge. Rewards the winner tokens and\n                        either whitelists or de-whitelists the listingHash.\n    @param listing_id A listingHash with a challenge that is to be resolved\n    */\n    function resolveChallenge(bytes32 listing_id) private {\n        uint challengeID = listings[listing_id].challengeID;\n\n        // Calculates the winner's reward,\n        // which is: (winner's full stake) + (dispensationPct * loser's stake)\n        uint reward = determineReward(challengeID);\n\n        // Sets flag on challenge being processed\n        challenges[challengeID].resolved = true;\n\n        // Stores the total tokens used for voting by the winning side for reward purposes\n//        challenges[challengeID].totalTokens =\n//            voting.getTotalNumberOfTokensForWinningOption(challengeID);\n\n        // Case: challenge failed\n        if (voting.result(challengeID)) {\n            whitelistApplication(listing_id);\n            // Unlock stake so that it can be retrieved by the applicant\n            listings[listing_id].unstakedDeposit += reward;\n\n            emit _ChallengeFailed(listing_id, challengeID, challenges[challengeID].rewardPool, challenges[challengeID].totalTokens);\n        }\n        // Case: challenge succeeded or nobody voted\n        else {\n            resetListing(listing_id);\n            // Transfer the reward to the challenger\n            require(token.transfer(challenges[challengeID].challenger, reward));\n\n            emit _ChallengeSucceeded(listing_id, challengeID, challenges[challengeID].rewardPool, challenges[challengeID].totalTokens);\n        }\n    }\n\n    /**\n    @dev                Called by updateStatus() if the applicationExpiry date passed without a\n                        challenge being made. Called by resolveChallenge() if an\n                        application/listing beat a challenge.\n    @param listing_id The listingHash of an application/listingHash to be whitelisted\n    */\n    function whitelistApplication(bytes32 listing_id) private {\n        listings[listing_id].applicationExpiry = 0;\n        changeState(listing_id, DAppState.EXISTS);\n        emit _ApplicationWhitelisted(listing_id);\n    }\n\n    /**\n    @dev                Deletes a listingHash from the whitelist and transfers tokens back to owner\n    @param listing_id The listing hash to delete\n    */\n    function resetListing(bytes32 listing_id) private {\n        Listing storage listing = listings[listing_id];\n        DAppState state_was = dappState(listing_id);\n\n        // Deleting listing to prevent reentry\n        address owner = listing.owner;\n        uint unstakedDeposit = listing.unstakedDeposit;\n        listing.owner = address(0);\n\n        // ids <-> listings linkage\n        uint removed_position = listings[listing_id].ids_position;\n        assert(removed_position < ids.length);\n        if (removed_position != ids.length - 1) {\n            listings[ids[ids.length - 1]].ids_position = removed_position;\n            ids[removed_position] = ids[ids.length - 1];\n        }\n        ids[ids.length - 1] = bytes32(0);\n        ids.length--;\n\n        listing.exitTime = 0;\n        listing.exitTimeExpiry = 0;\n        changeState(listing_id, DAppState.NOT_EXISTS);\n        delete listings[listing_id];\n\n        // Transfers any remaining balance back to the owner\n        if (unstakedDeposit > 0){\n            require(token.transfer(owner, unstakedDeposit));\n        }\n\n        if (DAppState.APPLICATION == state_was) {\n            emit _ApplicationRemoved(listing_id);\n        } else {\n            emit _ListingRemoved(listing_id);\n        }\n    }\n\n    // ----------------\n    // STATE & INVARIANTS:\n    // ----------------\n\n    function dappState(bytes32 listing_id) internal view returns (Registry.DAppState) {\n        return listings[listing_id].state;\n    }\n\n    function checkDAppInvariant(bytes32 listing_id) internal view {\n        Listing storage listing = listings[listing_id];\n\n        assert((listing.state == DAppState.NOT_EXISTS) == (listing.owner == address(0)));\n        assert((listing.state == DAppState.APPLICATION) == (listing.applicationExpiry != 0));\n        assert((listing.state == DAppState.DELETING) == (listing.exitTime != 0));\n        assert((listing.state == DAppState.DELETING) == (listing.exitTimeExpiry != 0));\n\n        if (listing.state == DAppState.DELETING || listing.state == DAppState.NOT_EXISTS)\n            assert(!challengeExists(listing_id));\n\n        if (listing.state != DAppState.NOT_EXISTS) {\n            assert(listing.ids_position < ids.length);\n            assert(ids[listing.ids_position] == listing_id);\n        }\n    }\n\n    function changeState(bytes32 listing_id, DAppState new_state) internal {\n        DAppState state = dappState(listing_id);\n        assert(state != new_state);\n\n        if (DAppState.NOT_EXISTS == state) {    assert(DAppState.APPLICATION == new_state); }\n        else if (DAppState.APPLICATION == state) {    assert(DAppState.EXISTS == new_state || DAppState.NOT_EXISTS == new_state); }\n        else if (DAppState.EXISTS == state) {   assert(DAppState.EDIT == new_state || DAppState.DELETING == new_state || DAppState.NOT_EXISTS == new_state); }\n        else if (DAppState.EDIT == state) {     assert(DAppState.EXISTS == new_state); }\n        else if (DAppState.DELETING == state) { assert(DAppState.NOT_EXISTS == new_state || DAppState.EXISTS == new_state); }\n        else assert(false);\n\n        listings[listing_id].state = new_state;\n        emit _StateChanged(listing_id, new_state);\n        checkDAppInvariant(listing_id);\n    }\n\n    // ----------------\n    // FOR UNIT TESTING:\n    // ----------------\n\n    function time() internal view returns (uint) {\n        return now;\n    }\n}\n",
  "sourcePath": "/home/algys/sources/dapp-tcr/contracts/Registry.sol",
  "compiler": {
    "name": "solc",
    "version": "0.4.24+commit.e67f0147.Emscripten.clang"
  },
  "schemaVersion": "2.0.1",
  "updatedAt": "2018-10-27T18:24:57.789Z"
}