{
  "contractName": "Registry",
  "abi": [
    {
      "constant": true,
      "inputs": [
        {
          "name": "",
          "type": "uint256"
        }
      ],
      "name": "challenges",
      "outputs": [
        {
          "name": "rewardPool",
          "type": "uint256"
        },
        {
          "name": "challenger",
          "type": "address"
        },
        {
          "name": "resolved",
          "type": "bool"
        },
        {
          "name": "totalTokens",
          "type": "uint256"
        }
      ],
      "payable": false,
      "stateMutability": "view",
      "type": "function"
    },
    {
      "constant": true,
      "inputs": [
        {
          "name": "",
          "type": "bytes32"
        }
      ],
      "name": "listings",
      "outputs": [
        {
          "name": "ids_position",
          "type": "uint256"
        },
        {
          "name": "ipfs_hash",
          "type": "bytes"
        },
        {
          "name": "owner",
          "type": "address"
        },
        {
          "name": "state",
          "type": "uint8"
        },
        {
          "name": "applicationExpiry",
          "type": "uint256"
        },
        {
          "name": "proposed_ipfs_hash",
          "type": "bytes"
        },
        {
          "name": "proposal_author",
          "type": "address"
        },
        {
          "name": "challengeID",
          "type": "uint256"
        },
        {
          "name": "exitTime",
          "type": "uint256"
        },
        {
          "name": "exitTimeExpiry",
          "type": "uint256"
        }
      ],
      "payable": false,
      "stateMutability": "view",
      "type": "function"
    },
    {
      "constant": true,
      "inputs": [],
      "name": "parameterizer",
      "outputs": [
        {
          "name": "",
          "type": "address"
        }
      ],
      "payable": false,
      "stateMutability": "view",
      "type": "function"
    },
    {
      "constant": true,
      "inputs": [
        {
          "name": "",
          "type": "uint256"
        }
      ],
      "name": "ids",
      "outputs": [
        {
          "name": "",
          "type": "bytes32"
        }
      ],
      "payable": false,
      "stateMutability": "view",
      "type": "function"
    },
    {
      "constant": true,
      "inputs": [],
      "name": "token",
      "outputs": [
        {
          "name": "",
          "type": "address"
        }
      ],
      "payable": false,
      "stateMutability": "view",
      "type": "function"
    },
    {
      "constant": true,
      "inputs": [],
      "name": "voting",
      "outputs": [
        {
          "name": "",
          "type": "address"
        }
      ],
      "payable": false,
      "stateMutability": "view",
      "type": "function"
    },
    {
      "inputs": [
        {
          "name": "_token",
          "type": "address"
        },
        {
          "name": "_voting",
          "type": "address"
        },
        {
          "name": "_parameterizer",
          "type": "address"
        }
      ],
      "payable": false,
      "stateMutability": "nonpayable",
      "type": "constructor"
    },
    {
      "anonymous": false,
      "inputs": [
        {
          "indexed": true,
          "name": "listingHash",
          "type": "bytes32"
        },
        {
          "indexed": false,
          "name": "deposit",
          "type": "uint256"
        },
        {
          "indexed": false,
          "name": "appEndDate",
          "type": "uint256"
        },
        {
          "indexed": false,
          "name": "ipfs_hash",
          "type": "bytes"
        },
        {
          "indexed": true,
          "name": "applicant",
          "type": "address"
        }
      ],
      "name": "_Application",
      "type": "event"
    },
    {
      "anonymous": false,
      "inputs": [
        {
          "indexed": true,
          "name": "listingHash",
          "type": "bytes32"
        },
        {
          "indexed": false,
          "name": "deposit",
          "type": "uint256"
        },
        {
          "indexed": false,
          "name": "appEndDate",
          "type": "uint256"
        },
        {
          "indexed": false,
          "name": "ipfs_hash",
          "type": "bytes"
        },
        {
          "indexed": true,
          "name": "applicant",
          "type": "address"
        }
      ],
      "name": "_EditApplication",
      "type": "event"
    },
    {
      "anonymous": false,
      "inputs": [
        {
          "indexed": true,
          "name": "listingHash",
          "type": "bytes32"
        },
        {
          "indexed": false,
          "name": "challengeID",
          "type": "uint256"
        },
        {
          "indexed": false,
          "name": "commitEndDate",
          "type": "uint256"
        },
        {
          "indexed": false,
          "name": "revealEndDate",
          "type": "uint256"
        },
        {
          "indexed": true,
          "name": "challenger",
          "type": "address"
        }
      ],
      "name": "_Challenge",
      "type": "event"
    },
    {
      "anonymous": false,
      "inputs": [
        {
          "indexed": true,
          "name": "listingHash",
          "type": "bytes32"
        },
        {
          "indexed": false,
          "name": "added",
          "type": "uint256"
        },
        {
          "indexed": false,
          "name": "newTotal",
          "type": "uint256"
        },
        {
          "indexed": true,
          "name": "owner",
          "type": "address"
        }
      ],
      "name": "_Deposit",
      "type": "event"
    },
    {
      "anonymous": false,
      "inputs": [
        {
          "indexed": true,
          "name": "listingHash",
          "type": "bytes32"
        },
        {
          "indexed": false,
          "name": "withdrew",
          "type": "uint256"
        },
        {
          "indexed": false,
          "name": "newTotal",
          "type": "uint256"
        },
        {
          "indexed": true,
          "name": "owner",
          "type": "address"
        }
      ],
      "name": "_Withdrawal",
      "type": "event"
    },
    {
      "anonymous": false,
      "inputs": [
        {
          "indexed": true,
          "name": "listingHash",
          "type": "bytes32"
        }
      ],
      "name": "_ApplicationWhitelisted",
      "type": "event"
    },
    {
      "anonymous": false,
      "inputs": [
        {
          "indexed": true,
          "name": "listingHash",
          "type": "bytes32"
        }
      ],
      "name": "_EditApplicationWhitelisted",
      "type": "event"
    },
    {
      "anonymous": false,
      "inputs": [
        {
          "indexed": true,
          "name": "listingHash",
          "type": "bytes32"
        }
      ],
      "name": "_ApplicationRemoved",
      "type": "event"
    },
    {
      "anonymous": false,
      "inputs": [
        {
          "indexed": true,
          "name": "listingHash",
          "type": "bytes32"
        }
      ],
      "name": "_ListingRemoved",
      "type": "event"
    },
    {
      "anonymous": false,
      "inputs": [
        {
          "indexed": true,
          "name": "listingHash",
          "type": "bytes32"
        },
        {
          "indexed": true,
          "name": "owner",
          "type": "address"
        }
      ],
      "name": "_ListingWithdrawn",
      "type": "event"
    },
    {
      "anonymous": false,
      "inputs": [
        {
          "indexed": true,
          "name": "listingHash",
          "type": "bytes32"
        }
      ],
      "name": "_TouchAndRemoved",
      "type": "event"
    },
    {
      "anonymous": false,
      "inputs": [
        {
          "indexed": true,
          "name": "listingHash",
          "type": "bytes32"
        },
        {
          "indexed": true,
          "name": "challengeID",
          "type": "uint256"
        },
        {
          "indexed": false,
          "name": "rewardPool",
          "type": "uint256"
        },
        {
          "indexed": false,
          "name": "totalTokens",
          "type": "uint256"
        }
      ],
      "name": "_ChallengeFailed",
      "type": "event"
    },
    {
      "anonymous": false,
      "inputs": [
        {
          "indexed": true,
          "name": "listingHash",
          "type": "bytes32"
        },
        {
          "indexed": true,
          "name": "challengeID",
          "type": "uint256"
        },
        {
          "indexed": false,
          "name": "rewardPool",
          "type": "uint256"
        },
        {
          "indexed": false,
          "name": "totalTokens",
          "type": "uint256"
        }
      ],
      "name": "_ChallengeSucceeded",
      "type": "event"
    },
    {
      "anonymous": false,
      "inputs": [
        {
          "indexed": true,
          "name": "challengeID",
          "type": "uint256"
        },
        {
          "indexed": false,
          "name": "reward",
          "type": "uint256"
        },
        {
          "indexed": true,
          "name": "voter",
          "type": "address"
        }
      ],
      "name": "_RewardClaimed",
      "type": "event"
    },
    {
      "anonymous": false,
      "inputs": [
        {
          "indexed": true,
          "name": "listingHash",
          "type": "bytes32"
        },
        {
          "indexed": false,
          "name": "exitTime",
          "type": "uint256"
        },
        {
          "indexed": false,
          "name": "exitDelayEndDate",
          "type": "uint256"
        },
        {
          "indexed": true,
          "name": "owner",
          "type": "address"
        }
      ],
      "name": "_ExitInitialized",
      "type": "event"
    },
    {
      "anonymous": false,
      "inputs": [
        {
          "indexed": true,
          "name": "listing_id",
          "type": "bytes32"
        },
        {
          "indexed": false,
          "name": "new_state",
          "type": "uint8"
        }
      ],
      "name": "_StateChanged",
      "type": "event"
    },
    {
      "constant": false,
      "inputs": [
        {
          "name": "ipfs_hash",
          "type": "bytes"
        }
      ],
      "name": "apply",
      "outputs": [],
      "payable": false,
      "stateMutability": "nonpayable",
      "type": "function"
    },
    {
      "constant": false,
      "inputs": [
        {
          "name": "listing_id",
          "type": "bytes32"
        },
        {
          "name": "new_ipfs_hash",
          "type": "bytes"
        }
      ],
      "name": "edit",
      "outputs": [],
      "payable": false,
      "stateMutability": "nonpayable",
      "type": "function"
    },
    {
      "constant": false,
      "inputs": [
        {
          "name": "listing_id",
          "type": "bytes32"
        }
      ],
      "name": "init_exit",
      "outputs": [],
      "payable": false,
      "stateMutability": "nonpayable",
      "type": "function"
    },
    {
      "constant": true,
      "inputs": [],
      "name": "deposit_size",
      "outputs": [
        {
          "name": "",
          "type": "uint256"
        }
      ],
      "payable": false,
      "stateMutability": "view",
      "type": "function"
    },
    {
      "constant": true,
      "inputs": [],
      "name": "list",
      "outputs": [
        {
          "name": "",
          "type": "bytes32[]"
        }
      ],
      "payable": false,
      "stateMutability": "view",
      "type": "function"
    },
    {
      "constant": true,
      "inputs": [
        {
          "name": "listing_id",
          "type": "bytes32"
        }
      ],
      "name": "get_info",
      "outputs": [
        {
          "name": "state",
          "type": "uint256"
        },
        {
          "name": "is_challenged",
          "type": "bool"
        },
        {
          "name": "status_can_be_updated",
          "type": "bool"
        },
        {
          "name": "ipfs_hash",
          "type": "bytes"
        },
        {
          "name": "proposed_ipfs_hash",
          "type": "bytes"
        }
      ],
      "payable": false,
      "stateMutability": "view",
      "type": "function"
    },
    {
      "constant": true,
      "inputs": [
        {
          "name": "listing_id",
          "type": "bytes32"
        }
      ],
      "name": "can_update_status",
      "outputs": [
        {
          "name": "",
          "type": "bool"
        }
      ],
      "payable": false,
      "stateMutability": "view",
      "type": "function"
    },
    {
      "constant": false,
      "inputs": [
        {
          "name": "listing_id",
          "type": "bytes32"
        }
      ],
      "name": "update_status",
      "outputs": [],
      "payable": false,
      "stateMutability": "nonpayable",
      "type": "function"
    },
    {
      "constant": false,
      "inputs": [
        {
          "name": "listing_id",
          "type": "bytes32"
        },
        {
          "name": "state_check",
          "type": "uint256"
        }
      ],
      "name": "challenge",
      "outputs": [],
      "payable": false,
      "stateMutability": "nonpayable",
      "type": "function"
    },
    {
      "constant": true,
      "inputs": [
        {
          "name": "listing_id",
          "type": "bytes32"
        }
      ],
      "name": "challenge_status",
      "outputs": [
        {
          "name": "challenge_id",
          "type": "uint256"
        },
        {
          "name": "is_commit",
          "type": "bool"
        },
        {
          "name": "is_reveal",
          "type": "bool"
        },
        {
          "name": "votesFor",
          "type": "uint256"
        },
        {
          "name": "votesAgainst",
          "type": "uint256"
        },
        {
          "name": "commitEndDate",
          "type": "uint256"
        },
        {
          "name": "revealEndDate",
          "type": "uint256"
        }
      ],
      "payable": false,
      "stateMutability": "view",
      "type": "function"
    },
    {
      "constant": false,
      "inputs": [
        {
          "name": "listing_id",
          "type": "bytes32"
        },
        {
          "name": "secret_hash",
          "type": "bytes32"
        }
      ],
      "name": "commit_vote",
      "outputs": [],
      "payable": false,
      "stateMutability": "nonpayable",
      "type": "function"
    },
    {
      "constant": false,
      "inputs": [
        {
          "name": "listing_id",
          "type": "bytes32"
        },
        {
          "name": "vote_option",
          "type": "uint256"
        },
        {
          "name": "vote_stake",
          "type": "uint256"
        },
        {
          "name": "salt",
          "type": "uint256"
        }
      ],
      "name": "reveal_vote",
      "outputs": [],
      "payable": false,
      "stateMutability": "nonpayable",
      "type": "function"
    },
    {
      "constant": false,
      "inputs": [
        {
          "name": "challenge_id",
          "type": "uint256"
        }
      ],
      "name": "claim_reward",
      "outputs": [],
      "payable": false,
      "stateMutability": "nonpayable",
      "type": "function"
    },
    {
      "constant": true,
      "inputs": [
        {
          "name": "_voter",
          "type": "address"
        },
        {
          "name": "_challengeID",
          "type": "uint256"
        }
      ],
      "name": "voterReward",
      "outputs": [
        {
          "name": "reward",
          "type": "uint256"
        },
        {
          "name": "voterTokens",
          "type": "uint256"
        },
        {
          "name": "isWinner",
          "type": "bool"
        }
      ],
      "payable": false,
      "stateMutability": "view",
      "type": "function"
    },
    {
      "constant": true,
      "inputs": [
        {
          "name": "listing_id",
          "type": "bytes32"
        }
      ],
      "name": "challengeExists",
      "outputs": [
        {
          "name": "",
          "type": "bool"
        }
      ],
      "payable": false,
      "stateMutability": "view",
      "type": "function"
    },
    {
      "constant": true,
      "inputs": [
        {
          "name": "listing_id",
          "type": "bytes32"
        }
      ],
      "name": "challengeCanBeResolved",
      "outputs": [
        {
          "name": "",
          "type": "bool"
        }
      ],
      "payable": false,
      "stateMutability": "view",
      "type": "function"
    },
    {
      "constant": true,
      "inputs": [
        {
          "name": "_challengeID",
          "type": "uint256"
        },
        {
          "name": "_voter",
          "type": "address"
        }
      ],
      "name": "tokenClaims",
      "outputs": [
        {
          "name": "",
          "type": "bool"
        }
      ],
      "payable": false,
      "stateMutability": "view",
      "type": "function"
    }
  ],
  "bytecode": "0x60806040523480156200001157600080fd5b5060405160608062003b92833981016040908152815160208301519190920151600160a060020a03831615801590620000535750600354600160a060020a0316155b15156200005f57600080fd5b600160a060020a03821615801590620000815750600454600160a060020a0316155b15156200008d57600080fd5b600160a060020a03811615801590620000af5750600554600160a060020a0316155b1515620000bb57600080fd5b60038054600160a060020a03948516600160a060020a031991821617909155600480549385169382169390931790925560058054919093169116179055613a8a80620001086000396000f3006080604052600436106101195763ffffffff60e060020a60003504166303405da2811461011e5780630f560cd7146102315780631b7bbecb1461029657806321bb7bed146102c257806331d72b2e146103125780634b19e93314610339578063540f66911461035c5780635df0721b1461037457806377609a411461038c57806379287e35146103a45780638f1d3776146103bc5780639dbbbcf714610402578063a5ba3b1e14610426578063bd0ae4051461044a578063c18b8db41461048e578063c8b54ccd146105ee578063c9d0ba851461060e578063e1e3f91514610626578063e2083c1814610657578063fac333ac14610672578063fc0c546a1461068a578063fce1ccca1461069f578063fcf6cf84146106b4575b600080fd5b34801561012a57600080fd5b506101366004356106cf565b6040518086815260200185151515158152602001841515151581526020018060200180602001838103835285818151815260200191508051906020019080838360005b83811015610191578181015183820152602001610179565b50505050905090810190601f1680156101be5780820380516001836020036101000a031916815260200191505b50838103825284518152845160209182019186019080838360005b838110156101f15781810151838201526020016101d9565b50505050905090810190601f16801561021e5780820380516001836020036101000a031916815260200191505b5097505050505050505060405180910390f35b34801561023d57600080fd5b506102466108d5565b60408051602080825283518183015283519192839290830191858101910280838360005b8381101561028257818101518382015260200161026a565b505050509050019250505060405180910390f35b3480156102a257600080fd5b506102ae60043561092f565b604080519115158252519081900360200190f35b3480156102ce57600080fd5b506102da600435610948565b604080519788529515156020880152931515868601526060860192909252608085015260a084015260c0830152519081900360e00190f35b34801561031e57600080fd5b50610327610a49565b60408051918252519081900360200190f35b34801561034557600080fd5b5061035a600435602435604435606435610af5565b005b34801561036857600080fd5b5061035a600435610c66565b34801561038057600080fd5b506102ae60043561129d565b34801561039857600080fd5b506102ae600435611428565b3480156103b057600080fd5b5061035a6004356114ef565b3480156103c857600080fd5b506103d4600435611735565b60408051948552600160a060020a039093166020850152901515838301526060830152519081900360800190f35b34801561040e57600080fd5b5061035a60048035906024803590810191013561176c565b34801561043257600080fd5b506102ae600435600160a060020a0360243516611a65565b34801561045657600080fd5b5061046e600160a060020a0360043516602435611a93565b604080519384526020840192909252151582820152519081900360600190f35b34801561049a57600080fd5b506104a6600435611c2d565b604051808b8152602001806020018a600160a060020a0316600160a060020a031681526020018960048111156104d857fe5b60ff1681526020018881526020018060200187600160a060020a0316600160a060020a0316815260200186815260200185815260200184815260200183810383528c818151815260200191508051906020019080838360005b83811015610549578181015183820152602001610531565b50505050905090810190601f1680156105765780820380516001836020036101000a031916815260200191505b5083810382528851815288516020918201918a019080838360005b838110156105a9578181015183820152602001610591565b50505050905090810190601f1680156105d65780820380516001836020036101000a031916815260200191505b509c5050505050505050505050505060405180910390f35b3480156105fa57600080fd5b5061035a6004803560248101910135611da8565b34801561061a57600080fd5b5061035a600435612143565b34801561063257600080fd5b5061063b612335565b60408051600160a060020a039092168252519081900360200190f35b34801561066357600080fd5b5061035a600435602435612344565b34801561067e57600080fd5b50610327600435612a27565b34801561069657600080fd5b5061063b612a46565b3480156106ab57600080fd5b5061063b612a55565b3480156106c057600080fd5b5061035a600435602435612a64565b60008060006060806106e086612b12565b6106e986612d14565b60048111156106f457fe5b94506106ff8661092f565b604080517f5df0721b0000000000000000000000000000000000000000000000000000000081526004810189905290519195503091635df0721b916024808201926020929091908290030181600087803b15801561075c57600080fd5b505af1158015610770573d6000803e3d6000fd5b505050506040513d602081101561078657600080fd5b5051600087815260016020818152604092839020820180548451600260001995831615610100029590950190911693909304601f8101839004830284018301909452838352939650909291908301828280156108235780601f106107f857610100808354040283529160200191610823565b820191906000526020600020905b81548152906001019060200180831161080657829003601f168201915b50505060008981526001602081815260409283902060040180548451600260001995831615610100029590950190911693909304601f8101839004830284018301909452838352959750909493509091508301828280156108c55780601f1061089a576101008083540402835291602001916108c5565b820191906000526020600020905b8154815290600101906020018083116108a857829003601f168201915b5050505050905091939590929450565b6060600280548060200260200160405190810160405280929190818152602001828054801561092457602002820191906000526020600020905b8154815260019091019060200180831161090f575b505050505090505b90565b600081815260016020526040812060060154115b919050565b60008060008060008060008761095d8161092f565b151561096857600080fd5b61097189612b12565b600089815260016020526040808220600601546004805483517f40e76fc40000000000000000000000000000000000000000000000000000000081529182018390529251919b50600160a060020a03909216926340e76fc49260248082019360e093909283900390910190829087803b1580156109ed57600080fd5b505af1158015610a01573d6000803e3d6000fd5b505050506040513d60e0811015610a1757600080fd5b50805160208201516060830151608084015160a085015160c0909501519c9e949d50909a509850909650945092505050565b6005546040805160e160020a63349f642f028152602060048201819052600a60248301527f6d696e4465706f7369740000000000000000000000000000000000000000000060448301529151600093600160a060020a03169263693ec85e926064808201939182900301818787803b158015610ac457600080fd5b505af1158015610ad8573d6000803e3d6000fd5b505050506040513d6020811015610aee57600080fd5b5051905090565b83610aff8161092f565b1515610b0a57600080fd5b610b1385612b12565b600354604080517f23b872dd000000000000000000000000000000000000000000000000000000008152336004820152306024820152604481018690529051600160a060020a03909216916323b872dd916064808201926020929091908290030181600087803b158015610b8657600080fd5b505af1158015610b9a573d6000803e3d6000fd5b505050506040513d6020811015610bb057600080fd5b50511515610bbd57600080fd5b600480546000878152600160205260408082206006015481517f36dbd8530000000000000000000000000000000000000000000000000000000081529485015260248401889052604484018790526064840186905233608485015251600160a060020a03909216926336dbd8539260a4808301939282900301818387803b158015610c4757600080fd5b505af1158015610c5b573d6000803e3d6000fd5b505050505050505050565b600080600080600080610c7887612b12565b610c8187612d14565b60008881526001602052604090209096509450610c9d8761092f565b8015610cad5750610cad87611428565b935083610cbb576000610cce565b6000878152600160205260409020600601545b92506001866004811115610cde57fe5b1415610eff57610cec612d33565b8560030154108015610d045750610d028761092f565b155b15610d1757610d1287612d37565b611294565b8315610efa57610d2687612d82565b9092509050811515610e5457610d3b87612d37565b60035460028601546040805160e160020a6318eb95970281529051600160a060020a039384169363a9059cbb931691610dd09130916331d72b2e9160048083019260209291908290030181600087803b158015610d9757600080fd5b505af1158015610dab573d6000803e3d6000fd5b505050506040513d6020811015610dc157600080fd5b5051859063ffffffff612fd216565b6040518363ffffffff1660e060020a0281526004018083600160a060020a0316600160a060020a0316815260200182815260200192505050602060405180830381600087803b158015610e2257600080fd5b505af1158015610e36573d6000803e3d6000fd5b505050506040513d6020811015610e4c57600080fd5b50610d129050565b610e5f876000612fe4565b60035460008481526020818152604080832060010154815160e060020a63a9059cbb028152600160a060020a03918216600482015260248101879052915194169363a9059cbb93604480840194938390030190829087803b158015610ec357600080fd5b505af1158015610ed7573d6000803e3d6000fd5b505050506040513d6020811015610eed57600080fd5b50511515610d1257600080fd5b610119565b6004866004811115610f0d57fe5b1415610fd6576002850154600160a060020a031633148015610f395750610f32612d33565b8560070154105b8015610f4f57508460080154610f4d612d33565b105b15610f9157610f5f876001612fe4565b604051339088907f7d16ed55582bcf69d7bb762cda5b82042371fba7de3a8ebea4517079d892f52290600090a3611294565b6002850154600160a060020a031633148015610fb857508460080154610fb5612d33565b10155b15610efa576000600786018190556008860155610d1287600261334e565b6003866004811115610fe457fe5b14156111f457610ff2612d33565b856003015410801561100a57506110088761092f565b155b1561101857610d1287613533565b8315610efa5761102787612d82565b909250905081151561111c5760035460058601546040805160e160020a6318eb95970281529051600160a060020a039384169363a9059cbb93169161108f9130916331d72b2e9160048083019260209291908290030181600087803b158015610d9757600080fd5b6040518363ffffffff1660e060020a0281526004018083600160a060020a0316600160a060020a0316815260200182815260200192505050602060405180830381600087803b1580156110e157600080fd5b505af11580156110f5573d6000803e3d6000fd5b505050506040513d602081101561110b57600080fd5b50611117905087613533565b610d12565b60035460008481526020818152604080832060010154815160e060020a63a9059cbb028152600160a060020a03918216600482015260248101879052915194169363a9059cbb93604480840194938390030190829087803b15801561118057600080fd5b505af1158015611194573d6000803e3d6000fd5b505050506040513d60208110156111aa57600080fd5b505115156111b757600080fd5b600585018054600160a060020a03191690556111d76004860160006138e6565b600087815260016020526040812060030155610d1287600261334e565b600286600481111561120257fe5b141561127f578315610efa5761121787612d82565b9092509050811515610e545760035460028601546040805160e160020a6318eb95970281529051600160a060020a039384169363a9059cbb931691610dd09130916331d72b2e9160048083019260209291908290030181600087803b158015610d9757600080fd5b600086600481111561128d57fe5b1461011957fe5b50505050505050565b60008060006112ab84612b12565b6112b484612d14565b600085815260016020526040902090925090506112d08461092f565b80156112e057506112e084611428565b156112ee5760019250611421565b60018260048111156112fc57fe5b14156113355761130a612d33565b816003015410801561132257506113208461092f565b155b156113305760019250611421565b61141c565b600482600481111561134357fe5b14156113c5576002810154600160a060020a03163314801561136f5750611368612d33565b8160070154105b801561138557508060080154611383612d33565b105b156113935760019250611421565b6002810154600160a060020a031633148015611322575080600801546113b7612d33565b106113305760019250611421565b60028260048111156113d357fe5b14156113e25760009250611421565b60038260048111156113f057fe5b14156113fe5761130a612d33565b600082600481111561140c57fe5b1461141357fe5b60009250611421565b600092505b5050919050565b600080826114358161092f565b151561144057600080fd5b6000848152600160209081526040808320600601546004805483517fee6848300000000000000000000000000000000000000000000000000000000081529182018390529251919650600160a060020a039092169363ee68483093602480850194919392918390030190829087803b1580156114bb57600080fd5b505af11580156114cf573d6000803e3d6000fd5b505050506040513d60208110156114e557600080fd5b5051949350505050565b6000816002806114fe83612d14565b600481111561150957fe5b1461151357600080fd5b8361151d8161092f565b1561152757600080fd5b61153085612b12565b60008581526001602052604090206002810154909450600160a060020a0316331461155a57600080fd5b6005546040805160e160020a63349f642f028152602060048201819052600d60248301527f6578697454696d6544656c6179000000000000000000000000000000000000006044830152915161161793600160a060020a03169263693ec85e92606480820193918290030181600087803b1580156115d757600080fd5b505af11580156115eb573d6000803e3d6000fd5b505050506040513d602081101561160157600080fd5b505161160b612d33565b9063ffffffff6136fc16565b60078501556005546040805160e160020a63349f642f028152602060048201819052600d60248301527f65786974506572696f644c656e00000000000000000000000000000000000000604483015291516116d693600160a060020a03169263693ec85e92606480820193918290030181600087803b15801561169957600080fd5b505af11580156116ad573d6000803e3d6000fd5b505050506040513d60208110156116c357600080fd5b505160078601549063ffffffff6136fc16565b60088501556116e685600461334e565b600784015460088501546040805192835260208301919091528051339288927f4b137a01f77b8f1b4ccaca2abac799475d550c8adc298e399e75ee95d317b54692918290030190a35050505050565b6000602081905290815260409020805460018201546002909201549091600160a060020a0381169160a060020a90910460ff169084565b60008360028061177b83612d14565b600481111561178657fe5b1461179057600080fd5b8561179a8161092f565b156117a457600080fd5b6117ad87612b12565b600087815260016020526040902093506117cb60048501878761392d565b5060058085018054600160a060020a03191633179055546040805160e160020a63349f642f028152602060048201819052600d60248301527f6170706c7953746167654c656e000000000000000000000000000000000000006044830152915161185c93600160a060020a03169263693ec85e92606480820193918290030181600087803b1580156115d757600080fd5b6003808601919091555460058501546040805160e160020a6318eb95970281529051600160a060020a03938416936323b872dd931691309182916331d72b2e9160048083019260209291908290030181600087803b1580156118bd57600080fd5b505af11580156118d1573d6000803e3d6000fd5b505050506040513d60208110156118e757600080fd5b50516040805160e060020a63ffffffff8716028152600160a060020a0394851660048201529290931660248301526044820152905160648083019260209291908290030181600087803b15801561193d57600080fd5b505af1158015611951573d6000803e3d6000fd5b505050506040513d602081101561196757600080fd5b5051151561197457600080fd5b61197f87600361334e565b33600160a060020a031687600019167f737315cf706ab3a33d458e436c4d95d99e56ae8703cb3870e95c93d3539a6d7330600160a060020a03166331d72b2e6040518163ffffffff1660e060020a028152600401602060405180830381600087803b1580156119ed57600080fd5b505af1158015611a01573d6000803e3d6000fd5b505050506040513d6020811015611a1757600080fd5b50516003880154604080518381526020810183905260609181018281529181018c90528c918c919060808201848480828437604051920182900397509095505050505050a350505050505050565b600082815260208181526040808320600160a060020a038516845260030190915290205460ff165b92915050565b6000818152602081815260408083206004805483517fd1382092000000000000000000000000000000000000000000000000000000008152600160a060020a038981169382019390935260248101889052935186958695939092169263d138209292604480830193919282900301818887803b158015611b1257600080fd5b505af1158015611b26573d6000803e3d6000fd5b505050506040513d6020811015611b3c57600080fd5b50516002820154909350831115611b4f57fe5b60048054604080517fbdd415af000000000000000000000000000000000000000000000000000000008152928301889052600160a060020a038981166024850152905191169163bdd415af9160448083019260209291908290030181600087803b158015611bbc57600080fd5b505af1158015611bd0573d6000803e3d6000fd5b505050506040513d6020811015611be657600080fd5b505191508115611c205760028101548154611c199190611c0d90869063ffffffff61370916565b9063ffffffff61373216565b9350611c25565b600093505b509250925092565b600160208181526000928352604092839020805481840180548651600296821615610100026000190190911695909504601f81018590048502860185019096528585529094919392909190830182828015611cc95780601f10611c9e57610100808354040283529160200191611cc9565b820191906000526020600020905b815481529060010190602001808311611cac57829003601f168201915b5050505060028381015460038501546004860180546040805160206101006001851615026000190190931696909604601f81018390048302870183019091528086529697600160a060020a0385169760a060020a90950460ff1696509294929390830182828015611d7b5780601f10611d5057610100808354040283529160200191611d7b565b820191906000526020600020905b815481529060010190602001808311611d5e57829003601f168201915b505050506005830154600684015460078501546008909501549394600160a060020a03909216939092508a565b60068054600101908190556040805160208082019390935281518082038401815290820191829052805160009384939182918401908083835b60208310611e005780518252601f199092019160209182019101611de1565b5181516020939093036101000a60001901801990911692169190911790526040519201829003909120945060009250611e37915050565b611e4083612d14565b6004811115611e4b57fe5b14611e5257fe5b50600081815260016020819052604090912090611e72908201858561392d565b50600281018054600160a060020a031916331790556005546040805160e160020a63349f642f028152602060048201819052600d60248301527f6170706c7953746167654c656e0000000000000000000000000000000000000060448301529151611f0493600160a060020a03169263693ec85e92606480820193918290030181600087803b1580156115d757600080fd5b6003808301919091555460028201546040805160e160020a6318eb95970281529051600160a060020a03938416936323b872dd931691309182916331d72b2e9160048083019260209291908290030181600087803b158015611f6557600080fd5b505af1158015611f79573d6000803e3d6000fd5b505050506040513d6020811015611f8f57600080fd5b50516040805160e060020a63ffffffff8716028152600160a060020a0394851660048201529290931660248301526044820152905160648083019260209291908290030181600087803b158015611fe557600080fd5b505af1158015611ff9573d6000803e3d6000fd5b505050506040513d602081101561200f57600080fd5b5051151561201c57600080fd5b60028054808355600180820183556000929092527f405787fa12a823e0f2b7631cc41b3ba8828b3321ca811111fa75cd3aa3bb5ace0183905561206090839061334e565b33600160a060020a031682600019167f4312ccd704584a12352f9061e58caf210d1e8fe14645cb8784e318207ea1912130600160a060020a03166331d72b2e6040518163ffffffff1660e060020a028152600401602060405180830381600087803b1580156120ce57600080fd5b505af11580156120e2573d6000803e3d6000fd5b505050506040513d60208110156120f857600080fd5b50516003850154604080518381526020810183905260609181018281529181018a90528a918a919060808201848480828437604051920182900397509095505050505050a350505050565b60008181526020819052604081206001808201549192918291829160a060020a900460ff1615151461217457600080fd5b33600090815260038501602052604090205460ff161561219357600080fd5b61219d3386611a93565b3360008181526003808a0160209081526040808420805460ff191660011790559154825160e060020a63a9059cbb0281526004810195909552602485018790529151969950949750929550600160a060020a03929092169363a9059cbb9360448084019491938390030190829087803b15801561221957600080fd5b505af115801561222d573d6000803e3d6000fd5b505050506040513d602081101561224357600080fd5b5051151561225057600080fd5b801561232e576002840180548390039055835483900384556003546040805160e060020a63a9059cbb028152336004820152602481018690529051600160a060020a039092169163a9059cbb916044808201926020929091908290030181600087803b1580156122bf57600080fd5b505af11580156122d3573d6000803e3d6000fd5b505050506040513d60208110156122e957600080fd5b505115156122f657600080fd5b604080518481529051339187917f6f4c982acc31b0af2cf1dc1556f21c0325d893782d65e83c68a5534a33f599579181900360200190a35b5050505050565b600554600160a060020a031681565b6000806000806000866123568161092f565b1561236057600080fd5b61236988612b12565b61237288612d14565b6000898152600160205260409020909650945086600481111561239157fe5b600481111561239c57fe5b8660048111156123a857fe5b146123b257600080fd5b60018660048111156123c057fe5b14806123d7575060028660048111156123d557fe5b145b806123ed575060038660048111156123eb57fe5b145b15156123f857600080fd5b600480546005546040805160e160020a63349f642f0281526020948101859052600a60248201527f766f746551756f72756d0000000000000000000000000000000000000000000060448201529051600160a060020a03938416946332ed3d60949093169263693ec85e92606480820193918290030181600087803b15801561248057600080fd5b505af1158015612494573d6000803e3d6000fd5b505050506040513d60208110156124aa57600080fd5b50516005546040805160e160020a63349f642f028152602060048201819052600e60248301527f636f6d6d697453746167654c656e00000000000000000000000000000000000060448301529151600160a060020a039093169263693ec85e926064808401939192918290030181600087803b15801561252957600080fd5b505af115801561253d573d6000803e3d6000fd5b505050506040513d602081101561255357600080fd5b50516005546040805160e160020a63349f642f028152602060048201819052600e60248301527f72657665616c53746167654c656e00000000000000000000000000000000000060448301529151600160a060020a039093169263693ec85e926064808401939192918290030181600087803b1580156125d257600080fd5b505af11580156125e6573d6000803e3d6000fd5b505050506040513d60208110156125fc57600080fd5b50516040805160e060020a63ffffffff87160281526004810194909452602484019290925260448301525160648083019260209291908290030181600087803b15801561264857600080fd5b505af115801561265c573d6000803e3d6000fd5b505050506040513d602081101561267257600080fd5b5051604080516080810180835260e160020a6318eb959702905290519195509081906127b590606490611c0d9030906331d72b2e90608480880191602091818a030181600087803b1580156126c657600080fd5b505af11580156126da573d6000803e3d6000fd5b505050506040513d60208110156126f057600080fd5b50516005546040805160e160020a63349f642f028152602060048201819052600f60248301527f64697370656e736174696f6e5063740000000000000000000000000000000000604483015291516127a993600160a060020a03169263693ec85e92606480820193918290030181600087803b15801561276f57600080fd5b505af1158015612783573d6000803e3d6000fd5b505050506040513d602081101561279957600080fd5b505160649063ffffffff612fd216565b9063ffffffff61370916565b8152336020808301829052600060408085018290526060948501829052898252818352808220865181558684015160018201805489850151600160a060020a0319909116600160a060020a039384161774ff0000000000000000000000000000000000000000191660a060020a91151591909102179055969095015160029095019490945560068a01899055600354845160e160020a6318eb959702815294519516946323b872dd94309384936331d72b2e936004808501949192918390030190829087803b15801561288757600080fd5b505af115801561289b573d6000803e3d6000fd5b505050506040513d60208110156128b157600080fd5b50516040805160e060020a63ffffffff8716028152600160a060020a0394851660048201529290931660248301526044820152905160648083019260209291908290030181600087803b15801561290757600080fd5b505af115801561291b573d6000803e3d6000fd5b505050506040513d602081101561293157600080fd5b5051151561293e57600080fd5b60048054604080517f40e76fc400000000000000000000000000000000000000000000000000000000815292830187905251600160a060020a03909116916340e76fc49160248083019260e09291908290030181600087803b1580156129a357600080fd5b505af11580156129b7573d6000803e3d6000fd5b505050506040513d60e08110156129cd57600080fd5b5080516020918201516040805188815293840183905283810182905251919550935033918a917f67a04eb39babf45b833ba4c37d46c458529cf975c0bd58936d1f8d9f53bdf1009181900360600190a35050505050505050565b6002805482908110612a3557fe5b600091825260209091200154905081565b600354600160a060020a031681565b600454600160a060020a031681565b81612a6e8161092f565b1515612a7957600080fd5b612a8283612b12565b600480546000858152600160205260408082206006015481517f91d522f4000000000000000000000000000000000000000000000000000000008152948501526024840186905233604485015251600160a060020a03909216926391d522f4926064808301939282900301818387803b158015612afe57600080fd5b505af1158015611294573d6000803e3d6000fd5b600081815260016020526040812060028101549091600160a060020a038216159160a060020a900460ff166004811115612b4857fe5b1414612b5057fe5b600381015415156001600283015460a060020a900460ff166004811115612b7357fe5b1480612b9857506003600283015460a060020a900460ff166004811115612b9657fe5b145b151514612ba157fe5b600781015415156004600283015460a060020a900460ff166004811115612bc457fe5b1414612bcc57fe5b600881015415156004600283015460a060020a900460ff166004811115612bef57fe5b1414612bf757fe5b60048101546002600019610100600184161502019091160415156003600283015460a060020a900460ff166004811115612c2d57fe5b1414612c3557fe5b6005810154600160a060020a031615156003600283015460a060020a900460ff166004811115612c6157fe5b1414612c6957fe5b6004600282015460a060020a900460ff166004811115612c8557fe5b1480612caa57506000600282015460a060020a900460ff166004811115612ca857fe5b145b15612cbf57612cb88261092f565b15612cbf57fe5b6000600282015460a060020a900460ff166004811115612cdb57fe5b14612d1057600254815410612cec57fe5b8054600280548492908110612cfd57fe5b60009182526020909120015414612d1057fe5b5050565b60009081526001602052604090206002015460a060020a900460ff1690565b4290565b600081815260016020526040812060030155612d5481600261334e565b60405181907fa7bc1d57d9006d9d248707c7b6828c1bab8c51719cc06d78c82a3ee891ef967c90600090a250565b6000818152600160205260408120600601548190612d9f81613747565b6000828152602081815260408083206001908101805474ff0000000000000000000000000000000000000000191660a060020a17905588845282528083206006018390556004805482517f053e71a60000000000000000000000000000000000000000000000000000000081529182018790529151949650600160a060020a039091169363053e71a693602480840194938390030190829087803b158015612e4657600080fd5b505af1158015612e5a573d6000803e3d6000fd5b505050506040513d6020811015612e7057600080fd5b5051600082815260208181526040808320600201939093556004805484517f3c5940590000000000000000000000000000000000000000000000000000000081529182018690529351600160a060020a0390941693633c59405993602480840194938390030190829087803b158015612ee857600080fd5b505af1158015612efc573d6000803e3d6000fd5b505050506040513d6020811015612f1257600080fd5b505115925082612f76576000818152602081815260409182902080546002909101548351918252918101919091528151839287927fc4497224aa78dd50c9b3e344aab02596201ca1e6dca4057a91a6c02f83f4f6c1929081900390910190a3612fcc565b6000818152602081815260409182902080546002909101548351918252918101919091528151839287927f362a12431f779a2baff4f77f75ba7960ae993a5c41b425df11f7fd0af2b9cbe6929081900390910190a35b50915091565b600082821115612fde57fe5b50900390565b6000828152600160205260408120908080612ffe86612d14565b6002850154909350600160a060020a0316915081151561301a57fe5b5060028084018054600160a060020a03191690556000868152600160205260409020549054811061304757fe5b6002546000190181146130c45760028054829160019160009190600019810190811061306f57fe5b6000918252602080832090910154835282019290925260400190205560028054600019810190811061309d57fe5b90600052602060002001546002828154811015156130b757fe5b6000918252602090912001555b600280546000919060001981019081106130da57fe5b60009182526020909120015560028054906130f99060001983016139ab565b5060008681526001602081905260408220828155919061311b908301826138e6565b60028201805474ffffffffffffffffffffffffffffffffffffffffff191690556000600383018190556131529060048401906138e6565b50600581018054600160a060020a03191690556000600682018190556007820181905560089091015560028401805484919074ff0000000000000000000000000000000000000000191660a060020a8360048111156131ad57fe5b02179055506131bd86600061334e565b84156132d657600360009054906101000a9004600160a060020a0316600160a060020a031663a9059cbb8330600160a060020a03166331d72b2e6040518163ffffffff1660e060020a028152600401602060405180830381600087803b15801561322657600080fd5b505af115801561323a573d6000803e3d6000fd5b505050506040513d602081101561325057600080fd5b50516040805160e060020a63ffffffff8616028152600160a060020a03909316600484015260248301919091525160448083019260209291908290030181600087803b15801561329f57600080fd5b505af11580156132b3573d6000803e3d6000fd5b505050506040513d60208110156132c957600080fd5b505115156132d657600080fd5b8260048111156132e257fe5b6001141561331a5760405186907f2e5ec035f6eac8ff1cf7cdf36cfeca7c85413f9f67652dc2c13d20f337204a2690600090a2613346565b60405186907fd1ffb796b7108387b2f02adf47b4b81a1690cf2a190422c87a4f670780103e6390600090a25b505050505050565b600061335983612d14565b905081600481111561336757fe5b81600481111561337357fe5b141561337b57fe5b80600481111561338757fe5b15156133a85781600481111561339957fe5b60015b146133a357fe5b613497565b8060048111156133b457fe5b600114156133ed578160048111156133c857fe5b60025b14806133e557508160048111156133de57fe5b600061339c565b15156133a357fe5b8060048111156133f957fe5b6002141561343b5781600481111561340d57fe5b60031480613429575081600481111561342257fe5b60046133cb565b806133e557508160048111156133de57fe5b80600481111561344757fe5b600314156134625781600481111561345b57fe5b600261339c565b80600481111561346e57fe5b600414156134955781600481111561348257fe5b15806133e5575081600481111561345b57fe5bfe5b6000838152600160205260409020600201805483919074ff0000000000000000000000000000000000000000191660a060020a8360048111156134d657fe5b021790555082600019167f5259e6bce9118f32463f9a5d22fec1650fc0a470c6365f2ccd83d4cf75dd6747836040518082600481111561351257fe5b60ff16815260200191505060405180910390a261352e83612b12565b505050565b60008181526001602090815260408083206003546002820154835160e160020a6318eb959702815293519295600160a060020a039283169563a9059cbb95939092169330936331d72b2e936004808301949193928390030190829087803b15801561359d57600080fd5b505af11580156135b1573d6000803e3d6000fd5b505050506040513d60208110156135c757600080fd5b50516040805160e060020a63ffffffff8616028152600160a060020a03909316600484015260248301919091525160448083019260209291908290030181600087803b15801561361657600080fd5b505af115801561362a573d6000803e3d6000fd5b505050506040513d602081101561364057600080fd5b5051151561364d57600080fd5b60058101805460028084018054600160a060020a0319908116600160a060020a038516179091559091169091556004820180546136a1926001808601939260001991811615610100029190910116046139cf565b506136b06004820160006138e6565b6000828152600160205260408120600301556136cd82600261334e565b60405182907f5d75a4e0e0c1cc54dde0425a93949dc552565df87760b1cb07564b24e04add0090600090a25050565b81810182811015611a8d57fe5b600082151561371a57506000611a8d565b5081810281838281151561372a57fe5b0414611a8d57fe5b6000818381151561373f57fe5b049392505050565b60048054604080517f053e71a600000000000000000000000000000000000000000000000000000000815292830184905251600092600160a060020a039092169163053e71a691602480830192602092919082900301818787803b1580156137ae57600080fd5b505af11580156137c2573d6000803e3d6000fd5b505050506040513d60208110156137d857600080fd5b505115156138545730600160a060020a03166331d72b2e6040518163ffffffff1660e060020a028152600401602060405180830381600087803b15801561381e57600080fd5b505af1158015613832573d6000803e3d6000fd5b505050506040513d602081101561384857600080fd5b50516002029050610943565b611a8d6000808481526020019081526020016000206000015430600160a060020a03166331d72b2e6040518163ffffffff1660e060020a028152600401602060405180830381600087803b1580156138ab57600080fd5b505af11580156138bf573d6000803e3d6000fd5b505050506040513d60208110156138d557600080fd5b50516002029063ffffffff612fd216565b50805460018160011615610100020316600290046000825580601f1061390c575061392a565b601f01602090049060005260206000209081019061392a9190613a44565b50565b828054600181600116156101000203166002900490600052602060002090601f016020900481019282601f1061396e5782800160ff1982351617855561399b565b8280016001018555821561399b579182015b8281111561399b578235825591602001919060010190613980565b506139a7929150613a44565b5090565b81548183558181111561352e5760008381526020902061352e918101908301613a44565b828054600181600116156101000203166002900490600052602060002090601f016020900481019282601f10613a08578054855561399b565b8280016001018555821561399b57600052602060002091601f016020900482015b8281111561399b578254825591600101919060010190613a29565b61092c91905b808211156139a75760008155600101613a4a5600a165627a7a723058207e89d1d1563c69bdbc20a01afa927d7df9450464891ce293d70656c348987ca00029",
  "source": "pragma solidity ^0.4.24;\n\nimport \"./IRegistry.sol\";\nimport \"./Parameterizer.sol\";\nimport \"./IVoting.sol\";\nimport \"zeppelin-solidity/contracts/math/SafeMath.sol\";\nimport \"zeppelin-solidity/contracts/token/ERC20/ERC20.sol\";\n\ncontract Registry is IRegistry {\n\n    // ------\n    // EVENTS\n    // ------\n\n    event _Application(bytes32 indexed listingHash, uint deposit, uint appEndDate, bytes ipfs_hash, address indexed applicant);\n    event _EditApplication(bytes32 indexed listingHash, uint deposit, uint appEndDate, bytes ipfs_hash, address indexed applicant);\n    event _Challenge(bytes32 indexed listingHash, uint challengeID, uint commitEndDate, uint revealEndDate, address indexed challenger);\n    event _Deposit(bytes32 indexed listingHash, uint added, uint newTotal, address indexed owner);\n    event _Withdrawal(bytes32 indexed listingHash, uint withdrew, uint newTotal, address indexed owner);\n    event _ApplicationWhitelisted(bytes32 indexed listingHash);\n    event _EditApplicationWhitelisted(bytes32 indexed listingHash);\n    event _ApplicationRemoved(bytes32 indexed listingHash);\n    event _ListingRemoved(bytes32 indexed listingHash);\n    event _ListingWithdrawn(bytes32 indexed listingHash, address indexed owner);\n    event _TouchAndRemoved(bytes32 indexed listingHash);\n    event _ChallengeFailed(bytes32 indexed listingHash, uint indexed challengeID, uint rewardPool, uint totalTokens);\n    event _ChallengeSucceeded(bytes32 indexed listingHash, uint indexed challengeID, uint rewardPool, uint totalTokens);\n    event _RewardClaimed(uint indexed challengeID, uint reward, address indexed voter);\n    event _ExitInitialized(bytes32 indexed listingHash, uint exitTime, uint exitDelayEndDate, address indexed owner);\n    event _StateChanged(bytes32 indexed listing_id, DAppState new_state);\n\n    // ============\n    // DATA STRUCTURES:\n    // ============\n\n    enum DAppState {\n        // registry does not know about the dapp\n        NOT_EXISTS,\n\n        // application for inclusion to the registry is in progress\n        APPLICATION,\n\n        // dapp exists in the registry\n        EXISTS,\n\n        // application for edit of registry dapp is in progress\n        EDIT,\n\n        // submitter is calling of the dapp\n        DELETING\n    }\n\n    using SafeMath for uint;\n\n    struct Listing {\n        uint ids_position;\n        bytes ipfs_hash;\n        address owner;          // Owner of Listing\n\n        DAppState state;\n\n        uint applicationExpiry; // Expiration date of apply stage\n\n        bytes proposed_ipfs_hash;\n        address proposal_author;\n\n        uint challengeID;       // Corresponds to a PollID in Voting\n\n        uint exitTime;          // Time the listing may leave the registry\n        uint exitTimeExpiry;    // Expiration date of exit period\n    }\n\n    struct Challenge {\n        uint rewardPool;        // (remaining) Pool of tokens to be distributed to winning voters\n        address challenger;     // Owner of Challenge\n        bool resolved;          // Indication of if challenge is resolved\n        uint totalTokens;       // (remaining) Number of tokens used in voting by the winning side\n        mapping(address => bool) tokenClaims; // Indicates whether a voter has claimed a reward yet\n    }\n\n    // ============\n    // MODIFIERS:\n    // ============\n\n    modifier requiresState(bytes32 listing_id, Registry.DAppState state) {\n        require(dappState(listing_id) == state);\n        _;\n    }\n\n    modifier notChallenged(bytes32 listing_id) {\n        require(!challengeExists(listing_id));\n        _;\n    }\n\n    modifier isChallenged(bytes32 listing_id) {\n        require(challengeExists(listing_id));\n        _;\n    }\n\n    // ============\n    // GLOBAL STATE:\n    // ============\n\n    // Maps challengeIDs to associated challenge data\n    mapping(uint => Challenge) public challenges;\n\n    // Maps listingHashes to associated listingHash data\n    mapping(bytes32 => Listing) public listings;\n\n    bytes32[] public ids;\n\n    // Global Variables\n    ERC20 public token;\n    IVoting public voting;\n    Parameterizer public parameterizer;\n\n    uint nonce;\n\n\n    function Registry(address _token, address _voting, address _parameterizer) public {\n        require(_token != 0 && address(token) == 0);\n        require(_voting != 0 && address(voting) == 0);\n        require(_parameterizer != 0 && address(parameterizer) == 0);\n\n        token = ERC20(_token);\n        voting = IVoting(_voting);\n        parameterizer = Parameterizer(_parameterizer);\n    }\n\n    // --------------------\n    // PUBLISHER INTERFACE:\n    // --------------------\n\n    function apply(bytes ipfs_hash) external {\n        bytes32 listing_id = keccak256(abi.encode(++nonce));\n        assert(dappState(listing_id) == DAppState.NOT_EXISTS);\n\n        // Sets owner\n        Listing storage listing = listings[listing_id];\n        listing.ipfs_hash = ipfs_hash;\n        listing.owner = msg.sender;\n\n        // Sets apply stage end time\n        listing.applicationExpiry = time().add(parameterizer.get(\"applyStageLen\"));\n\n        // Transfers tokens from user to Registry contract\n        require(token.transferFrom(listing.owner, this, this.deposit_size()));\n\n        // ids <-> listings linkage\n        listing.ids_position = ids.length;\n        ids.push(listing_id);\n\n        changeState(listing_id, DAppState.APPLICATION);\n        emit _Application(listing_id, this.deposit_size(), listing.applicationExpiry, ipfs_hash, msg.sender);\n    }\n\n    function edit(bytes32 listing_id, bytes new_ipfs_hash)\n        external\n        requiresState(listing_id, DAppState.EXISTS)\n        notChallenged(listing_id)\n    {\n        checkDAppInvariant(listing_id);\n        Listing storage listing = listings[listing_id];\n\n        // Sets proposal\n        listing.proposed_ipfs_hash = new_ipfs_hash;\n        listing.proposal_author = msg.sender;\n\n        // Sets apply stage end time\n        listing.applicationExpiry = time().add(parameterizer.get(\"applyStageLen\"));\n\n        // Transfers tokens from user to Registry contract\n        // locking extra deposit even in case proposal_author == owner: he has to back his new proposal\n        require(token.transferFrom(listing.proposal_author, this, this.deposit_size()));\n\n        changeState(listing_id, DAppState.EDIT);\n        emit _EditApplication(listing_id, this.deposit_size(), listing.applicationExpiry, new_ipfs_hash, msg.sender);\n    }\n\n    function init_exit(bytes32 listing_id)\n        external\n        requiresState(listing_id, DAppState.EXISTS)\n        notChallenged(listing_id)\n    {\n        checkDAppInvariant(listing_id);\n        Listing storage listing = listings[listing_id];\n\n        require(msg.sender == listing.owner);\n\n        // Set when the listing may be removed from the whitelist\n        listing.exitTime = time().add(parameterizer.get(\"exitTimeDelay\"));\n        // Set exit period end time\n        listing.exitTimeExpiry = listing.exitTime.add(parameterizer.get(\"exitPeriodLen\"));\n        changeState(listing_id, DAppState.DELETING);\n\n        emit _ExitInitialized(listing_id, listing.exitTime, listing.exitTimeExpiry, msg.sender);\n    }\n\n    // -----------------------\n    // VIEW:\n    // -----------------------\n\n    function deposit_size() external view returns (uint) {\n        return parameterizer.get(\"minDeposit\");\n    }\n\n    function list() external view returns (bytes32[]) {\n        return ids;\n    }\n\n    function get_info(bytes32 listing_id) external view returns\n            (uint state, bool is_challenged /* many states can be challenged */,\n            bool status_can_be_updated /* if update_status should be called */,\n            bytes ipfs_hash, bytes proposed_ipfs_hash /* empty if not editing */) {\n        checkDAppInvariant(listing_id);\n\n        state = uint(dappState(listing_id));\n        is_challenged = challengeExists(listing_id);\n        status_can_be_updated = this.can_update_status(listing_id);\n        ipfs_hash = listings[listing_id].ipfs_hash;\n        proposed_ipfs_hash = listings[listing_id].proposed_ipfs_hash;\n    }\n\n    // -----------------------\n    // MAINTENANCE:\n    // -----------------------\n\n    function can_update_status(bytes32 listing_id) external view returns (bool) {\n        checkDAppInvariant(listing_id);\n        DAppState state = dappState(listing_id);\n        Listing storage listing = listings[listing_id];\n\n        if (challengeExists(listing_id) && challengeCanBeResolved(listing_id))\n            return true;\n\n        if (state == DAppState.APPLICATION) {\n            if (listing.applicationExpiry < time() && !challengeExists(listing_id))\n                return true;\n        }\n        else if (state == DAppState.DELETING) {\n            if (msg.sender == listing.owner &&\n                    listing.exitTime < time() && time() < listing.exitTimeExpiry)\n                return true;\n            if (msg.sender == listing.owner && time() >= listing.exitTimeExpiry)\n                return true;\n        }\n        else if (state == DAppState.EXISTS) {\n            // FIXME FIXME finish challenge?\n            return false;\n        }\n        else if (state == DAppState.EDIT) {\n            if (listing.applicationExpiry < time() && !challengeExists(listing_id))\n                return true;\n        }\n        else {\n            // FIXME FIXME more states\n            assert(state == DAppState.NOT_EXISTS);\n            return false;\n        }\n\n        return false;\n    }\n\n    // finish current operation\n    function update_status(bytes32 listing_id) external {\n        checkDAppInvariant(listing_id);\n        DAppState state = dappState(listing_id);\n        Listing storage listing = listings[listing_id];\n\n        bool process_challenge = challengeExists(listing_id) && challengeCanBeResolved(listing_id);\n        uint challengeID = process_challenge ? listings[listing_id].challengeID : 0;\n        bool challenger_won;\n        uint reward;\n\n        if (state == DAppState.APPLICATION) {\n            if (listing.applicationExpiry < time() && !challengeExists(listing_id)) {\n                whitelistApplication(listing_id);\n                return;\n            }\n\n            if (process_challenge) {\n                (challenger_won, reward) = resolveChallenge(listing_id);\n                if (!challenger_won) {\n                    whitelistApplication(listing_id);\n                    // transfer of reward, but minimal deposit must remain stacked\n                    token.transfer(listing.owner, reward.sub(this.deposit_size()));\n                }\n                else {\n                    resetListing(listing_id, false);\n                    // Transfer the reward to the challenger\n                    require(token.transfer(challenges[challengeID].challenger, reward));\n                }\n                return;\n            }\n        }\n        else if (state == DAppState.DELETING) {\n            if (msg.sender == listing.owner &&\n                    listing.exitTime < time() && time() < listing.exitTimeExpiry) {\n                resetListing(listing_id, true);\n                emit _ListingWithdrawn(listing_id, msg.sender);\n                return;\n            }\n            if (msg.sender == listing.owner && time() >= listing.exitTimeExpiry) {\n                listing.exitTime = 0;\n                listing.exitTimeExpiry = 0;\n                changeState(listing_id, DAppState.EXISTS);\n                return;\n            }\n        }\n        else if (state == DAppState.EDIT) {\n            if (listing.applicationExpiry < time() && !challengeExists(listing_id)) {\n                whitelistEditProposal(listing_id);\n                return;\n            }\n\n            if (process_challenge) {\n                (challenger_won, reward) = resolveChallenge(listing_id);\n                if (!challenger_won) {\n                    // transfer of reward, but proposal deposit must remain stacked\n                    token.transfer(listing.proposal_author, reward.sub(this.deposit_size()));\n                    whitelistEditProposal(listing_id);\n                }\n                else {\n                    // Transfer the reward to the challenger\n                    require(token.transfer(challenges[challengeID].challenger, reward));\n                    delete listing.proposal_author;\n                    delete listing.proposed_ipfs_hash;\n                    listings[listing_id].applicationExpiry = 0;\n                    changeState(listing_id, DAppState.EXISTS);\n                }\n                return;\n            }\n        }\n        else if (state == DAppState.EXISTS) {\n            if (process_challenge) {\n                (challenger_won, reward) = resolveChallenge(listing_id);\n                if (!challenger_won) {\n                    // transfer of reward, but minimal deposit must remain stacked\n                    token.transfer(listing.owner, reward.sub(this.deposit_size()));\n                }\n                else {\n                    resetListing(listing_id, false);\n                    // Transfer the reward to the challenger\n                    require(token.transfer(challenges[challengeID].challenger, reward));\n                }\n                return;\n            }\n        }\n        else {\n            assert(state == DAppState.NOT_EXISTS);\n        }\n\n        revert();\n    }\n\n    // -----------------------\n    // TOKEN HOLDER INTERFACE:\n    // -----------------------\n\n    function challenge(bytes32 listing_id, uint state_check /* pass state seen by you to prevent race condition */)\n        external\n        notChallenged(listing_id)\n    {\n        checkDAppInvariant(listing_id);\n        DAppState state = dappState(listing_id);\n        Listing storage listing = listings[listing_id];\n\n        require(state == DAppState(state_check));\n        require(state == DAppState.APPLICATION || state == DAppState.EXISTS || state == DAppState.EDIT);\n\n        // Starts poll\n        uint pollID = voting.startPoll(\n            parameterizer.get(\"voteQuorum\"),\n            parameterizer.get(\"commitStageLen\"),\n            parameterizer.get(\"revealStageLen\")\n        );\n\n        challenges[pollID] = Challenge({\n            challenger: msg.sender,\n            rewardPool: ((uint(100).sub(parameterizer.get(\"dispensationPct\"))).mul(this.deposit_size())).div(100),\n            resolved: false,\n            totalTokens: 0\n        });\n\n        // Updates listingHash to store most recent challenge\n        listing.challengeID = pollID;\n\n        // Takes tokens from challenger\n        require(token.transferFrom(msg.sender, this, this.deposit_size()));\n\n        (uint commitEndDate, uint revealEndDate,,,,,) = voting.pollInfo(pollID);\n\n        emit _Challenge(listing_id, pollID, commitEndDate, revealEndDate, msg.sender);\n    }\n\n    function challenge_status(bytes32 listing_id)\n        external\n        view\n        isChallenged(listing_id)\n        returns\n            (uint challenge_id, bool is_commit, bool is_reveal, uint votesFor /* 0 for commit phase */,\n            uint votesAgainst /* 0 for commit phase */,\n            uint commitEndDate, uint revealEndDate)\n    {\n        checkDAppInvariant(listing_id);\n\n        challenge_id = listings[listing_id].challengeID;\n        (commitEndDate,\n        revealEndDate,\n        ,\n        votesFor,\n        votesAgainst,\n        is_commit,\n        is_reveal) = voting.pollInfo(challenge_id);\n    }\n\n    function commit_vote(bytes32 listing_id, bytes32 secret_hash)\n        external\n        isChallenged(listing_id)\n    {\n        checkDAppInvariant(listing_id);\n        voting.commitVote(listings[listing_id].challengeID, secret_hash, msg.sender);\n    }\n\n    function reveal_vote(bytes32 listing_id, uint vote_option /* 1: for, other: against */, uint vote_stake, uint salt)\n        external\n        isChallenged(listing_id)\n    {\n        checkDAppInvariant(listing_id);\n        require(token.transferFrom(msg.sender, this, vote_stake));\n        voting.revealVote(listings[listing_id].challengeID, vote_option, vote_stake, salt, msg.sender);\n    }\n\n    // ----------------\n    // TOKEN FUNCTIONS:\n    // ----------------\n\n    function claim_reward(uint challenge_id) external {\n        Challenge storage challengeInstance = challenges[challenge_id];\n        require(challengeInstance.resolved == true);\n        require(challengeInstance.tokenClaims[msg.sender] == false);\n\n        (uint reward, uint voterTokens, bool isWinner) = voterReward(msg.sender, challenge_id);\n\n        // Ensures a voter cannot claim tokens again\n        challengeInstance.tokenClaims[msg.sender] = true;\n\n        // returning stake! TODO: dont do it for losers\n        require(token.transfer(msg.sender, voterTokens));\n\n        if (isWinner) {\n            // Subtracts the voter's information to preserve the participation ratios\n            // of other voters compared to the remaining pool of rewards\n            challengeInstance.totalTokens -= voterTokens;\n            challengeInstance.rewardPool -= reward;\n\n            require(token.transfer(msg.sender, reward));\n\n            emit _RewardClaimed(challenge_id, reward, msg.sender);\n        }\n    }\n\n    // --------\n    // GETTERS:\n    // --------\n\n    function voterReward(address _voter, uint _challengeID)\n        public\n        view\n        returns (uint reward, uint voterTokens, bool isWinner)\n    {\n        Challenge storage challengeInstance = challenges[_challengeID];\n\n        voterTokens = voting.getNumTokens(_voter, _challengeID);\n        assert(voterTokens <= challengeInstance.totalTokens);\n\n        isWinner = voting.isWinner(_challengeID, _voter);\n        if (isWinner)\n            reward = voterTokens.mul(challengeInstance.rewardPool).div(challengeInstance.totalTokens);\n        else\n            reward = 0;\n    }\n\n    /**\n    @dev                Returns true if the application/listingHash has an unresolved challenge\n    @param listing_id The listingHash whose status is to be examined\n    */\n    function challengeExists(bytes32 listing_id) view public returns (bool) {\n        return listings[listing_id].challengeID > 0;\n    }\n\n    /**\n    @dev                Determines whether voting has concluded in a challenge for a given\n                        listingHash. Throws if no challenge exists.\n    @param listing_id A listingHash with an unresolved challenge\n    */\n    function challengeCanBeResolved(bytes32 listing_id)\n        public\n        view\n        isChallenged(listing_id)\n        returns (bool)\n    {\n        uint challengeID = listings[listing_id].challengeID;\n        return voting.pollEnded(challengeID);\n    }\n\n    /**\n    @dev                Determines the number of tokens awarded to the winning party in a challenge.\n                        This reward is for author or challenger only. For other voter rewards see claim_reward.\n                        Reward is: (winner's full stake) + (dispensationPct * loser's stake).\n    @param _challengeID The challengeID to determine a reward for\n    */\n    function determineReward(uint _challengeID) private view returns (uint) {\n        // Edge case, nobody voted, give all tokens to the winner.\n        if (voting.getTotalNumberOfTokensForWinningOption(_challengeID) == 0) {\n            return 2 * this.deposit_size();\n        }\n\n        return (2 * this.deposit_size()).sub(challenges[_challengeID].rewardPool);\n    }\n\n    /**\n    @dev                Getter for Challenge tokenClaims mappings\n    @param _challengeID The challengeID to query\n    @param _voter       The voter whose claim status to query for the provided challengeID\n    */\n    function tokenClaims(uint _challengeID, address _voter) external view returns (bool) {\n        return challenges[_challengeID].tokenClaims[_voter];\n    }\n\n    // ----------------\n    // PRIVATE FUNCTIONS:\n    // ----------------\n\n    /**\n    @dev                Determines the winner in a challenge. Rewards the winner tokens and\n                        either whitelists or de-whitelists the listingHash.\n    @param listing_id A listingHash with a challenge that is to be resolved\n    */\n    function resolveChallenge(bytes32 listing_id) private returns (bool challenger_won, uint reward) {\n        uint challengeID = listings[listing_id].challengeID;\n\n        // Calculates the winner's reward,\n        reward = determineReward(challengeID);\n\n        // Sets flag on challenge being processed\n        challenges[challengeID].resolved = true;\n        listings[listing_id].challengeID = 0;\n\n        // Stores the total tokens used for voting by the winning side for reward purposes\n        challenges[challengeID].totalTokens =\n            voting.getTotalNumberOfTokensForWinningOption(challengeID);\n\n        challenger_won = !voting.result(challengeID);\n\n        if (!challenger_won) {\n            emit _ChallengeFailed(listing_id, challengeID, challenges[challengeID].rewardPool, challenges[challengeID].totalTokens);\n        }\n        // Case: challenge succeeded or nobody voted\n        else {\n            emit _ChallengeSucceeded(listing_id, challengeID, challenges[challengeID].rewardPool, challenges[challengeID].totalTokens);\n        }\n    }\n\n    /**\n    @dev                Called by updateStatus() if the applicationExpiry date passed without a\n                        challenge being made. Called by resolveChallenge() if an\n                        application/listing beat a challenge.\n    @param listing_id The listingHash of an application/listingHash to be whitelisted\n    */\n    function whitelistApplication(bytes32 listing_id) private {\n        listings[listing_id].applicationExpiry = 0;\n        changeState(listing_id, DAppState.EXISTS);\n        emit _ApplicationWhitelisted(listing_id);\n    }\n\n    function whitelistEditProposal(bytes32 listing_id) private {\n        Listing storage listing = listings[listing_id];\n\n        // changing owner - freeing deposit\n        require(token.transfer(listing.owner, this.deposit_size()));\n        listing.owner = listing.proposal_author;\n        delete listing.proposal_author;\n\n        listing.ipfs_hash = listing.proposed_ipfs_hash;\n        delete listing.proposed_ipfs_hash;\n\n        listings[listing_id].applicationExpiry = 0;\n        changeState(listing_id, DAppState.EXISTS);\n        emit _EditApplicationWhitelisted(listing_id);\n    }\n\n    /**\n    @dev                Deletes a listingHash from the whitelist and transfers tokens back to owner\n    @param listing_id The listing hash to delete\n    */\n    function resetListing(bytes32 listing_id, bool refund_owner) private {\n        Listing storage listing = listings[listing_id];\n        DAppState state_was = dappState(listing_id);\n\n        // Deleting listing to prevent reentry\n        address owner = listing.owner;\n        assert(owner != address(0));\n        listing.owner = address(0);\n\n        // ids <-> listings linkage\n        uint removed_position = listings[listing_id].ids_position;\n        assert(removed_position < ids.length);\n        if (removed_position != ids.length - 1) {\n            listings[ids[ids.length - 1]].ids_position = removed_position;\n            ids[removed_position] = ids[ids.length - 1];\n        }\n        ids[ids.length - 1] = bytes32(0);\n        ids.length--;\n\n        delete listings[listing_id];    // resetting everything\n        listing.state = state_was;      // except state\n        changeState(listing_id, DAppState.NOT_EXISTS);\n\n        // Transfers any remaining balance back to the owner\n        if (refund_owner) {\n            require(token.transfer(owner, this.deposit_size()));\n        }\n\n        if (DAppState.APPLICATION == state_was) {\n            emit _ApplicationRemoved(listing_id);\n        } else {\n            emit _ListingRemoved(listing_id);\n        }\n    }\n\n    // ----------------\n    // STATE & INVARIANTS:\n    // ----------------\n\n    function dappState(bytes32 listing_id) internal view returns (Registry.DAppState) {\n        return listings[listing_id].state;\n    }\n\n    function checkDAppInvariant(bytes32 listing_id) internal view {\n        Listing storage listing = listings[listing_id];\n\n        assert((listing.state == DAppState.NOT_EXISTS) == (listing.owner == address(0)));\n        assert((listing.state == DAppState.APPLICATION || listing.state == DAppState.EDIT)\n                == (listing.applicationExpiry != 0));\n\n        assert((listing.state == DAppState.DELETING) == (listing.exitTime != 0));\n        assert((listing.state == DAppState.DELETING) == (listing.exitTimeExpiry != 0));\n\n        assert((listing.state == DAppState.EDIT) == (listing.proposed_ipfs_hash.length != 0));\n        assert((listing.state == DAppState.EDIT) == (listing.proposal_author != address(0)));\n\n        if (listing.state == DAppState.DELETING || listing.state == DAppState.NOT_EXISTS)\n            assert(!challengeExists(listing_id));\n\n        if (listing.state != DAppState.NOT_EXISTS) {\n            assert(listing.ids_position < ids.length);\n            assert(ids[listing.ids_position] == listing_id);\n        }\n    }\n\n    function changeState(bytes32 listing_id, DAppState new_state) internal {\n        DAppState state = dappState(listing_id);\n        assert(state != new_state);\n\n        if (DAppState.NOT_EXISTS == state) {    assert(DAppState.APPLICATION == new_state); }\n        else if (DAppState.APPLICATION == state) {    assert(DAppState.EXISTS == new_state || DAppState.NOT_EXISTS == new_state); }\n        else if (DAppState.EXISTS == state) {   assert(DAppState.EDIT == new_state || DAppState.DELETING == new_state || DAppState.NOT_EXISTS == new_state); }\n        else if (DAppState.EDIT == state) {     assert(DAppState.EXISTS == new_state); }\n        else if (DAppState.DELETING == state) { assert(DAppState.NOT_EXISTS == new_state || DAppState.EXISTS == new_state); }\n        else assert(false);\n\n        listings[listing_id].state = new_state;\n        emit _StateChanged(listing_id, new_state);\n        checkDAppInvariant(listing_id);\n    }\n\n    // ----------------\n    // FOR UNIT TESTING:\n    // ----------------\n\n    function time() internal view returns (uint) {\n        return now;\n    }\n}\n",
  "sourcePath": "/home/algys/sources/dapp-tcr/contracts/Registry.sol",
  "compiler": {
    "name": "solc",
    "version": "0.4.24+commit.e67f0147.Emscripten.clang"
  },
  "schemaVersion": "2.0.1",
  "updatedAt": "2018-10-28T06:09:45.507Z"
}