{
  "contractName": "RegistryTestHelper",
  "abi": [
    {
      "constant": true,
      "inputs": [
        {
          "name": "listing_id",
          "type": "bytes32"
        }
      ],
      "name": "get_info",
      "outputs": [
        {
          "name": "state",
          "type": "uint256"
        },
        {
          "name": "is_challenged",
          "type": "bool"
        },
        {
          "name": "status_can_be_updated",
          "type": "bool"
        },
        {
          "name": "ipfs_hash",
          "type": "bytes"
        },
        {
          "name": "edit_ipfs_hash",
          "type": "bytes"
        }
      ],
      "payable": false,
      "stateMutability": "view",
      "type": "function"
    },
    {
      "constant": true,
      "inputs": [],
      "name": "list",
      "outputs": [
        {
          "name": "",
          "type": "bytes32[]"
        }
      ],
      "payable": false,
      "stateMutability": "view",
      "type": "function"
    },
    {
      "constant": true,
      "inputs": [
        {
          "name": "listing_id",
          "type": "bytes32"
        }
      ],
      "name": "challengeExists",
      "outputs": [
        {
          "name": "",
          "type": "bool"
        }
      ],
      "payable": false,
      "stateMutability": "view",
      "type": "function"
    },
    {
      "constant": true,
      "inputs": [
        {
          "name": "listing_id",
          "type": "bytes32"
        }
      ],
      "name": "challenge_status",
      "outputs": [
        {
          "name": "challenge_id",
          "type": "uint256"
        },
        {
          "name": "is_commit",
          "type": "bool"
        },
        {
          "name": "is_reveal",
          "type": "bool"
        },
        {
          "name": "votesFor",
          "type": "uint256"
        },
        {
          "name": "votesAgainst",
          "type": "uint256"
        }
      ],
      "payable": false,
      "stateMutability": "view",
      "type": "function"
    },
    {
      "constant": false,
      "inputs": [
        {
          "name": "listing_id",
          "type": "bytes32"
        },
        {
          "name": "vote_option",
          "type": "uint256"
        },
        {
          "name": "vote_stake",
          "type": "uint256"
        },
        {
          "name": "salt",
          "type": "uint256"
        }
      ],
      "name": "reveal_vote",
      "outputs": [],
      "payable": false,
      "stateMutability": "nonpayable",
      "type": "function"
    },
    {
      "constant": false,
      "inputs": [
        {
          "name": "listing_id",
          "type": "bytes32"
        }
      ],
      "name": "update_status",
      "outputs": [],
      "payable": false,
      "stateMutability": "nonpayable",
      "type": "function"
    },
    {
      "constant": true,
      "inputs": [
        {
          "name": "listing_id",
          "type": "bytes32"
        }
      ],
      "name": "can_update_status",
      "outputs": [
        {
          "name": "",
          "type": "bool"
        }
      ],
      "payable": false,
      "stateMutability": "view",
      "type": "function"
    },
    {
      "constant": true,
      "inputs": [
        {
          "name": "listing_id",
          "type": "bytes32"
        }
      ],
      "name": "challengeCanBeResolved",
      "outputs": [
        {
          "name": "",
          "type": "bool"
        }
      ],
      "payable": false,
      "stateMutability": "view",
      "type": "function"
    },
    {
      "constant": false,
      "inputs": [
        {
          "name": "listing_id",
          "type": "bytes32"
        }
      ],
      "name": "init_exit",
      "outputs": [],
      "payable": false,
      "stateMutability": "nonpayable",
      "type": "function"
    },
    {
      "constant": true,
      "inputs": [
        {
          "name": "listing_id",
          "type": "bytes32"
        }
      ],
      "name": "appWasMade",
      "outputs": [
        {
          "name": "exists",
          "type": "bool"
        }
      ],
      "payable": false,
      "stateMutability": "view",
      "type": "function"
    },
    {
      "constant": true,
      "inputs": [
        {
          "name": "",
          "type": "uint256"
        }
      ],
      "name": "challenges",
      "outputs": [
        {
          "name": "rewardPool",
          "type": "uint256"
        },
        {
          "name": "challenger",
          "type": "address"
        },
        {
          "name": "resolved",
          "type": "bool"
        },
        {
          "name": "stake",
          "type": "uint256"
        },
        {
          "name": "totalTokens",
          "type": "uint256"
        }
      ],
      "payable": false,
      "stateMutability": "view",
      "type": "function"
    },
    {
      "constant": false,
      "inputs": [
        {
          "name": "listing_id",
          "type": "bytes32"
        },
        {
          "name": "new_ipfs_hash",
          "type": "bytes"
        }
      ],
      "name": "edit",
      "outputs": [],
      "payable": false,
      "stateMutability": "nonpayable",
      "type": "function"
    },
    {
      "constant": true,
      "inputs": [
        {
          "name": "_challengeID",
          "type": "uint256"
        },
        {
          "name": "_voter",
          "type": "address"
        }
      ],
      "name": "tokenClaims",
      "outputs": [
        {
          "name": "",
          "type": "bool"
        }
      ],
      "payable": false,
      "stateMutability": "view",
      "type": "function"
    },
    {
      "constant": true,
      "inputs": [
        {
          "name": "_voter",
          "type": "address"
        },
        {
          "name": "_challengeID",
          "type": "uint256"
        }
      ],
      "name": "voterReward",
      "outputs": [
        {
          "name": "",
          "type": "uint256"
        }
      ],
      "payable": false,
      "stateMutability": "view",
      "type": "function"
    },
    {
      "constant": true,
      "inputs": [
        {
          "name": "",
          "type": "bytes32"
        }
      ],
      "name": "listings",
      "outputs": [
        {
          "name": "ids_position",
          "type": "uint256"
        },
        {
          "name": "ipfs_hash",
          "type": "bytes"
        },
        {
          "name": "owner",
          "type": "address"
        },
        {
          "name": "unstakedDeposit",
          "type": "uint256"
        },
        {
          "name": "state",
          "type": "uint8"
        },
        {
          "name": "applicationExpiry",
          "type": "uint256"
        },
        {
          "name": "challengeID",
          "type": "uint256"
        },
        {
          "name": "exitTime",
          "type": "uint256"
        },
        {
          "name": "exitTimeExpiry",
          "type": "uint256"
        }
      ],
      "payable": false,
      "stateMutability": "view",
      "type": "function"
    },
    {
      "constant": true,
      "inputs": [
        {
          "name": "_challengeID",
          "type": "uint256"
        }
      ],
      "name": "determineReward",
      "outputs": [
        {
          "name": "",
          "type": "uint256"
        }
      ],
      "payable": false,
      "stateMutability": "view",
      "type": "function"
    },
    {
      "constant": false,
      "inputs": [
        {
          "name": "ipfs_hash",
          "type": "bytes"
        }
      ],
      "name": "apply",
      "outputs": [],
      "payable": false,
      "stateMutability": "nonpayable",
      "type": "function"
    },
    {
      "constant": false,
      "inputs": [
        {
          "name": "challenge_id",
          "type": "uint256"
        }
      ],
      "name": "claim_reward",
      "outputs": [],
      "payable": false,
      "stateMutability": "nonpayable",
      "type": "function"
    },
    {
      "constant": true,
      "inputs": [],
      "name": "parameterizer",
      "outputs": [
        {
          "name": "",
          "type": "address"
        }
      ],
      "payable": false,
      "stateMutability": "view",
      "type": "function"
    },
    {
      "constant": false,
      "inputs": [
        {
          "name": "listing_id",
          "type": "bytes32"
        },
        {
          "name": "state_check",
          "type": "uint256"
        }
      ],
      "name": "challenge",
      "outputs": [],
      "payable": false,
      "stateMutability": "nonpayable",
      "type": "function"
    },
    {
      "constant": true,
      "inputs": [
        {
          "name": "",
          "type": "uint256"
        }
      ],
      "name": "ids",
      "outputs": [
        {
          "name": "",
          "type": "bytes32"
        }
      ],
      "payable": false,
      "stateMutability": "view",
      "type": "function"
    },
    {
      "constant": true,
      "inputs": [],
      "name": "token",
      "outputs": [
        {
          "name": "",
          "type": "address"
        }
      ],
      "payable": false,
      "stateMutability": "view",
      "type": "function"
    },
    {
      "constant": true,
      "inputs": [],
      "name": "voting",
      "outputs": [
        {
          "name": "",
          "type": "address"
        }
      ],
      "payable": false,
      "stateMutability": "view",
      "type": "function"
    },
    {
      "constant": false,
      "inputs": [
        {
          "name": "listing_id",
          "type": "bytes32"
        },
        {
          "name": "secret_hash",
          "type": "bytes32"
        }
      ],
      "name": "commit_vote",
      "outputs": [],
      "payable": false,
      "stateMutability": "nonpayable",
      "type": "function"
    },
    {
      "inputs": [
        {
          "name": "_token",
          "type": "address"
        },
        {
          "name": "_voting",
          "type": "address"
        },
        {
          "name": "_parameterizer",
          "type": "address"
        }
      ],
      "payable": false,
      "stateMutability": "nonpayable",
      "type": "constructor"
    },
    {
      "anonymous": false,
      "inputs": [
        {
          "indexed": true,
          "name": "listingHash",
          "type": "bytes32"
        },
        {
          "indexed": false,
          "name": "deposit",
          "type": "uint256"
        },
        {
          "indexed": false,
          "name": "appEndDate",
          "type": "uint256"
        },
        {
          "indexed": false,
          "name": "ipfs_hash",
          "type": "bytes"
        },
        {
          "indexed": true,
          "name": "applicant",
          "type": "address"
        }
      ],
      "name": "_Application",
      "type": "event"
    },
    {
      "anonymous": false,
      "inputs": [
        {
          "indexed": true,
          "name": "listingHash",
          "type": "bytes32"
        },
        {
          "indexed": false,
          "name": "challengeID",
          "type": "uint256"
        },
        {
          "indexed": false,
          "name": "data",
          "type": "string"
        },
        {
          "indexed": false,
          "name": "commitEndDate",
          "type": "uint256"
        },
        {
          "indexed": false,
          "name": "revealEndDate",
          "type": "uint256"
        },
        {
          "indexed": true,
          "name": "challenger",
          "type": "address"
        }
      ],
      "name": "_Challenge",
      "type": "event"
    },
    {
      "anonymous": false,
      "inputs": [
        {
          "indexed": true,
          "name": "listingHash",
          "type": "bytes32"
        },
        {
          "indexed": false,
          "name": "added",
          "type": "uint256"
        },
        {
          "indexed": false,
          "name": "newTotal",
          "type": "uint256"
        },
        {
          "indexed": true,
          "name": "owner",
          "type": "address"
        }
      ],
      "name": "_Deposit",
      "type": "event"
    },
    {
      "anonymous": false,
      "inputs": [
        {
          "indexed": true,
          "name": "listingHash",
          "type": "bytes32"
        },
        {
          "indexed": false,
          "name": "withdrew",
          "type": "uint256"
        },
        {
          "indexed": false,
          "name": "newTotal",
          "type": "uint256"
        },
        {
          "indexed": true,
          "name": "owner",
          "type": "address"
        }
      ],
      "name": "_Withdrawal",
      "type": "event"
    },
    {
      "anonymous": false,
      "inputs": [
        {
          "indexed": true,
          "name": "listingHash",
          "type": "bytes32"
        }
      ],
      "name": "_ApplicationWhitelisted",
      "type": "event"
    },
    {
      "anonymous": false,
      "inputs": [
        {
          "indexed": true,
          "name": "listingHash",
          "type": "bytes32"
        }
      ],
      "name": "_ApplicationRemoved",
      "type": "event"
    },
    {
      "anonymous": false,
      "inputs": [
        {
          "indexed": true,
          "name": "listingHash",
          "type": "bytes32"
        }
      ],
      "name": "_ListingRemoved",
      "type": "event"
    },
    {
      "anonymous": false,
      "inputs": [
        {
          "indexed": true,
          "name": "listingHash",
          "type": "bytes32"
        },
        {
          "indexed": true,
          "name": "owner",
          "type": "address"
        }
      ],
      "name": "_ListingWithdrawn",
      "type": "event"
    },
    {
      "anonymous": false,
      "inputs": [
        {
          "indexed": true,
          "name": "listingHash",
          "type": "bytes32"
        }
      ],
      "name": "_TouchAndRemoved",
      "type": "event"
    },
    {
      "anonymous": false,
      "inputs": [
        {
          "indexed": true,
          "name": "listingHash",
          "type": "bytes32"
        },
        {
          "indexed": true,
          "name": "challengeID",
          "type": "uint256"
        },
        {
          "indexed": false,
          "name": "rewardPool",
          "type": "uint256"
        },
        {
          "indexed": false,
          "name": "totalTokens",
          "type": "uint256"
        }
      ],
      "name": "_ChallengeFailed",
      "type": "event"
    },
    {
      "anonymous": false,
      "inputs": [
        {
          "indexed": true,
          "name": "listingHash",
          "type": "bytes32"
        },
        {
          "indexed": true,
          "name": "challengeID",
          "type": "uint256"
        },
        {
          "indexed": false,
          "name": "rewardPool",
          "type": "uint256"
        },
        {
          "indexed": false,
          "name": "totalTokens",
          "type": "uint256"
        }
      ],
      "name": "_ChallengeSucceeded",
      "type": "event"
    },
    {
      "anonymous": false,
      "inputs": [
        {
          "indexed": true,
          "name": "challengeID",
          "type": "uint256"
        },
        {
          "indexed": false,
          "name": "reward",
          "type": "uint256"
        },
        {
          "indexed": true,
          "name": "voter",
          "type": "address"
        }
      ],
      "name": "_RewardClaimed",
      "type": "event"
    },
    {
      "anonymous": false,
      "inputs": [
        {
          "indexed": true,
          "name": "listingHash",
          "type": "bytes32"
        },
        {
          "indexed": false,
          "name": "exitTime",
          "type": "uint256"
        },
        {
          "indexed": false,
          "name": "exitDelayEndDate",
          "type": "uint256"
        },
        {
          "indexed": true,
          "name": "owner",
          "type": "address"
        }
      ],
      "name": "_ExitInitialized",
      "type": "event"
    },
    {
      "anonymous": false,
      "inputs": [
        {
          "indexed": true,
          "name": "listing_id",
          "type": "bytes32"
        },
        {
          "indexed": false,
          "name": "new_state",
          "type": "uint8"
        }
      ],
      "name": "_StateChanged",
      "type": "event"
    },
    {
      "constant": false,
      "inputs": [
        {
          "name": "time_",
          "type": "uint256"
        }
      ],
      "name": "setTime",
      "outputs": [],
      "payable": false,
      "stateMutability": "nonpayable",
      "type": "function"
    }
  ],
  "bytecode": "0x60806040523480156200001157600080fd5b506040516060806200229b833981016040908152815160208301519190920151828282600160a060020a03831615801590620000565750600354600160a060020a0316155b15156200006257600080fd5b600160a060020a03821615801590620000845750600454600160a060020a0316155b15156200009057600080fd5b600160a060020a03811615801590620000b25750600554600160a060020a0316155b1515620000be57600080fd5b60038054600160a060020a03948516600160a060020a03199182161790915560048054938516938216939093179092556005805491909316911617905550505061218d806200010e6000396000f3006080604052600436106101485763ffffffff7c010000000000000000000000000000000000000000000000000000000060003504166303405da2811461014d5780630f560cd7146102605780631b7bbecb146102c557806321bb7bed146102f15780633beb26c4146103345780634b19e9331461034e578063540f66911461036f5780635df0721b1461038757806377609a411461039f57806379287e35146103b75780638cf8151f146103cf5780638f1d3776146103e75780639dbbbcf714610432578063a5ba3b1e14610456578063bd0ae4051461047a578063c18b8db4146104b0578063c8187cf114610598578063c8b54ccd146105b0578063c9d0ba85146105d0578063e1e3f915146105e8578063e2083c1814610619578063fac333ac14610634578063fc0c546a1461064c578063fce1ccca14610661578063fcf6cf8414610676575b600080fd5b34801561015957600080fd5b50610165600435610691565b6040518086815260200185151515158152602001841515151581526020018060200180602001838103835285818151815260200191508051906020019080838360005b838110156101c05781810151838201526020016101a8565b50505050905090810190601f1680156101ed5780820380516001836020036101000a031916815260200191505b50838103825284518152845160209182019186019080838360005b83811015610220578181015183820152602001610208565b50505050905090810190601f16801561024d5780820380516001836020036101000a031916815260200191505b5097505050505050505060405180910390f35b34801561026c57600080fd5b50610275610810565b60408051602080825283518183015283519192839290830191858101910280838360005b838110156102b1578181015183820152602001610299565b505050509050019250505060405180910390f35b3480156102d157600080fd5b506102dd60043561086a565b604080519115158252519081900360200190f35b3480156102fd57600080fd5b506103096004356108bc565b6040805195865293151560208601529115158484015260608401526080830152519081900360a00190f35b34801561034057600080fd5b5061034c6004356108d6565b005b34801561035a57600080fd5b5061034c6004356024356044356064356108db565b34801561037b57600080fd5b5061034c6004356108ea565b34801561039357600080fd5b506102dd600435610a4f565b3480156103ab57600080fd5b506102dd600435610b90565b3480156103c357600080fd5b5061034c600435610c4e565b3480156103db57600080fd5b506102dd600435610e92565b3480156103f357600080fd5b506103ff600435610eab565b60408051958652600160a060020a0390941660208601529115158484015260608401526080830152519081900360a00190f35b34801561043e57600080fd5b5061034c600480359060248035908101910135610ef8565b34801561046257600080fd5b506102dd600435600160a060020a0360243516610f2a565b34801561048657600080fd5b5061049e600160a060020a0360043516602435610f58565b60408051918252519081900360200190f35b3480156104bc57600080fd5b506104c8600435611036565b604051808a81526020018060200189600160a060020a0316600160a060020a0316815260200188815260200187600481111561050057fe5b60ff16815260200186815260200185815260200184815260200183815260200182810382528a818151815260200191508051906020019080838360005b8381101561055557818101518382015260200161053d565b50505050905090810190601f1680156105825780820380516001836020036101000a031916815260200191505b509a505050505050505050505060405180910390f35b3480156105a457600080fd5b5061049e600435611116565b3480156105bc57600080fd5b5061034c60048035602481019101356111e8565b3480156105dc57600080fd5b5061034c600435611582565b3480156105f457600080fd5b506105fd611585565b60408051600160a060020a039092168252519081900360200190f35b34801561062557600080fd5b5061034c600435602435611594565b34801561064057600080fd5b5061049e60043561198d565b34801561065857600080fd5b506105fd6119ac565b34801561066d57600080fd5b506105fd6119bb565b34801561068257600080fd5b5061034c6004356024356119ca565b60008060006060806106a2866119d7565b6106ab86611b0e565b60048111156106b657fe5b94506106c18661086a565b604080517f5df0721b0000000000000000000000000000000000000000000000000000000081526004810189905290519195503091635df0721b916024808201926020929091908290030181600087803b15801561071e57600080fd5b505af1158015610732573d6000803e3d6000fd5b505050506040513d602081101561074857600080fd5b5051600087815260016020818152604092839020820180548451600260001995831615610100029590950190911693909304601f8101839004830284018301909452838352939650909291908301828280156107e55780601f106107ba576101008083540402835291602001916107e5565b820191906000526020600020905b8154815290600101906020018083116107c857829003601f168201915b5050604080516000808252602082019092529496509250610804915050565b50905091939590929450565b6060600280548060200260200160405190810160405280929190818152602001828054801561085f57602002820191906000526020600020905b8154815260019091019060200180831161084a575b505050505090505b90565b60008181526001602052604081206006015481811180156108b5575060008181526020819052604090206001015474010000000000000000000000000000000000000000900460ff16155b9392505050565b60008060008060006108cd866119d7565b91939590929450565b600755565b6108e4846119d7565b50505050565b6000806108f6836119d7565b6108ff83611b0e565b600084815260016020819052604090912091935090915082600481111561092257fe5b141561096057610930611b26565b816005015410801561094857506109468361086a565b155b1561095b5761095683611b2c565b610a4a565b610148565b600482600481111561096e57fe5b1415610a35576002810154600160a060020a03163314801561099a5750610993611b26565b8160070154105b80156109b0575080600801546109ae611b26565b105b156109f0576109be83611b77565b604051339084907f7d16ed55582bcf69d7bb762cda5b82042371fba7de3a8ebea4517079d892f52290600090a3610a4a565b6002810154600160a060020a031633148015610a1757508060080154610a14611b26565b10155b1561095b576000600782018190556008820155610956836002611e4a565b6000826004811115610a4357fe5b1461014857fe5b505050565b6000806000610a5d846119d7565b610a6684611b0e565b6000858152600160208190526040909120919350909150826004811115610a8957fe5b1415610ac257610a97611b26565b8160050154108015610aaf5750610aad8461086a565b155b15610abd5760019250610b89565b610b89565b6004826004811115610ad057fe5b1415610b52576002810154600160a060020a031633148015610afc5750610af5611b26565b8160070154105b8015610b1257508060080154610b10611b26565b105b15610b205760019250610b89565b6002810154600160a060020a031633148015610aaf57508060080154610b44611b26565b10610abd5760019250610b89565b6002826004811115610b6057fe5b1415610b6f5760009250610b89565b6000826004811115610b7d57fe5b14610b8457fe5b600092505b5050919050565b600081815260016020526040812060060154610bab8361086a565b1515610bb657600080fd5b60048054604080517fee68483000000000000000000000000000000000000000000000000000000000815292830184905251600160a060020a039091169163ee6848309160248083019260209291908290030181600087803b158015610c1b57600080fd5b505af1158015610c2f573d6000803e3d6000fd5b505050506040513d6020811015610c4557600080fd5b50519392505050565b600081600280610c5d83611b0e565b6004811115610c6857fe5b14610c7257600080fd5b610c7b846119d7565b60008481526001602052604090206002810154909350600160a060020a03163314610ca557600080fd5b610cae8461086a565b15610cb857600080fd5b6005546040805160e160020a63349f642f028152602060048201819052600d60248301527f6578697454696d6544656c61790000000000000000000000000000000000000060448301529151610d7593600160a060020a03169263693ec85e92606480820193918290030181600087803b158015610d3557600080fd5b505af1158015610d49573d6000803e3d6000fd5b505050506040513d6020811015610d5f57600080fd5b5051610d69611b26565b9063ffffffff61201a16565b60078401556005546040805160e160020a63349f642f028152602060048201819052600d60248301527f65786974506572696f644c656e0000000000000000000000000000000000000060448301529151610e3493600160a060020a03169263693ec85e92606480820193918290030181600087803b158015610df757600080fd5b505af1158015610e0b573d6000803e3d6000fd5b505050506040513d6020811015610e2157600080fd5b505160078501549063ffffffff61201a16565b6008840155610e44846004611e4a565b600783015460088401546040805192835260208301919091528051339287927f4b137a01f77b8f1b4ccaca2abac799475d550c8adc298e399e75ee95d317b54692918290030190a350505050565b600081815260016020526040812060050154115b919050565b60006020819052908152604090208054600182015460028301546003909301549192600160a060020a038216927401000000000000000000000000000000000000000090920460ff169185565b82600280610f0583611b0e565b6004811115610f1057fe5b14610f1a57600080fd5b610f23856119d7565b5050505050565b600082815260208181526040808320600160a060020a038516845260040190915290205460ff165b92915050565b600081815260208181526040808320600381015490546004805484517fd1382092000000000000000000000000000000000000000000000000000000008152600160a060020a038a811693820193909352602481018990529451939592948794929091169263d13820929260448084019382900301818787803b158015610fde57600080fd5b505af1158015610ff2573d6000803e3d6000fd5b505050506040513d602081101561100857600080fd5b5051905061102c83611020838563ffffffff61202716565b9063ffffffff61205016565b9695505050505050565b600160208181526000928352604092839020805481840180548651600296821615610100026000190190911695909504601f810185900485028601850190965285855290949193929091908301828280156110d25780601f106110a7576101008083540402835291602001916110d2565b820191906000526020600020905b8154815290600101906020018083116110b557829003601f168201915b505050506002830154600384015460048501546005860154600687015460078801546008909801549697600160a060020a039095169693955060ff90921693909289565b60008181526020819052604081206001015474010000000000000000000000000000000000000000900460ff161580156111dd575060048054604080517fee68483000000000000000000000000000000000000000000000000000000000815292830185905251600160a060020a039091169163ee6848309160248083019260209291908290030181600087803b1580156111b057600080fd5b505af11580156111c4573d6000803e3d6000fd5b505050506040513d60208110156111da57600080fd5b50515b1515610ea657600080fd5b6000806000600660008154600101919050819055604051602001808281526020019150506040516020818303038152906040526040518082805190602001908083835b6020831061124a5780518252601f19909201916020918201910161122b565b5181516020939093036101000a60001901801990911692169190911790526040519201829003909120955060009250611281915050565b61128a84611b0e565b600481111561129557fe5b1461129c57fe5b6005546040805160e160020a63349f642f028152602060048201819052600a60248301527f6d696e4465706f7369740000000000000000000000000000000000000000000060448301529151600160a060020a039093169263693ec85e926064808401939192918290030181600087803b15801561131957600080fd5b505af115801561132d573d6000803e3d6000fd5b505050506040513d602081101561134357600080fd5b505160008481526001602081905260409091209193509091506113699082018686612065565b5060028101805473ffffffffffffffffffffffffffffffffffffffff1916331790556005546040805160e160020a63349f642f028152602060048201819052600d60248301527f6170706c7953746167654c656e000000000000000000000000000000000000006044830152915161140893600160a060020a03169263693ec85e92606480820193918290030181600087803b158015610d3557600080fd5b60058201556003808201839055546002820154604080517f23b872dd000000000000000000000000000000000000000000000000000000008152600160a060020a03928316600482015230602482015260448101869052905191909216916323b872dd9160648083019260209291908290030181600087803b15801561148d57600080fd5b505af11580156114a1573d6000803e3d6000fd5b505050506040513d60208110156114b757600080fd5b505115156114c457600080fd5b60028054808355600180820183556000929092527f405787fa12a823e0f2b7631cc41b3ba8828b3321ca811111fa75cd3aa3bb5ace01849055611508908490611e4a565b33600160a060020a031683600019167f4312ccd704584a12352f9061e58caf210d1e8fe14645cb8784e318207ea19121848460050154898960405180858152602001848152602001806020018281038252848482818152602001925080828437604051920182900397509095505050505050a35050505050565b50565b600554600160a060020a031681565b6000806000806115a3866119d7565b6115ac86611b0e565b600087815260016020526040902090945092508460048111156115cb57fe5b60048111156115d657fe5b8460048111156115e257fe5b146115ec57600080fd5b60018460048111156115fa57fe5b14806116115750600284600481111561160f57fe5b145b806116275750600384600481111561162557fe5b145b151561163257600080fd5b6005546040805160e160020a63349f642f028152602060048201819052600a60248301527f6d696e4465706f7369740000000000000000000000000000000000000000000060448301529151600160a060020a039093169263693ec85e926064808401939192918290030181600087803b1580156116af57600080fd5b505af11580156116c3573d6000803e3d6000fd5b505050506040513d60208110156116d957600080fd5b505191506116e68661086a565b156116f057600080fd5b600480546005546040805160e160020a63349f642f0281526020948101859052600a60248201527f766f746551756f72756d0000000000000000000000000000000000000000000060448201529051600160a060020a03938416946332ed3d60949093169263693ec85e92606480820193918290030181600087803b15801561177857600080fd5b505af115801561178c573d6000803e3d6000fd5b505050506040513d60208110156117a257600080fd5b50516005546040805160e160020a63349f642f028152602060048201819052600e60248301527f636f6d6d697453746167654c656e00000000000000000000000000000000000060448301529151600160a060020a039093169263693ec85e926064808401939192918290030181600087803b15801561182157600080fd5b505af1158015611835573d6000803e3d6000fd5b505050506040513d602081101561184b57600080fd5b50516005546040805160e160020a63349f642f028152602060048201819052600e60248301527f72657665616c53746167654c656e00000000000000000000000000000000000060448301529151600160a060020a039093169263693ec85e926064808401939192918290030181600087803b1580156118ca57600080fd5b505af11580156118de573d6000803e3d6000fd5b505050506040513d60208110156118f457600080fd5b5051604080517c010000000000000000000000000000000000000000000000000000000063ffffffff87160281526004810194909452602484019290925260448301525160648083019260209291908290030181600087803b15801561195957600080fd5b505af115801561196d573d6000803e3d6000fd5b505050506040513d602081101561198357600080fd5b5050505050505050565b600280548290811061199b57fe5b600091825260209091200154905081565b600354600160a060020a031681565b600454600160a060020a031681565b6119d3826119d7565b5050565b600081815260016020526040812060028101549091600160a060020a03909116159060048084015460ff1690811115611a0c57fe5b1414611a1457fe5b60058101541515600160048084015460ff1690811115611a3057fe5b1414611a3857fe5b600781015415156004808084015460ff1690811115611a5357fe5b1414611a5b57fe5b600881015415156004808084015460ff1690811115611a7657fe5b1414611a7e57fe5b60048181015460ff1681811115611a9157fe5b1480611aaf5750600060048083015460ff1690811115611aad57fe5b145b15611ac457611abd8261086a565b15611ac457fe5b600060048083015460ff1690811115611ad957fe5b146119d357600254815410611aea57fe5b8054600280548492908110611afb57fe5b600091825260209091200154146119d357fe5b60009081526001602052604090206004015460ff1690565b60075490565b600081815260016020526040812060050155611b49816002611e4a565b60405181907fa7bc1d57d9006d9d248707c7b6828c1bab8c51719cc06d78c82a3ee891ef967c90600090a250565b600081815260016020526040812090808080611b9286611b0e565b60028087018054600389015473ffffffffffffffffffffffffffffffffffffffff19821690925560008a8152600160205260409020549254939750600160a060020a03169550935091508110611be457fe5b600254600019018114611c6157600280548291600191600091906000198101908110611c0c57fe5b60009182526020808320909101548352820192909252604001902055600280546000198101908110611c3a57fe5b9060005260206000200154600282815481101515611c5457fe5b6000918252602090912001555b60028054600091906000198101908110611c7757fe5b6000918252602090912001556002805490611c969060001983016120e3565b5060006007860181905560088601819055611cb2908790611e4a565b600086815260016020819052604082208281559190611cd390830182612107565b5060028101805473ffffffffffffffffffffffffffffffffffffffff1916905560006003820181905560048201805460ff191690556005820181905560068201819055600782018190556008909101819055821115611dd257600354604080517fa9059cbb000000000000000000000000000000000000000000000000000000008152600160a060020a038681166004830152602482018690529151919092169163a9059cbb9160448083019260209291908290030181600087803b158015611d9b57600080fd5b505af1158015611daf573d6000803e3d6000fd5b505050506040513d6020811015611dc557600080fd5b50511515611dd257600080fd5b836004811115611dde57fe5b60011415611e165760405186907f2e5ec035f6eac8ff1cf7cdf36cfeca7c85413f9f67652dc2c13d20f337204a2690600090a2611e42565b60405186907fd1ffb796b7108387b2f02adf47b4b81a1690cf2a190422c87a4f670780103e6390600090a25b505050505050565b6000611e5583611b0e565b9050816004811115611e6357fe5b816004811115611e6f57fe5b1415611e7757fe5b806004811115611e8357fe5b1515611ea457816004811115611e9557fe5b60015b14611e9f57fe5b611f93565b806004811115611eb057fe5b60011415611ee957816004811115611ec457fe5b60025b1480611ee15750816004811115611eda57fe5b6000611e98565b1515611e9f57fe5b806004811115611ef557fe5b60021415611f3757816004811115611f0957fe5b60031480611f255750816004811115611f1e57fe5b6004611ec7565b80611ee15750816004811115611eda57fe5b806004811115611f4357fe5b60031415611f5e57816004811115611f5757fe5b6002611e98565b806004811115611f6a57fe5b60041415611f9157816004811115611f7e57fe5b1580611ee15750816004811115611f5757fe5bfe5b6000838152600160208190526040909120600490810180548593919260ff1990911691908490811115611fc257fe5b021790555082600019167f5259e6bce9118f32463f9a5d22fec1650fc0a470c6365f2ccd83d4cf75dd67478360405180826004811115611ffe57fe5b60ff16815260200191505060405180910390a2610a4a836119d7565b81810182811015610f5257fe5b600082151561203857506000610f52565b5081810281838281151561204857fe5b0414610f5257fe5b6000818381151561205d57fe5b049392505050565b828054600181600116156101000203166002900490600052602060002090601f016020900481019282601f106120a65782800160ff198235161785556120d3565b828001600101855582156120d3579182015b828111156120d35782358255916020019190600101906120b8565b506120df929150612147565b5090565b815481835581811115610a4a57600083815260209020610a4a918101908301612147565b50805460018160011615610100020316600290046000825580601f1061212d5750611582565b601f01602090049060005260206000209081019061158291905b61086791905b808211156120df576000815560010161214d5600a165627a7a723058207e863867f9a98834348676bda3a1eb43d9ff3be1995c30ebaa8ed2daa18d67840029",
  "source": "pragma solidity ^0.4.24;\n\nimport \"../Registry.sol\";\n\ncontract RegistryTestHelper is Registry {\n\n    constructor(address _token, address _voting, address _parameterizer) public\n        Registry(_token, _voting, _parameterizer) {\n    }\n\n    function time() internal view returns (uint) {\n        return m_time;\n    }\n\n    function setTime(uint time_) external {\n        m_time = time_;\n    }\n\n    uint m_time;\n}\n",
  "sourcePath": "/home/algys/sources/dapp-tcr/contracts/test_helpers/RegistryTestHelper.sol",
  "compiler": {
    "name": "solc",
    "version": "0.4.24+commit.e67f0147.Emscripten.clang"
  },
  "schemaVersion": "2.0.1",
  "updatedAt": "2018-10-27T17:45:53.260Z"
}