{
  "contractName": "RegistryTestHelper",
  "abi": [
    {
      "constant": true,
      "inputs": [
        {
          "name": "listing_id",
          "type": "bytes32"
        }
      ],
      "name": "get_info",
      "outputs": [
        {
          "name": "state",
          "type": "uint256"
        },
        {
          "name": "is_challenged",
          "type": "bool"
        },
        {
          "name": "status_can_be_updated",
          "type": "bool"
        },
        {
          "name": "ipfs_hash",
          "type": "bytes"
        },
        {
          "name": "proposed_ipfs_hash",
          "type": "bytes"
        }
      ],
      "payable": false,
      "stateMutability": "view",
      "type": "function"
    },
    {
      "constant": true,
      "inputs": [],
      "name": "list",
      "outputs": [
        {
          "name": "",
          "type": "bytes32[]"
        }
      ],
      "payable": false,
      "stateMutability": "view",
      "type": "function"
    },
    {
      "constant": true,
      "inputs": [
        {
          "name": "listing_id",
          "type": "bytes32"
        }
      ],
      "name": "challengeExists",
      "outputs": [
        {
          "name": "",
          "type": "bool"
        }
      ],
      "payable": false,
      "stateMutability": "view",
      "type": "function"
    },
    {
      "constant": true,
      "inputs": [
        {
          "name": "listing_id",
          "type": "bytes32"
        }
      ],
      "name": "challenge_status",
      "outputs": [
        {
          "name": "challenge_id",
          "type": "uint256"
        },
        {
          "name": "is_commit",
          "type": "bool"
        },
        {
          "name": "is_reveal",
          "type": "bool"
        },
        {
          "name": "votesFor",
          "type": "uint256"
        },
        {
          "name": "votesAgainst",
          "type": "uint256"
        },
        {
          "name": "commitEndDate",
          "type": "uint256"
        },
        {
          "name": "revealEndDate",
          "type": "uint256"
        }
      ],
      "payable": false,
      "stateMutability": "view",
      "type": "function"
    },
    {
      "constant": true,
      "inputs": [],
      "name": "deposit_size",
      "outputs": [
        {
          "name": "",
          "type": "uint256"
        }
      ],
      "payable": false,
      "stateMutability": "view",
      "type": "function"
    },
    {
      "constant": false,
      "inputs": [
        {
          "name": "listing_id",
          "type": "bytes32"
        },
        {
          "name": "vote_option",
          "type": "uint256"
        },
        {
          "name": "vote_stake",
          "type": "uint256"
        },
        {
          "name": "salt",
          "type": "uint256"
        }
      ],
      "name": "reveal_vote",
      "outputs": [],
      "payable": false,
      "stateMutability": "nonpayable",
      "type": "function"
    },
    {
      "constant": false,
      "inputs": [
        {
          "name": "listing_id",
          "type": "bytes32"
        }
      ],
      "name": "update_status",
      "outputs": [],
      "payable": false,
      "stateMutability": "nonpayable",
      "type": "function"
    },
    {
      "constant": true,
      "inputs": [
        {
          "name": "listing_id",
          "type": "bytes32"
        }
      ],
      "name": "can_update_status",
      "outputs": [
        {
          "name": "",
          "type": "bool"
        }
      ],
      "payable": false,
      "stateMutability": "view",
      "type": "function"
    },
    {
      "constant": true,
      "inputs": [
        {
          "name": "listing_id",
          "type": "bytes32"
        }
      ],
      "name": "challengeCanBeResolved",
      "outputs": [
        {
          "name": "",
          "type": "bool"
        }
      ],
      "payable": false,
      "stateMutability": "view",
      "type": "function"
    },
    {
      "constant": false,
      "inputs": [
        {
          "name": "listing_id",
          "type": "bytes32"
        }
      ],
      "name": "init_exit",
      "outputs": [],
      "payable": false,
      "stateMutability": "nonpayable",
      "type": "function"
    },
    {
      "constant": true,
      "inputs": [
        {
          "name": "",
          "type": "uint256"
        }
      ],
      "name": "challenges",
      "outputs": [
        {
          "name": "rewardPool",
          "type": "uint256"
        },
        {
          "name": "challenger",
          "type": "address"
        },
        {
          "name": "resolved",
          "type": "bool"
        },
        {
          "name": "totalTokens",
          "type": "uint256"
        }
      ],
      "payable": false,
      "stateMutability": "view",
      "type": "function"
    },
    {
      "constant": false,
      "inputs": [
        {
          "name": "listing_id",
          "type": "bytes32"
        },
        {
          "name": "new_ipfs_hash",
          "type": "bytes"
        }
      ],
      "name": "edit",
      "outputs": [],
      "payable": false,
      "stateMutability": "nonpayable",
      "type": "function"
    },
    {
      "constant": true,
      "inputs": [
        {
          "name": "_challengeID",
          "type": "uint256"
        },
        {
          "name": "_voter",
          "type": "address"
        }
      ],
      "name": "tokenClaims",
      "outputs": [
        {
          "name": "",
          "type": "bool"
        }
      ],
      "payable": false,
      "stateMutability": "view",
      "type": "function"
    },
    {
      "constant": true,
      "inputs": [
        {
          "name": "_voter",
          "type": "address"
        },
        {
          "name": "_challengeID",
          "type": "uint256"
        }
      ],
      "name": "voterReward",
      "outputs": [
        {
          "name": "reward",
          "type": "uint256"
        },
        {
          "name": "voterTokens",
          "type": "uint256"
        },
        {
          "name": "isWinner",
          "type": "bool"
        }
      ],
      "payable": false,
      "stateMutability": "view",
      "type": "function"
    },
    {
      "constant": true,
      "inputs": [
        {
          "name": "",
          "type": "bytes32"
        }
      ],
      "name": "listings",
      "outputs": [
        {
          "name": "ids_position",
          "type": "uint256"
        },
        {
          "name": "ipfs_hash",
          "type": "bytes"
        },
        {
          "name": "owner",
          "type": "address"
        },
        {
          "name": "state",
          "type": "uint8"
        },
        {
          "name": "applicationExpiry",
          "type": "uint256"
        },
        {
          "name": "proposed_ipfs_hash",
          "type": "bytes"
        },
        {
          "name": "proposal_author",
          "type": "address"
        },
        {
          "name": "challengeID",
          "type": "uint256"
        },
        {
          "name": "exitTime",
          "type": "uint256"
        },
        {
          "name": "exitTimeExpiry",
          "type": "uint256"
        }
      ],
      "payable": false,
      "stateMutability": "view",
      "type": "function"
    },
    {
      "constant": false,
      "inputs": [
        {
          "name": "ipfs_hash",
          "type": "bytes"
        }
      ],
      "name": "apply",
      "outputs": [],
      "payable": false,
      "stateMutability": "nonpayable",
      "type": "function"
    },
    {
      "constant": false,
      "inputs": [
        {
          "name": "challenge_id",
          "type": "uint256"
        }
      ],
      "name": "claim_reward",
      "outputs": [],
      "payable": false,
      "stateMutability": "nonpayable",
      "type": "function"
    },
    {
      "constant": true,
      "inputs": [],
      "name": "parameterizer",
      "outputs": [
        {
          "name": "",
          "type": "address"
        }
      ],
      "payable": false,
      "stateMutability": "view",
      "type": "function"
    },
    {
      "constant": false,
      "inputs": [
        {
          "name": "listing_id",
          "type": "bytes32"
        },
        {
          "name": "state_check",
          "type": "uint256"
        }
      ],
      "name": "challenge",
      "outputs": [],
      "payable": false,
      "stateMutability": "nonpayable",
      "type": "function"
    },
    {
      "constant": true,
      "inputs": [
        {
          "name": "",
          "type": "uint256"
        }
      ],
      "name": "ids",
      "outputs": [
        {
          "name": "",
          "type": "bytes32"
        }
      ],
      "payable": false,
      "stateMutability": "view",
      "type": "function"
    },
    {
      "constant": true,
      "inputs": [],
      "name": "token",
      "outputs": [
        {
          "name": "",
          "type": "address"
        }
      ],
      "payable": false,
      "stateMutability": "view",
      "type": "function"
    },
    {
      "constant": true,
      "inputs": [],
      "name": "voting",
      "outputs": [
        {
          "name": "",
          "type": "address"
        }
      ],
      "payable": false,
      "stateMutability": "view",
      "type": "function"
    },
    {
      "constant": false,
      "inputs": [
        {
          "name": "listing_id",
          "type": "bytes32"
        },
        {
          "name": "secret_hash",
          "type": "bytes32"
        }
      ],
      "name": "commit_vote",
      "outputs": [],
      "payable": false,
      "stateMutability": "nonpayable",
      "type": "function"
    },
    {
      "inputs": [
        {
          "name": "_token",
          "type": "address"
        },
        {
          "name": "_voting",
          "type": "address"
        },
        {
          "name": "_parameterizer",
          "type": "address"
        }
      ],
      "payable": false,
      "stateMutability": "nonpayable",
      "type": "constructor"
    },
    {
      "anonymous": false,
      "inputs": [
        {
          "indexed": true,
          "name": "listingHash",
          "type": "bytes32"
        },
        {
          "indexed": false,
          "name": "deposit",
          "type": "uint256"
        },
        {
          "indexed": false,
          "name": "appEndDate",
          "type": "uint256"
        },
        {
          "indexed": false,
          "name": "ipfs_hash",
          "type": "bytes"
        },
        {
          "indexed": true,
          "name": "applicant",
          "type": "address"
        }
      ],
      "name": "_Application",
      "type": "event"
    },
    {
      "anonymous": false,
      "inputs": [
        {
          "indexed": true,
          "name": "listingHash",
          "type": "bytes32"
        },
        {
          "indexed": false,
          "name": "deposit",
          "type": "uint256"
        },
        {
          "indexed": false,
          "name": "appEndDate",
          "type": "uint256"
        },
        {
          "indexed": false,
          "name": "ipfs_hash",
          "type": "bytes"
        },
        {
          "indexed": true,
          "name": "applicant",
          "type": "address"
        }
      ],
      "name": "_EditApplication",
      "type": "event"
    },
    {
      "anonymous": false,
      "inputs": [
        {
          "indexed": true,
          "name": "listingHash",
          "type": "bytes32"
        },
        {
          "indexed": false,
          "name": "challengeID",
          "type": "uint256"
        },
        {
          "indexed": false,
          "name": "commitEndDate",
          "type": "uint256"
        },
        {
          "indexed": false,
          "name": "revealEndDate",
          "type": "uint256"
        },
        {
          "indexed": true,
          "name": "challenger",
          "type": "address"
        }
      ],
      "name": "_Challenge",
      "type": "event"
    },
    {
      "anonymous": false,
      "inputs": [
        {
          "indexed": true,
          "name": "listingHash",
          "type": "bytes32"
        },
        {
          "indexed": false,
          "name": "added",
          "type": "uint256"
        },
        {
          "indexed": false,
          "name": "newTotal",
          "type": "uint256"
        },
        {
          "indexed": true,
          "name": "owner",
          "type": "address"
        }
      ],
      "name": "_Deposit",
      "type": "event"
    },
    {
      "anonymous": false,
      "inputs": [
        {
          "indexed": true,
          "name": "listingHash",
          "type": "bytes32"
        },
        {
          "indexed": false,
          "name": "withdrew",
          "type": "uint256"
        },
        {
          "indexed": false,
          "name": "newTotal",
          "type": "uint256"
        },
        {
          "indexed": true,
          "name": "owner",
          "type": "address"
        }
      ],
      "name": "_Withdrawal",
      "type": "event"
    },
    {
      "anonymous": false,
      "inputs": [
        {
          "indexed": true,
          "name": "listingHash",
          "type": "bytes32"
        }
      ],
      "name": "_ApplicationWhitelisted",
      "type": "event"
    },
    {
      "anonymous": false,
      "inputs": [
        {
          "indexed": true,
          "name": "listingHash",
          "type": "bytes32"
        }
      ],
      "name": "_EditApplicationWhitelisted",
      "type": "event"
    },
    {
      "anonymous": false,
      "inputs": [
        {
          "indexed": true,
          "name": "listingHash",
          "type": "bytes32"
        }
      ],
      "name": "_ApplicationRemoved",
      "type": "event"
    },
    {
      "anonymous": false,
      "inputs": [
        {
          "indexed": true,
          "name": "listingHash",
          "type": "bytes32"
        }
      ],
      "name": "_ListingRemoved",
      "type": "event"
    },
    {
      "anonymous": false,
      "inputs": [
        {
          "indexed": true,
          "name": "listingHash",
          "type": "bytes32"
        },
        {
          "indexed": true,
          "name": "owner",
          "type": "address"
        }
      ],
      "name": "_ListingWithdrawn",
      "type": "event"
    },
    {
      "anonymous": false,
      "inputs": [
        {
          "indexed": true,
          "name": "listingHash",
          "type": "bytes32"
        }
      ],
      "name": "_TouchAndRemoved",
      "type": "event"
    },
    {
      "anonymous": false,
      "inputs": [
        {
          "indexed": true,
          "name": "listingHash",
          "type": "bytes32"
        },
        {
          "indexed": true,
          "name": "challengeID",
          "type": "uint256"
        },
        {
          "indexed": false,
          "name": "rewardPool",
          "type": "uint256"
        },
        {
          "indexed": false,
          "name": "totalTokens",
          "type": "uint256"
        }
      ],
      "name": "_ChallengeFailed",
      "type": "event"
    },
    {
      "anonymous": false,
      "inputs": [
        {
          "indexed": true,
          "name": "listingHash",
          "type": "bytes32"
        },
        {
          "indexed": true,
          "name": "challengeID",
          "type": "uint256"
        },
        {
          "indexed": false,
          "name": "rewardPool",
          "type": "uint256"
        },
        {
          "indexed": false,
          "name": "totalTokens",
          "type": "uint256"
        }
      ],
      "name": "_ChallengeSucceeded",
      "type": "event"
    },
    {
      "anonymous": false,
      "inputs": [
        {
          "indexed": true,
          "name": "challengeID",
          "type": "uint256"
        },
        {
          "indexed": false,
          "name": "reward",
          "type": "uint256"
        },
        {
          "indexed": true,
          "name": "voter",
          "type": "address"
        }
      ],
      "name": "_RewardClaimed",
      "type": "event"
    },
    {
      "anonymous": false,
      "inputs": [
        {
          "indexed": true,
          "name": "listingHash",
          "type": "bytes32"
        },
        {
          "indexed": false,
          "name": "exitTime",
          "type": "uint256"
        },
        {
          "indexed": false,
          "name": "exitDelayEndDate",
          "type": "uint256"
        },
        {
          "indexed": true,
          "name": "owner",
          "type": "address"
        }
      ],
      "name": "_ExitInitialized",
      "type": "event"
    },
    {
      "anonymous": false,
      "inputs": [
        {
          "indexed": true,
          "name": "listing_id",
          "type": "bytes32"
        },
        {
          "indexed": false,
          "name": "new_state",
          "type": "uint8"
        }
      ],
      "name": "_StateChanged",
      "type": "event"
    },
    {
      "constant": false,
      "inputs": [
        {
          "name": "time_",
          "type": "uint256"
        }
      ],
      "name": "setTime",
      "outputs": [],
      "payable": false,
      "stateMutability": "nonpayable",
      "type": "function"
    }
  ],
  "bytecode": "0x60806040523480156200001157600080fd5b5060405160608062003bc2833981016040908152815160208301519190920151828282600160a060020a03831615801590620000565750600354600160a060020a0316155b15156200006257600080fd5b600160a060020a03821615801590620000845750600454600160a060020a0316155b15156200009057600080fd5b600160a060020a03811615801590620000b25750600554600160a060020a0316155b1515620000be57600080fd5b60038054600160a060020a03948516600160a060020a031991821617909155600480549385169382169390931790925560058054919093169116179055505050613ab4806200010e6000396000f3006080604052600436106101245763ffffffff60e060020a60003504166303405da281146101295780630f560cd71461023c5780631b7bbecb146102a157806321bb7bed146102cd57806331d72b2e1461031d5780633beb26c4146103445780634b19e9331461035e578063540f66911461037f5780635df0721b1461039757806377609a41146103af57806379287e35146103c75780638f1d3776146103df5780639dbbbcf714610425578063a5ba3b1e14610449578063bd0ae4051461046d578063c18b8db4146104b1578063c8b54ccd14610611578063c9d0ba8514610631578063e1e3f91514610649578063e2083c181461067a578063fac333ac14610695578063fc0c546a146106ad578063fce1ccca146106c2578063fcf6cf84146106d7575b600080fd5b34801561013557600080fd5b506101416004356106f2565b6040518086815260200185151515158152602001841515151581526020018060200180602001838103835285818151815260200191508051906020019080838360005b8381101561019c578181015183820152602001610184565b50505050905090810190601f1680156101c95780820380516001836020036101000a031916815260200191505b50838103825284518152845160209182019186019080838360005b838110156101fc5781810151838201526020016101e4565b50505050905090810190601f1680156102295780820380516001836020036101000a031916815260200191505b5097505050505050505060405180910390f35b34801561024857600080fd5b506102516108f8565b60408051602080825283518183015283519192839290830191858101910280838360005b8381101561028d578181015183820152602001610275565b505050509050019250505060405180910390f35b3480156102ad57600080fd5b506102b9600435610952565b604080519115158252519081900360200190f35b3480156102d957600080fd5b506102e560043561096b565b604080519788529515156020880152931515868601526060860192909252608085015260a084015260c0830152519081900360e00190f35b34801561032957600080fd5b50610332610a6c565b60408051918252519081900360200190f35b34801561035057600080fd5b5061035c600435610b18565b005b34801561036a57600080fd5b5061035c600435602435604435606435610b1d565b34801561038b57600080fd5b5061035c600435610c8e565b3480156103a357600080fd5b506102b96004356112c5565b3480156103bb57600080fd5b506102b9600435611450565b3480156103d357600080fd5b5061035c600435611517565b3480156103eb57600080fd5b506103f760043561175d565b60408051948552600160a060020a039093166020850152901515838301526060830152519081900360800190f35b34801561043157600080fd5b5061035c600480359060248035908101910135611794565b34801561045557600080fd5b506102b9600435600160a060020a0360243516611a8d565b34801561047957600080fd5b50610491600160a060020a0360043516602435611abb565b604080519384526020840192909252151582820152519081900360600190f35b3480156104bd57600080fd5b506104c9600435611c55565b604051808b8152602001806020018a600160a060020a0316600160a060020a031681526020018960048111156104fb57fe5b60ff1681526020018881526020018060200187600160a060020a0316600160a060020a0316815260200186815260200185815260200184815260200183810383528c818151815260200191508051906020019080838360005b8381101561056c578181015183820152602001610554565b50505050905090810190601f1680156105995780820380516001836020036101000a031916815260200191505b5083810382528851815288516020918201918a019080838360005b838110156105cc5781810151838201526020016105b4565b50505050905090810190601f1680156105f95780820380516001836020036101000a031916815260200191505b509c5050505050505050505050505060405180910390f35b34801561061d57600080fd5b5061035c6004803560248101910135611dd0565b34801561063d57600080fd5b5061035c60043561216b565b34801561065557600080fd5b5061065e61235d565b60408051600160a060020a039092168252519081900360200190f35b34801561068657600080fd5b5061035c60043560243561236c565b3480156106a157600080fd5b50610332600435612a4f565b3480156106b957600080fd5b5061065e612a6e565b3480156106ce57600080fd5b5061065e612a7d565b3480156106e357600080fd5b5061035c600435602435612a8c565b600080600060608061070386612b3a565b61070c86612d3c565b600481111561071757fe5b945061072286610952565b604080517f5df0721b0000000000000000000000000000000000000000000000000000000081526004810189905290519195503091635df0721b916024808201926020929091908290030181600087803b15801561077f57600080fd5b505af1158015610793573d6000803e3d6000fd5b505050506040513d60208110156107a957600080fd5b5051600087815260016020818152604092839020820180548451600260001995831615610100029590950190911693909304601f8101839004830284018301909452838352939650909291908301828280156108465780601f1061081b57610100808354040283529160200191610846565b820191906000526020600020905b81548152906001019060200180831161082957829003601f168201915b50505060008981526001602081815260409283902060040180548451600260001995831615610100029590950190911693909304601f8101839004830284018301909452838352959750909493509091508301828280156108e85780601f106108bd576101008083540402835291602001916108e8565b820191906000526020600020905b8154815290600101906020018083116108cb57829003601f168201915b5050505050905091939590929450565b6060600280548060200260200160405190810160405280929190818152602001828054801561094757602002820191906000526020600020905b81548152600190910190602001808311610932575b505050505090505b90565b600081815260016020526040812060060154115b919050565b60008060008060008060008761098081610952565b151561098b57600080fd5b61099489612b3a565b600089815260016020526040808220600601546004805483517f40e76fc40000000000000000000000000000000000000000000000000000000081529182018390529251919b50600160a060020a03909216926340e76fc49260248082019360e093909283900390910190829087803b158015610a1057600080fd5b505af1158015610a24573d6000803e3d6000fd5b505050506040513d60e0811015610a3a57600080fd5b50805160208201516060830151608084015160a085015160c0909501519c9e949d50909a509850909650945092505050565b6005546040805160e160020a63349f642f028152602060048201819052600a60248301527f6d696e4465706f7369740000000000000000000000000000000000000000000060448301529151600093600160a060020a03169263693ec85e926064808201939182900301818787803b158015610ae757600080fd5b505af1158015610afb573d6000803e3d6000fd5b505050506040513d6020811015610b1157600080fd5b5051905090565b600755565b83610b2781610952565b1515610b3257600080fd5b610b3b85612b3a565b600354604080517f23b872dd000000000000000000000000000000000000000000000000000000008152336004820152306024820152604481018690529051600160a060020a03909216916323b872dd916064808201926020929091908290030181600087803b158015610bae57600080fd5b505af1158015610bc2573d6000803e3d6000fd5b505050506040513d6020811015610bd857600080fd5b50511515610be557600080fd5b600480546000878152600160205260408082206006015481517f36dbd8530000000000000000000000000000000000000000000000000000000081529485015260248401889052604484018790526064840186905233608485015251600160a060020a03909216926336dbd8539260a4808301939282900301818387803b158015610c6f57600080fd5b505af1158015610c83573d6000803e3d6000fd5b505050505050505050565b600080600080600080610ca087612b3a565b610ca987612d3c565b60008881526001602052604090209096509450610cc587610952565b8015610cd55750610cd587611450565b935083610ce3576000610cf6565b6000878152600160205260409020600601545b92506001866004811115610d0657fe5b1415610f2757610d14612d5b565b8560030154108015610d2c5750610d2a87610952565b155b15610d3f57610d3a87612d61565b6112bc565b8315610f2257610d4e87612dac565b9092509050811515610e7c57610d6387612d61565b60035460028601546040805160e160020a6318eb95970281529051600160a060020a039384169363a9059cbb931691610df89130916331d72b2e9160048083019260209291908290030181600087803b158015610dbf57600080fd5b505af1158015610dd3573d6000803e3d6000fd5b505050506040513d6020811015610de957600080fd5b5051859063ffffffff612ffc16565b6040518363ffffffff1660e060020a0281526004018083600160a060020a0316600160a060020a0316815260200182815260200192505050602060405180830381600087803b158015610e4a57600080fd5b505af1158015610e5e573d6000803e3d6000fd5b505050506040513d6020811015610e7457600080fd5b50610d3a9050565b610e8787600061300e565b60035460008481526020818152604080832060010154815160e060020a63a9059cbb028152600160a060020a03918216600482015260248101879052915194169363a9059cbb93604480840194938390030190829087803b158015610eeb57600080fd5b505af1158015610eff573d6000803e3d6000fd5b505050506040513d6020811015610f1557600080fd5b50511515610d3a57600080fd5b610124565b6004866004811115610f3557fe5b1415610ffe576002850154600160a060020a031633148015610f615750610f5a612d5b565b8560070154105b8015610f7757508460080154610f75612d5b565b105b15610fb957610f8787600161300e565b604051339088907f7d16ed55582bcf69d7bb762cda5b82042371fba7de3a8ebea4517079d892f52290600090a36112bc565b6002850154600160a060020a031633148015610fe057508460080154610fdd612d5b565b10155b15610f22576000600786018190556008860155610d3a876002613378565b600386600481111561100c57fe5b141561121c5761101a612d5b565b8560030154108015611032575061103087610952565b155b1561104057610d3a8761355d565b8315610f225761104f87612dac565b90925090508115156111445760035460058601546040805160e160020a6318eb95970281529051600160a060020a039384169363a9059cbb9316916110b79130916331d72b2e9160048083019260209291908290030181600087803b158015610dbf57600080fd5b6040518363ffffffff1660e060020a0281526004018083600160a060020a0316600160a060020a0316815260200182815260200192505050602060405180830381600087803b15801561110957600080fd5b505af115801561111d573d6000803e3d6000fd5b505050506040513d602081101561113357600080fd5b5061113f90508761355d565b610d3a565b60035460008481526020818152604080832060010154815160e060020a63a9059cbb028152600160a060020a03918216600482015260248101879052915194169363a9059cbb93604480840194938390030190829087803b1580156111a857600080fd5b505af11580156111bc573d6000803e3d6000fd5b505050506040513d60208110156111d257600080fd5b505115156111df57600080fd5b600585018054600160a060020a03191690556111ff600486016000613910565b600087815260016020526040812060030155610d3a876002613378565b600286600481111561122a57fe5b14156112a7578315610f225761123f87612dac565b9092509050811515610e7c5760035460028601546040805160e160020a6318eb95970281529051600160a060020a039384169363a9059cbb931691610df89130916331d72b2e9160048083019260209291908290030181600087803b158015610dbf57600080fd5b60008660048111156112b557fe5b1461012457fe5b50505050505050565b60008060006112d384612b3a565b6112dc84612d3c565b600085815260016020526040902090925090506112f884610952565b8015611308575061130884611450565b156113165760019250611449565b600182600481111561132457fe5b141561135d57611332612d5b565b816003015410801561134a575061134884610952565b155b156113585760019250611449565b611444565b600482600481111561136b57fe5b14156113ed576002810154600160a060020a0316331480156113975750611390612d5b565b8160070154105b80156113ad575080600801546113ab612d5b565b105b156113bb5760019250611449565b6002810154600160a060020a03163314801561134a575080600801546113df612d5b565b106113585760019250611449565b60028260048111156113fb57fe5b141561140a5760009250611449565b600382600481111561141857fe5b141561142657611332612d5b565b600082600481111561143457fe5b1461143b57fe5b60009250611449565b600092505b5050919050565b6000808261145d81610952565b151561146857600080fd5b6000848152600160209081526040808320600601546004805483517fee6848300000000000000000000000000000000000000000000000000000000081529182018390529251919650600160a060020a039092169363ee68483093602480850194919392918390030190829087803b1580156114e357600080fd5b505af11580156114f7573d6000803e3d6000fd5b505050506040513d602081101561150d57600080fd5b5051949350505050565b60008160028061152683612d3c565b600481111561153157fe5b1461153b57600080fd5b8361154581610952565b1561154f57600080fd5b61155885612b3a565b60008581526001602052604090206002810154909450600160a060020a0316331461158257600080fd5b6005546040805160e160020a63349f642f028152602060048201819052600d60248301527f6578697454696d6544656c6179000000000000000000000000000000000000006044830152915161163f93600160a060020a03169263693ec85e92606480820193918290030181600087803b1580156115ff57600080fd5b505af1158015611613573d6000803e3d6000fd5b505050506040513d602081101561162957600080fd5b5051611633612d5b565b9063ffffffff61372616565b60078501556005546040805160e160020a63349f642f028152602060048201819052600d60248301527f65786974506572696f644c656e00000000000000000000000000000000000000604483015291516116fe93600160a060020a03169263693ec85e92606480820193918290030181600087803b1580156116c157600080fd5b505af11580156116d5573d6000803e3d6000fd5b505050506040513d60208110156116eb57600080fd5b505160078601549063ffffffff61372616565b600885015561170e856004613378565b600784015460088501546040805192835260208301919091528051339288927f4b137a01f77b8f1b4ccaca2abac799475d550c8adc298e399e75ee95d317b54692918290030190a35050505050565b6000602081905290815260409020805460018201546002909201549091600160a060020a0381169160a060020a90910460ff169084565b6000836002806117a383612d3c565b60048111156117ae57fe5b146117b857600080fd5b856117c281610952565b156117cc57600080fd5b6117d587612b3a565b600087815260016020526040902093506117f3600485018787613957565b5060058085018054600160a060020a03191633179055546040805160e160020a63349f642f028152602060048201819052600d60248301527f6170706c7953746167654c656e000000000000000000000000000000000000006044830152915161188493600160a060020a03169263693ec85e92606480820193918290030181600087803b1580156115ff57600080fd5b6003808601919091555460058501546040805160e160020a6318eb95970281529051600160a060020a03938416936323b872dd931691309182916331d72b2e9160048083019260209291908290030181600087803b1580156118e557600080fd5b505af11580156118f9573d6000803e3d6000fd5b505050506040513d602081101561190f57600080fd5b50516040805160e060020a63ffffffff8716028152600160a060020a0394851660048201529290931660248301526044820152905160648083019260209291908290030181600087803b15801561196557600080fd5b505af1158015611979573d6000803e3d6000fd5b505050506040513d602081101561198f57600080fd5b5051151561199c57600080fd5b6119a7876003613378565b33600160a060020a031687600019167f737315cf706ab3a33d458e436c4d95d99e56ae8703cb3870e95c93d3539a6d7330600160a060020a03166331d72b2e6040518163ffffffff1660e060020a028152600401602060405180830381600087803b158015611a1557600080fd5b505af1158015611a29573d6000803e3d6000fd5b505050506040513d6020811015611a3f57600080fd5b50516003880154604080518381526020810183905260609181018281529181018c90528c918c919060808201848480828437604051920182900397509095505050505050a350505050505050565b600082815260208181526040808320600160a060020a038516845260030190915290205460ff165b92915050565b6000818152602081815260408083206004805483517fd1382092000000000000000000000000000000000000000000000000000000008152600160a060020a038981169382019390935260248101889052935186958695939092169263d138209292604480830193919282900301818887803b158015611b3a57600080fd5b505af1158015611b4e573d6000803e3d6000fd5b505050506040513d6020811015611b6457600080fd5b50516002820154909350831115611b7757fe5b60048054604080517fbdd415af000000000000000000000000000000000000000000000000000000008152928301889052600160a060020a038981166024850152905191169163bdd415af9160448083019260209291908290030181600087803b158015611be457600080fd5b505af1158015611bf8573d6000803e3d6000fd5b505050506040513d6020811015611c0e57600080fd5b505191508115611c485760028101548154611c419190611c3590869063ffffffff61373316565b9063ffffffff61375c16565b9350611c4d565b600093505b509250925092565b600160208181526000928352604092839020805481840180548651600296821615610100026000190190911695909504601f81018590048502860185019096528585529094919392909190830182828015611cf15780601f10611cc657610100808354040283529160200191611cf1565b820191906000526020600020905b815481529060010190602001808311611cd457829003601f168201915b5050505060028381015460038501546004860180546040805160206101006001851615026000190190931696909604601f81018390048302870183019091528086529697600160a060020a0385169760a060020a90950460ff1696509294929390830182828015611da35780601f10611d7857610100808354040283529160200191611da3565b820191906000526020600020905b815481529060010190602001808311611d8657829003601f168201915b505050506005830154600684015460078501546008909501549394600160a060020a03909216939092508a565b60068054600101908190556040805160208082019390935281518082038401815290820191829052805160009384939182918401908083835b60208310611e285780518252601f199092019160209182019101611e09565b5181516020939093036101000a60001901801990911692169190911790526040519201829003909120945060009250611e5f915050565b611e6883612d3c565b6004811115611e7357fe5b14611e7a57fe5b50600081815260016020819052604090912090611e9a9082018585613957565b50600281018054600160a060020a031916331790556005546040805160e160020a63349f642f028152602060048201819052600d60248301527f6170706c7953746167654c656e0000000000000000000000000000000000000060448301529151611f2c93600160a060020a03169263693ec85e92606480820193918290030181600087803b1580156115ff57600080fd5b6003808301919091555460028201546040805160e160020a6318eb95970281529051600160a060020a03938416936323b872dd931691309182916331d72b2e9160048083019260209291908290030181600087803b158015611f8d57600080fd5b505af1158015611fa1573d6000803e3d6000fd5b505050506040513d6020811015611fb757600080fd5b50516040805160e060020a63ffffffff8716028152600160a060020a0394851660048201529290931660248301526044820152905160648083019260209291908290030181600087803b15801561200d57600080fd5b505af1158015612021573d6000803e3d6000fd5b505050506040513d602081101561203757600080fd5b5051151561204457600080fd5b60028054808355600180820183556000929092527f405787fa12a823e0f2b7631cc41b3ba8828b3321ca811111fa75cd3aa3bb5ace01839055612088908390613378565b33600160a060020a031682600019167f4312ccd704584a12352f9061e58caf210d1e8fe14645cb8784e318207ea1912130600160a060020a03166331d72b2e6040518163ffffffff1660e060020a028152600401602060405180830381600087803b1580156120f657600080fd5b505af115801561210a573d6000803e3d6000fd5b505050506040513d602081101561212057600080fd5b50516003850154604080518381526020810183905260609181018281529181018a90528a918a919060808201848480828437604051920182900397509095505050505050a350505050565b60008181526020819052604081206001808201549192918291829160a060020a900460ff1615151461219c57600080fd5b33600090815260038501602052604090205460ff16156121bb57600080fd5b6121c53386611abb565b3360008181526003808a0160209081526040808420805460ff191660011790559154825160e060020a63a9059cbb0281526004810195909552602485018790529151969950949750929550600160a060020a03929092169363a9059cbb9360448084019491938390030190829087803b15801561224157600080fd5b505af1158015612255573d6000803e3d6000fd5b505050506040513d602081101561226b57600080fd5b5051151561227857600080fd5b8015612356576002840180548390039055835483900384556003546040805160e060020a63a9059cbb028152336004820152602481018690529051600160a060020a039092169163a9059cbb916044808201926020929091908290030181600087803b1580156122e757600080fd5b505af11580156122fb573d6000803e3d6000fd5b505050506040513d602081101561231157600080fd5b5051151561231e57600080fd5b604080518481529051339187917f6f4c982acc31b0af2cf1dc1556f21c0325d893782d65e83c68a5534a33f599579181900360200190a35b5050505050565b600554600160a060020a031681565b60008060008060008661237e81610952565b1561238857600080fd5b61239188612b3a565b61239a88612d3c565b600089815260016020526040902090965094508660048111156123b957fe5b60048111156123c457fe5b8660048111156123d057fe5b146123da57600080fd5b60018660048111156123e857fe5b14806123ff575060028660048111156123fd57fe5b145b806124155750600386600481111561241357fe5b145b151561242057600080fd5b600480546005546040805160e160020a63349f642f0281526020948101859052600a60248201527f766f746551756f72756d0000000000000000000000000000000000000000000060448201529051600160a060020a03938416946332ed3d60949093169263693ec85e92606480820193918290030181600087803b1580156124a857600080fd5b505af11580156124bc573d6000803e3d6000fd5b505050506040513d60208110156124d257600080fd5b50516005546040805160e160020a63349f642f028152602060048201819052600e60248301527f636f6d6d697453746167654c656e00000000000000000000000000000000000060448301529151600160a060020a039093169263693ec85e926064808401939192918290030181600087803b15801561255157600080fd5b505af1158015612565573d6000803e3d6000fd5b505050506040513d602081101561257b57600080fd5b50516005546040805160e160020a63349f642f028152602060048201819052600e60248301527f72657665616c53746167654c656e00000000000000000000000000000000000060448301529151600160a060020a039093169263693ec85e926064808401939192918290030181600087803b1580156125fa57600080fd5b505af115801561260e573d6000803e3d6000fd5b505050506040513d602081101561262457600080fd5b50516040805160e060020a63ffffffff87160281526004810194909452602484019290925260448301525160648083019260209291908290030181600087803b15801561267057600080fd5b505af1158015612684573d6000803e3d6000fd5b505050506040513d602081101561269a57600080fd5b5051604080516080810180835260e160020a6318eb959702905290519195509081906127dd90606490611c359030906331d72b2e90608480880191602091818a030181600087803b1580156126ee57600080fd5b505af1158015612702573d6000803e3d6000fd5b505050506040513d602081101561271857600080fd5b50516005546040805160e160020a63349f642f028152602060048201819052600f60248301527f64697370656e736174696f6e5063740000000000000000000000000000000000604483015291516127d193600160a060020a03169263693ec85e92606480820193918290030181600087803b15801561279757600080fd5b505af11580156127ab573d6000803e3d6000fd5b505050506040513d60208110156127c157600080fd5b505160649063ffffffff612ffc16565b9063ffffffff61373316565b8152336020808301829052600060408085018290526060948501829052898252818352808220865181558684015160018201805489850151600160a060020a0319909116600160a060020a039384161774ff0000000000000000000000000000000000000000191660a060020a91151591909102179055969095015160029095019490945560068a01899055600354845160e160020a6318eb959702815294519516946323b872dd94309384936331d72b2e936004808501949192918390030190829087803b1580156128af57600080fd5b505af11580156128c3573d6000803e3d6000fd5b505050506040513d60208110156128d957600080fd5b50516040805160e060020a63ffffffff8716028152600160a060020a0394851660048201529290931660248301526044820152905160648083019260209291908290030181600087803b15801561292f57600080fd5b505af1158015612943573d6000803e3d6000fd5b505050506040513d602081101561295957600080fd5b5051151561296657600080fd5b60048054604080517f40e76fc400000000000000000000000000000000000000000000000000000000815292830187905251600160a060020a03909116916340e76fc49160248083019260e09291908290030181600087803b1580156129cb57600080fd5b505af11580156129df573d6000803e3d6000fd5b505050506040513d60e08110156129f557600080fd5b5080516020918201516040805188815293840183905283810182905251919550935033918a917f67a04eb39babf45b833ba4c37d46c458529cf975c0bd58936d1f8d9f53bdf1009181900360600190a35050505050505050565b6002805482908110612a5d57fe5b600091825260209091200154905081565b600354600160a060020a031681565b600454600160a060020a031681565b81612a9681610952565b1515612aa157600080fd5b612aaa83612b3a565b600480546000858152600160205260408082206006015481517f91d522f4000000000000000000000000000000000000000000000000000000008152948501526024840186905233604485015251600160a060020a03909216926391d522f4926064808301939282900301818387803b158015612b2657600080fd5b505af11580156112bc573d6000803e3d6000fd5b600081815260016020526040812060028101549091600160a060020a038216159160a060020a900460ff166004811115612b7057fe5b1414612b7857fe5b600381015415156001600283015460a060020a900460ff166004811115612b9b57fe5b1480612bc057506003600283015460a060020a900460ff166004811115612bbe57fe5b145b151514612bc957fe5b600781015415156004600283015460a060020a900460ff166004811115612bec57fe5b1414612bf457fe5b600881015415156004600283015460a060020a900460ff166004811115612c1757fe5b1414612c1f57fe5b60048101546002600019610100600184161502019091160415156003600283015460a060020a900460ff166004811115612c5557fe5b1414612c5d57fe5b6005810154600160a060020a031615156003600283015460a060020a900460ff166004811115612c8957fe5b1414612c9157fe5b6004600282015460a060020a900460ff166004811115612cad57fe5b1480612cd257506000600282015460a060020a900460ff166004811115612cd057fe5b145b15612ce757612ce082610952565b15612ce757fe5b6000600282015460a060020a900460ff166004811115612d0357fe5b14612d3857600254815410612d1457fe5b8054600280548492908110612d2557fe5b60009182526020909120015414612d3857fe5b5050565b60009081526001602052604090206002015460a060020a900460ff1690565b60075490565b600081815260016020526040812060030155612d7e816002613378565b60405181907fa7bc1d57d9006d9d248707c7b6828c1bab8c51719cc06d78c82a3ee891ef967c90600090a250565b6000818152600160205260408120600601548190612dc981613771565b6000828152602081815260408083206001908101805474ff0000000000000000000000000000000000000000191660a060020a17905588845282528083206006018390556004805482517f053e71a60000000000000000000000000000000000000000000000000000000081529182018790529151949650600160a060020a039091169363053e71a693602480840194938390030190829087803b158015612e7057600080fd5b505af1158015612e84573d6000803e3d6000fd5b505050506040513d6020811015612e9a57600080fd5b5051600082815260208181526040808320600201939093556004805484517f3c5940590000000000000000000000000000000000000000000000000000000081529182018690529351600160a060020a0390941693633c59405993602480840194938390030190829087803b158015612f1257600080fd5b505af1158015612f26573d6000803e3d6000fd5b505050506040513d6020811015612f3c57600080fd5b505115925082612fa0576000818152602081815260409182902080546002909101548351918252918101919091528151839287927fc4497224aa78dd50c9b3e344aab02596201ca1e6dca4057a91a6c02f83f4f6c1929081900390910190a3612ff6565b6000818152602081815260409182902080546002909101548351918252918101919091528151839287927f362a12431f779a2baff4f77f75ba7960ae993a5c41b425df11f7fd0af2b9cbe6929081900390910190a35b50915091565b60008282111561300857fe5b50900390565b600082815260016020526040812090808061302886612d3c565b6002850154909350600160a060020a0316915081151561304457fe5b5060028084018054600160a060020a03191690556000868152600160205260409020549054811061307157fe5b6002546000190181146130ee5760028054829160019160009190600019810190811061309957fe5b600091825260208083209091015483528201929092526040019020556002805460001981019081106130c757fe5b90600052602060002001546002828154811015156130e157fe5b6000918252602090912001555b6002805460009190600019810190811061310457fe5b60009182526020909120015560028054906131239060001983016139d5565b5060008681526001602081905260408220828155919061314590830182613910565b60028201805474ffffffffffffffffffffffffffffffffffffffffff1916905560006003830181905561317c906004840190613910565b50600581018054600160a060020a03191690556000600682018190556007820181905560089091015560028401805484919074ff0000000000000000000000000000000000000000191660a060020a8360048111156131d757fe5b02179055506131e7866000613378565b841561330057600360009054906101000a9004600160a060020a0316600160a060020a031663a9059cbb8330600160a060020a03166331d72b2e6040518163ffffffff1660e060020a028152600401602060405180830381600087803b15801561325057600080fd5b505af1158015613264573d6000803e3d6000fd5b505050506040513d602081101561327a57600080fd5b50516040805160e060020a63ffffffff8616028152600160a060020a03909316600484015260248301919091525160448083019260209291908290030181600087803b1580156132c957600080fd5b505af11580156132dd573d6000803e3d6000fd5b505050506040513d60208110156132f357600080fd5b5051151561330057600080fd5b82600481111561330c57fe5b600114156133445760405186907f2e5ec035f6eac8ff1cf7cdf36cfeca7c85413f9f67652dc2c13d20f337204a2690600090a2613370565b60405186907fd1ffb796b7108387b2f02adf47b4b81a1690cf2a190422c87a4f670780103e6390600090a25b505050505050565b600061338383612d3c565b905081600481111561339157fe5b81600481111561339d57fe5b14156133a557fe5b8060048111156133b157fe5b15156133d2578160048111156133c357fe5b60015b146133cd57fe5b6134c1565b8060048111156133de57fe5b60011415613417578160048111156133f257fe5b60025b148061340f575081600481111561340857fe5b60006133c6565b15156133cd57fe5b80600481111561342357fe5b600214156134655781600481111561343757fe5b60031480613453575081600481111561344c57fe5b60046133f5565b8061340f575081600481111561340857fe5b80600481111561347157fe5b6003141561348c5781600481111561348557fe5b60026133c6565b80600481111561349857fe5b600414156134bf578160048111156134ac57fe5b158061340f575081600481111561348557fe5bfe5b6000838152600160205260409020600201805483919074ff0000000000000000000000000000000000000000191660a060020a83600481111561350057fe5b021790555082600019167f5259e6bce9118f32463f9a5d22fec1650fc0a470c6365f2ccd83d4cf75dd6747836040518082600481111561353c57fe5b60ff16815260200191505060405180910390a261355883612b3a565b505050565b60008181526001602090815260408083206003546002820154835160e160020a6318eb959702815293519295600160a060020a039283169563a9059cbb95939092169330936331d72b2e936004808301949193928390030190829087803b1580156135c757600080fd5b505af11580156135db573d6000803e3d6000fd5b505050506040513d60208110156135f157600080fd5b50516040805160e060020a63ffffffff8616028152600160a060020a03909316600484015260248301919091525160448083019260209291908290030181600087803b15801561364057600080fd5b505af1158015613654573d6000803e3d6000fd5b505050506040513d602081101561366a57600080fd5b5051151561367757600080fd5b60058101805460028084018054600160a060020a0319908116600160a060020a038516179091559091169091556004820180546136cb926001808601939260001991811615610100029190910116046139f9565b506136da600482016000613910565b6000828152600160205260408120600301556136f7826002613378565b60405182907f5d75a4e0e0c1cc54dde0425a93949dc552565df87760b1cb07564b24e04add0090600090a25050565b81810182811015611ab557fe5b600082151561374457506000611ab5565b5081810281838281151561375457fe5b0414611ab557fe5b6000818381151561376957fe5b049392505050565b60048054604080517f053e71a600000000000000000000000000000000000000000000000000000000815292830184905251600092600160a060020a039092169163053e71a691602480830192602092919082900301818787803b1580156137d857600080fd5b505af11580156137ec573d6000803e3d6000fd5b505050506040513d602081101561380257600080fd5b5051151561387e5730600160a060020a03166331d72b2e6040518163ffffffff1660e060020a028152600401602060405180830381600087803b15801561384857600080fd5b505af115801561385c573d6000803e3d6000fd5b505050506040513d602081101561387257600080fd5b50516002029050610966565b611ab56000808481526020019081526020016000206000015430600160a060020a03166331d72b2e6040518163ffffffff1660e060020a028152600401602060405180830381600087803b1580156138d557600080fd5b505af11580156138e9573d6000803e3d6000fd5b505050506040513d60208110156138ff57600080fd5b50516002029063ffffffff612ffc16565b50805460018160011615610100020316600290046000825580601f106139365750613954565b601f0160209004906000526020600020908101906139549190613a6e565b50565b828054600181600116156101000203166002900490600052602060002090601f016020900481019282601f106139985782800160ff198235161785556139c5565b828001600101855582156139c5579182015b828111156139c55782358255916020019190600101906139aa565b506139d1929150613a6e565b5090565b81548183558181111561355857600083815260209020613558918101908301613a6e565b828054600181600116156101000203166002900490600052602060002090601f016020900481019282601f10613a3257805485556139c5565b828001600101855582156139c557600052602060002091601f016020900482015b828111156139c5578254825591600101919060010190613a53565b61094f91905b808211156139d15760008155600101613a745600a165627a7a7230582009f776a2f1e7a6f4f30af601035a8b2d388ee04a0ccab52ee9f137ef94f48d250029",
  "source": "pragma solidity ^0.4.24;\n\nimport \"../Registry.sol\";\n\ncontract RegistryTestHelper is Registry {\n\n    constructor(address _token, address _voting, address _parameterizer) public\n        Registry(_token, _voting, _parameterizer) {\n    }\n\n    function time() internal view returns (uint) {\n        return m_time;\n    }\n\n    function setTime(uint time_) external {\n        m_time = time_;\n    }\n\n    uint m_time;\n}\n",
  "sourcePath": "/home/algys/sources/dapp-tcr/contracts/test_helpers/RegistryTestHelper.sol",
  "compiler": {
    "name": "solc",
    "version": "0.4.24+commit.e67f0147.Emscripten.clang"
  },
  "schemaVersion": "2.0.1",
  "updatedAt": "2018-10-28T06:09:45.476Z"
}