{
  "contractName": "Token",
  "abi": [
    {
      "constant": false,
      "inputs": [
        {
          "name": "_spender",
          "type": "address"
        },
        {
          "name": "_value",
          "type": "uint256"
        }
      ],
      "name": "approve",
      "outputs": [
        {
          "name": "",
          "type": "bool"
        }
      ],
      "payable": false,
      "stateMutability": "nonpayable",
      "type": "function"
    },
    {
      "constant": true,
      "inputs": [],
      "name": "totalSupply",
      "outputs": [
        {
          "name": "",
          "type": "uint256"
        }
      ],
      "payable": false,
      "stateMutability": "view",
      "type": "function"
    },
    {
      "constant": true,
      "inputs": [],
      "name": "INITIAL_SUPPLY",
      "outputs": [
        {
          "name": "",
          "type": "uint256"
        }
      ],
      "payable": false,
      "stateMutability": "view",
      "type": "function"
    },
    {
      "constant": true,
      "inputs": [],
      "name": "decimals",
      "outputs": [
        {
          "name": "",
          "type": "uint8"
        }
      ],
      "payable": false,
      "stateMutability": "view",
      "type": "function"
    },
    {
      "constant": false,
      "inputs": [
        {
          "name": "_spender",
          "type": "address"
        },
        {
          "name": "_subtractedValue",
          "type": "uint256"
        }
      ],
      "name": "decreaseApproval",
      "outputs": [
        {
          "name": "",
          "type": "bool"
        }
      ],
      "payable": false,
      "stateMutability": "nonpayable",
      "type": "function"
    },
    {
      "constant": true,
      "inputs": [],
      "name": "tokenName",
      "outputs": [
        {
          "name": "",
          "type": "string"
        }
      ],
      "payable": false,
      "stateMutability": "view",
      "type": "function"
    },
    {
      "constant": true,
      "inputs": [
        {
          "name": "_owner",
          "type": "address"
        }
      ],
      "name": "balanceOf",
      "outputs": [
        {
          "name": "",
          "type": "uint256"
        }
      ],
      "payable": false,
      "stateMutability": "view",
      "type": "function"
    },
    {
      "constant": true,
      "inputs": [],
      "name": "registry",
      "outputs": [
        {
          "name": "",
          "type": "address"
        }
      ],
      "payable": false,
      "stateMutability": "view",
      "type": "function"
    },
    {
      "constant": true,
      "inputs": [],
      "name": "symbol",
      "outputs": [
        {
          "name": "",
          "type": "string"
        }
      ],
      "payable": false,
      "stateMutability": "view",
      "type": "function"
    },
    {
      "constant": false,
      "inputs": [
        {
          "name": "_to",
          "type": "address"
        },
        {
          "name": "_value",
          "type": "uint256"
        }
      ],
      "name": "transfer",
      "outputs": [
        {
          "name": "",
          "type": "bool"
        }
      ],
      "payable": false,
      "stateMutability": "nonpayable",
      "type": "function"
    },
    {
      "constant": false,
      "inputs": [
        {
          "name": "_spender",
          "type": "address"
        },
        {
          "name": "_addedValue",
          "type": "uint256"
        }
      ],
      "name": "increaseApproval",
      "outputs": [
        {
          "name": "",
          "type": "bool"
        }
      ],
      "payable": false,
      "stateMutability": "nonpayable",
      "type": "function"
    },
    {
      "constant": true,
      "inputs": [
        {
          "name": "_owner",
          "type": "address"
        },
        {
          "name": "_spender",
          "type": "address"
        }
      ],
      "name": "allowance",
      "outputs": [
        {
          "name": "",
          "type": "uint256"
        }
      ],
      "payable": false,
      "stateMutability": "view",
      "type": "function"
    },
    {
      "inputs": [],
      "payable": false,
      "stateMutability": "nonpayable",
      "type": "constructor"
    },
    {
      "anonymous": false,
      "inputs": [
        {
          "indexed": true,
          "name": "owner",
          "type": "address"
        },
        {
          "indexed": true,
          "name": "spender",
          "type": "address"
        },
        {
          "indexed": false,
          "name": "value",
          "type": "uint256"
        }
      ],
      "name": "Approval",
      "type": "event"
    },
    {
      "anonymous": false,
      "inputs": [
        {
          "indexed": true,
          "name": "from",
          "type": "address"
        },
        {
          "indexed": true,
          "name": "to",
          "type": "address"
        },
        {
          "indexed": false,
          "name": "value",
          "type": "uint256"
        }
      ],
      "name": "Transfer",
      "type": "event"
    },
    {
      "constant": false,
      "inputs": [
        {
          "name": "registry_",
          "type": "address"
        }
      ],
      "name": "set_registry",
      "outputs": [],
      "payable": false,
      "stateMutability": "nonpayable",
      "type": "function"
    },
    {
      "constant": false,
      "inputs": [
        {
          "name": "_from",
          "type": "address"
        },
        {
          "name": "_to",
          "type": "address"
        },
        {
          "name": "_value",
          "type": "uint256"
        }
      ],
      "name": "transferFrom",
      "outputs": [
        {
          "name": "",
          "type": "bool"
        }
      ],
      "payable": false,
      "stateMutability": "nonpayable",
      "type": "function"
    }
  ],
  "bytecode": "0x608060405234801561001057600080fd5b5069d3c21bcecceda1000000600181905533600081815260208181526040808320859055805194855251929391927fddf252ad1be2c89b69c2b068fc378daa952ba7f163c4a11628f55a4df523b3ef9281900390910190a3610a32806100776000396000f3006080604052600436106100cf5763ffffffff7c0100000000000000000000000000000000000000000000000000000000600035041663095ea7b381146100d457806318160ddd1461010c57806323b872dd146101335780632ff2e9dc1461015d578063313ce56714610172578063661884631461019d5780636c02a931146101c157806370a082311461024b5780637b1039991461026c57806395d89b411461029d578063a9059cbb146102b2578063d73dd623146102d6578063dd62ed3e146102fa578063f1e300bb14610321575b600080fd5b3480156100e057600080fd5b506100f8600160a060020a0360043516602435610344565b604080519115158252519081900360200190f35b34801561011857600080fd5b506101216103aa565b60408051918252519081900360200190f35b34801561013f57600080fd5b506100f8600160a060020a03600435811690602435166044356103b0565b34801561016957600080fd5b506101216104d5565b34801561017e57600080fd5b506101876104e3565b6040805160ff9092168252519081900360200190f35b3480156101a957600080fd5b506100f8600160a060020a03600435166024356104e8565b3480156101cd57600080fd5b506101d66105d7565b6040805160208082528351818301528351919283929083019185019080838360005b838110156102105781810151838201526020016101f8565b50505050905090810190601f16801561023d5780820380516001836020036101000a031916815260200191505b509250505060405180910390f35b34801561025757600080fd5b50610121600160a060020a036004351661060e565b34801561027857600080fd5b50610281610629565b60408051600160a060020a039092168252519081900360200190f35b3480156102a957600080fd5b506101d6610638565b3480156102be57600080fd5b506100f8600160a060020a036004351660243561066f565b3480156102e257600080fd5b506100f8600160a060020a036004351660243561074e565b34801561030657600080fd5b50610121600160a060020a03600435811690602435166107e7565b34801561032d57600080fd5b50610342600160a060020a0360043516610812565b005b336000818152600260209081526040808320600160a060020a038716808552908352818420869055815186815291519394909390927f8c5be1e5ebec7d5bd14f71427d1e84f3dd0314c0f7b2291e5b200ac8c7c3b925928290030190a350600192915050565b60015490565b600354600090600160a060020a0316331415806103db5750600354600160a060020a03848116911614155b156103f2576103eb84848461086c565b90506104ce565b600160a060020a03841660009081526020819052604090205482111561041757600080fd5b600160a060020a038416600090815260208190526040902054610440908363ffffffff6109e116565b600160a060020a038086166000908152602081905260408082209390935590851681522054610475908363ffffffff6109f316565b600160a060020a038085166000818152602081815260409182902094909455805186815290519193928816927fddf252ad1be2c89b69c2b068fc378daa952ba7f163c4a11628f55a4df523b3ef92918290030190a35060015b9392505050565b69d3c21bcecceda100000081565b601281565b336000908152600260209081526040808320600160a060020a038616845290915281205480831061053c57336000908152600260209081526040808320600160a060020a0388168452909152812055610571565b61054c818463ffffffff6109e116565b336000908152600260209081526040808320600160a060020a03891684529091529020555b336000818152600260209081526040808320600160a060020a0389168085529083529281902054815190815290519293927f8c5be1e5ebec7d5bd14f71427d1e84f3dd0314c0f7b2291e5b200ac8c7c3b925929181900390910190a35060019392505050565b60408051808201909152601381527f4441707020526567697374727920546f6b656e00000000000000000000000000602082015281565b600160a060020a031660009081526020819052604090205490565b600354600160a060020a031681565b60408051808201909152600381527f4452540000000000000000000000000000000000000000000000000000000000602082015281565b3360009081526020819052604081205482111561068b57600080fd5b600160a060020a03831615156106a057600080fd5b336000908152602081905260409020546106c0908363ffffffff6109e116565b3360009081526020819052604080822092909255600160a060020a038516815220546106f2908363ffffffff6109f316565b600160a060020a038416600081815260208181526040918290209390935580518581529051919233927fddf252ad1be2c89b69c2b068fc378daa952ba7f163c4a11628f55a4df523b3ef9281900390910190a350600192915050565b336000908152600260209081526040808320600160a060020a0386168452909152812054610782908363ffffffff6109f316565b336000818152600260209081526040808320600160a060020a0389168085529083529281902085905580519485525191937f8c5be1e5ebec7d5bd14f71427d1e84f3dd0314c0f7b2291e5b200ac8c7c3b925929081900390910190a350600192915050565b600160a060020a03918216600090815260026020908152604080832093909416825291909152205490565b600160a060020a038116151561082757600080fd5b600354600160a060020a03161561083d57600080fd5b6003805473ffffffffffffffffffffffffffffffffffffffff1916600160a060020a0392909216919091179055565b600160a060020a03831660009081526020819052604081205482111561089157600080fd5b600160a060020a03841660009081526002602090815260408083203384529091529020548211156108c157600080fd5b600160a060020a03831615156108d657600080fd5b600160a060020a0384166000908152602081905260409020546108ff908363ffffffff6109e116565b600160a060020a038086166000908152602081905260408082209390935590851681522054610934908363ffffffff6109f316565b600160a060020a03808516600090815260208181526040808320949094559187168152600282528281203382529091522054610976908363ffffffff6109e116565b600160a060020a03808616600081815260026020908152604080832033845282529182902094909455805186815290519287169391927fddf252ad1be2c89b69c2b068fc378daa952ba7f163c4a11628f55a4df523b3ef929181900390910190a35060019392505050565b6000828211156109ed57fe5b50900390565b81810182811015610a0057fe5b929150505600a165627a7a723058208e675e59a90e0d753f1622b4a717b0e7d50e53f1fba5e9d375518e65dadda5cd0029",
  "source": "pragma solidity ^0.4.24;\n\nimport \"zeppelin-solidity/contracts/token/ERC20/ERC20.sol\";\nimport \"zeppelin-solidity/contracts/token/ERC20/StandardToken.sol\";\n\ncontract Token is ERC20, StandardToken {\n\n    string public constant tokenName = \"DApp Registry Token\";\n    string public constant symbol = \"DRT\";\n    uint8 public constant decimals = 18;\n\n    uint256 public constant INITIAL_SUPPLY = 1000000 * (uint(10) ** uint(decimals));\n\n    address public registry;\n\n    constructor() public {\n        totalSupply_ = INITIAL_SUPPLY;\n        balances[msg.sender] = INITIAL_SUPPLY;\n        emit Transfer(address(0), msg.sender, INITIAL_SUPPLY);\n    }\n\n    function set_registry(address registry_) external {\n        require(registry_ != address(0));\n        require(registry == address(0));\n\n        registry = registry_;\n    }\n\n  function transferFrom(\n    address _from,\n    address _to,\n    uint256 _value\n  )\n    public\n    returns (bool)\n  {\n    if (msg.sender != registry || _to != registry)\n        return super.transferFrom(_from, _to, _value);\n\n    // Registry is pre-approved\n    require(_value <= balances[_from]);\n\n    balances[_from] = balances[_from].sub(_value);\n    balances[_to] = balances[_to].add(_value);\n    emit Transfer(_from, _to, _value);\n    return true;\n  }\n}\n",
  "sourcePath": "/home/algys/sources/dapp-tcr/contracts/Token.sol",
  "compiler": {
    "name": "solc",
    "version": "0.4.24+commit.e67f0147.Emscripten.clang"
  },
  "schemaVersion": "2.0.1",
  "updatedAt": "2018-10-28T06:09:45.474Z"
}