{
  "contractName": "Voting",
  "abi": [
    {
      "constant": true,
      "inputs": [
        {
          "name": "",
          "type": "uint256"
        }
      ],
      "name": "pollMap",
      "outputs": [
        {
          "name": "commitEndDate",
          "type": "uint256"
        },
        {
          "name": "revealEndDate",
          "type": "uint256"
        },
        {
          "name": "voteQuorum",
          "type": "uint256"
        },
        {
          "name": "votesFor",
          "type": "uint256"
        },
        {
          "name": "votesAgainst",
          "type": "uint256"
        }
      ],
      "payable": false,
      "stateMutability": "view",
      "type": "function"
    },
    {
      "constant": true,
      "inputs": [],
      "name": "registry",
      "outputs": [
        {
          "name": "",
          "type": "address"
        }
      ],
      "payable": false,
      "stateMutability": "view",
      "type": "function"
    },
    {
      "constant": true,
      "inputs": [],
      "name": "pollNonce",
      "outputs": [
        {
          "name": "",
          "type": "uint256"
        }
      ],
      "payable": false,
      "stateMutability": "view",
      "type": "function"
    },
    {
      "anonymous": false,
      "inputs": [
        {
          "indexed": true,
          "name": "pollID",
          "type": "uint256"
        },
        {
          "indexed": true,
          "name": "voter",
          "type": "address"
        }
      ],
      "name": "_VoteCommitted",
      "type": "event"
    },
    {
      "anonymous": false,
      "inputs": [
        {
          "indexed": true,
          "name": "pollID",
          "type": "uint256"
        },
        {
          "indexed": false,
          "name": "numTokens",
          "type": "uint256"
        },
        {
          "indexed": false,
          "name": "votesFor",
          "type": "uint256"
        },
        {
          "indexed": false,
          "name": "votesAgainst",
          "type": "uint256"
        },
        {
          "indexed": true,
          "name": "choice",
          "type": "uint256"
        },
        {
          "indexed": true,
          "name": "voter",
          "type": "address"
        },
        {
          "indexed": false,
          "name": "salt",
          "type": "uint256"
        }
      ],
      "name": "_VoteRevealed",
      "type": "event"
    },
    {
      "anonymous": false,
      "inputs": [
        {
          "indexed": false,
          "name": "commitEndDate",
          "type": "uint256"
        },
        {
          "indexed": false,
          "name": "revealEndDate",
          "type": "uint256"
        },
        {
          "indexed": true,
          "name": "pollID",
          "type": "uint256"
        }
      ],
      "name": "_PollCreated",
      "type": "event"
    },
    {
      "anonymous": false,
      "inputs": [
        {
          "indexed": false,
          "name": "numTokens",
          "type": "uint256"
        },
        {
          "indexed": true,
          "name": "voter",
          "type": "address"
        }
      ],
      "name": "_VotingRightsGranted",
      "type": "event"
    },
    {
      "anonymous": false,
      "inputs": [
        {
          "indexed": false,
          "name": "numTokens",
          "type": "uint256"
        },
        {
          "indexed": true,
          "name": "voter",
          "type": "address"
        }
      ],
      "name": "_VotingRightsWithdrawn",
      "type": "event"
    },
    {
      "anonymous": false,
      "inputs": [
        {
          "indexed": true,
          "name": "pollID",
          "type": "uint256"
        },
        {
          "indexed": true,
          "name": "voter",
          "type": "address"
        }
      ],
      "name": "_TokensRescued",
      "type": "event"
    },
    {
      "anonymous": false,
      "inputs": [
        {
          "indexed": true,
          "name": "pollID",
          "type": "uint256"
        },
        {
          "indexed": true,
          "name": "voter",
          "type": "address"
        },
        {
          "indexed": false,
          "name": "numTokens",
          "type": "uint256"
        }
      ],
      "name": "_StakeWithdrawed",
      "type": "event"
    },
    {
      "constant": false,
      "inputs": [
        {
          "name": "registry_",
          "type": "address"
        }
      ],
      "name": "set_registry",
      "outputs": [],
      "payable": false,
      "stateMutability": "nonpayable",
      "type": "function"
    },
    {
      "constant": false,
      "inputs": [
        {
          "name": "_pollID",
          "type": "uint256"
        },
        {
          "name": "_secretHash",
          "type": "bytes32"
        },
        {
          "name": "voter",
          "type": "address"
        }
      ],
      "name": "commitVote",
      "outputs": [],
      "payable": false,
      "stateMutability": "nonpayable",
      "type": "function"
    },
    {
      "constant": false,
      "inputs": [
        {
          "name": "_pollID",
          "type": "uint256"
        },
        {
          "name": "_voteOption",
          "type": "uint256"
        },
        {
          "name": "_voteStake",
          "type": "uint256"
        },
        {
          "name": "_salt",
          "type": "uint256"
        },
        {
          "name": "_voter",
          "type": "address"
        }
      ],
      "name": "revealVote",
      "outputs": [],
      "payable": false,
      "stateMutability": "nonpayable",
      "type": "function"
    },
    {
      "constant": false,
      "inputs": [
        {
          "name": "voteQuorum",
          "type": "uint256"
        },
        {
          "name": "_commitDuration",
          "type": "uint256"
        },
        {
          "name": "_revealDuration",
          "type": "uint256"
        }
      ],
      "name": "startPoll",
      "outputs": [
        {
          "name": "pollID",
          "type": "uint256"
        }
      ],
      "payable": false,
      "stateMutability": "nonpayable",
      "type": "function"
    },
    {
      "constant": true,
      "inputs": [
        {
          "name": "_pollID",
          "type": "uint256"
        }
      ],
      "name": "result",
      "outputs": [
        {
          "name": "passed",
          "type": "bool"
        }
      ],
      "payable": false,
      "stateMutability": "view",
      "type": "function"
    },
    {
      "constant": true,
      "inputs": [
        {
          "name": "_pollId",
          "type": "uint256"
        }
      ],
      "name": "getOverallStake",
      "outputs": [
        {
          "name": "",
          "type": "uint256"
        }
      ],
      "payable": false,
      "stateMutability": "view",
      "type": "function"
    },
    {
      "constant": true,
      "inputs": [
        {
          "name": "_pollId",
          "type": "uint256"
        },
        {
          "name": "voter",
          "type": "address"
        }
      ],
      "name": "isWinner",
      "outputs": [
        {
          "name": "",
          "type": "bool"
        }
      ],
      "payable": false,
      "stateMutability": "view",
      "type": "function"
    },
    {
      "constant": true,
      "inputs": [
        {
          "name": "_pollID",
          "type": "uint256"
        }
      ],
      "name": "getTotalNumberOfTokensForWinningOption",
      "outputs": [
        {
          "name": "numTokens",
          "type": "uint256"
        }
      ],
      "payable": false,
      "stateMutability": "view",
      "type": "function"
    },
    {
      "constant": true,
      "inputs": [
        {
          "name": "_pollID",
          "type": "uint256"
        }
      ],
      "name": "pollInfo",
      "outputs": [
        {
          "name": "commitEndDate",
          "type": "uint256"
        },
        {
          "name": "revealEndDate",
          "type": "uint256"
        },
        {
          "name": "voteQuorum",
          "type": "uint256"
        },
        {
          "name": "votesFor",
          "type": "uint256"
        },
        {
          "name": "votesAgainst",
          "type": "uint256"
        },
        {
          "name": "commitPeriodActive_",
          "type": "bool"
        },
        {
          "name": "revealPeriodActive_",
          "type": "bool"
        }
      ],
      "payable": false,
      "stateMutability": "view",
      "type": "function"
    },
    {
      "constant": true,
      "inputs": [
        {
          "name": "_pollID",
          "type": "uint256"
        }
      ],
      "name": "pollEnded",
      "outputs": [
        {
          "name": "ended",
          "type": "bool"
        }
      ],
      "payable": false,
      "stateMutability": "view",
      "type": "function"
    },
    {
      "constant": true,
      "inputs": [
        {
          "name": "_pollID",
          "type": "uint256"
        }
      ],
      "name": "commitPeriodActive",
      "outputs": [
        {
          "name": "active",
          "type": "bool"
        }
      ],
      "payable": false,
      "stateMutability": "view",
      "type": "function"
    },
    {
      "constant": true,
      "inputs": [
        {
          "name": "_pollID",
          "type": "uint256"
        }
      ],
      "name": "revealPeriodActive",
      "outputs": [
        {
          "name": "active",
          "type": "bool"
        }
      ],
      "payable": false,
      "stateMutability": "view",
      "type": "function"
    },
    {
      "constant": true,
      "inputs": [
        {
          "name": "_voter",
          "type": "address"
        },
        {
          "name": "_pollID",
          "type": "uint256"
        }
      ],
      "name": "didCommit",
      "outputs": [
        {
          "name": "committed",
          "type": "bool"
        }
      ],
      "payable": false,
      "stateMutability": "view",
      "type": "function"
    },
    {
      "constant": true,
      "inputs": [
        {
          "name": "_voter",
          "type": "address"
        },
        {
          "name": "_pollID",
          "type": "uint256"
        }
      ],
      "name": "didReveal",
      "outputs": [
        {
          "name": "revealed",
          "type": "bool"
        }
      ],
      "payable": false,
      "stateMutability": "view",
      "type": "function"
    },
    {
      "constant": true,
      "inputs": [
        {
          "name": "_pollID",
          "type": "uint256"
        }
      ],
      "name": "pollExists",
      "outputs": [
        {
          "name": "exists",
          "type": "bool"
        }
      ],
      "payable": false,
      "stateMutability": "view",
      "type": "function"
    },
    {
      "constant": true,
      "inputs": [
        {
          "name": "_voter",
          "type": "address"
        },
        {
          "name": "_pollID",
          "type": "uint256"
        }
      ],
      "name": "getCommitHash",
      "outputs": [
        {
          "name": "commitHash",
          "type": "bytes32"
        }
      ],
      "payable": false,
      "stateMutability": "view",
      "type": "function"
    },
    {
      "constant": true,
      "inputs": [
        {
          "name": "_voter",
          "type": "address"
        },
        {
          "name": "_pollID",
          "type": "uint256"
        }
      ],
      "name": "getNumTokens",
      "outputs": [
        {
          "name": "numTokens",
          "type": "uint256"
        }
      ],
      "payable": false,
      "stateMutability": "view",
      "type": "function"
    },
    {
      "constant": true,
      "inputs": [
        {
          "name": "_terminationDate",
          "type": "uint256"
        }
      ],
      "name": "isExpired",
      "outputs": [
        {
          "name": "expired",
          "type": "bool"
        }
      ],
      "payable": false,
      "stateMutability": "view",
      "type": "function"
    },
    {
      "constant": true,
      "inputs": [
        {
          "name": "_user",
          "type": "address"
        },
        {
          "name": "_pollID",
          "type": "uint256"
        }
      ],
      "name": "attrUUID",
      "outputs": [
        {
          "name": "UUID",
          "type": "bytes32"
        }
      ],
      "payable": false,
      "stateMutability": "pure",
      "type": "function"
    }
  ],
  "bytecode": "0x608060405234801561001057600080fd5b50610fb1806100206000396000f3006080604052600436106101275763ffffffff7c0100000000000000000000000000000000000000000000000000000000600035041663053e71a6811461012c57806332ed3d601461015657806336dbd853146101745780633c594059146101a357806340e76fc4146101cf578063441c77c0146102235780635135d91f1461023b5780636148fed5146102535780637b103999146102965780637f97e836146102c757806388d21ff3146102eb57806391d522f41461030357806397508f361461032a578063a1103f371461033f578063a4439dc514610363578063aa7ca4641461037b578063bdd415af1461039f578063d1382092146103c3578063d901402b146103e7578063d9548e531461040b578063ee68483014610423578063f1e300bb1461043b575b600080fd5b34801561013857600080fd5b5061014460043561045c565b60408051918252519081900360200190f35b34801561016257600080fd5b50610144600435602435604435610506565b34801561018057600080fd5b506101a1600435602435604435606435600160a060020a03608435166105fc565b005b3480156101af57600080fd5b506101bb60043561086f565b604080519115158252519081900360200190f35b3480156101db57600080fd5b506101e76004356108b3565b6040805197885260208801969096528686019490945260608601929092526080850152151560a0840152151560c0830152519081900360e00190f35b34801561022f57600080fd5b506101bb600435610905565b34801561024757600080fd5b5061014460043561094f565b34801561025f57600080fd5b5061026b600435610985565b6040805195865260208601949094528484019290925260608401526080830152519081900360a00190f35b3480156102a257600080fd5b506102ab6109b4565b60408051600160a060020a039092168252519081900360200190f35b3480156102d357600080fd5b506101bb600160a060020a03600435166024356109c3565b3480156102f757600080fd5b506101bb600435610a06565b34801561030f57600080fd5b506101a1600435602435600160a060020a0360443516610a1b565b34801561033657600080fd5b50610144610b18565b34801561034b57600080fd5b50610144600160a060020a0360043516602435610b1e565b34801561036f57600080fd5b506101bb600435610bbc565b34801561038757600080fd5b506101bb600160a060020a0360043516602435610bea565b3480156103ab57600080fd5b506101bb600435600160a060020a0360243516610c2d565b3480156103cf57600080fd5b50610144600160a060020a0360043516602435610d38565b3480156103f357600080fd5b50610144600160a060020a0360043516602435610d8a565b34801561041757600080fd5b506101bb600435610ddc565b34801561042f57600080fd5b506101bb600435610dee565b34801561044757600080fd5b506101a1600160a060020a0360043516610e1f565b60008181526020818152604080832081517f3c59405900000000000000000000000000000000000000000000000000000000815260048101869052915190923092633c594059926024808301939282900301818887803b1580156104bf57600080fd5b505af11580156104d3573d6000803e3d6000fd5b505050506040513d60208110156104e957600080fd5b50516104f95780600401546104ff565b80600301545b9392505050565b60025460009081908190600160a060020a0316331461052457600080fd5b600180548101905561054485610538610e79565b9063ffffffff610e7d16565b9150610556828563ffffffff610e7d16565b6040805160a08101825284815260208082018481528284018b815260006060850181815260808601828152600180548452838752928890209651875593518683015591516002860155905160038501559051600490930192909255905482518681529182018490528251939450927f0fb3f5c47b2720de38c32cdae8b4e89f4ba01ea5167589b854c6899185615782929181900390910190a25050600154949350505050565b600254600090600160a060020a0316331461061657600080fd5b61061f86610905565b151561062a57600080fd5b600086815260208181526040808320600160a060020a038616845260050190915290205460ff16151561065c57600080fd5b600086815260208181526040808320600160a060020a038616845260060190915290205460ff161561068d57600080fd5b6106978287610d8a565b604080516020808201899052818301889052606080830188905283518084039091018152608090920192839052815191929182918401908083835b602083106106f15780518252601f1990920191602091820191016106d2565b6001836020036101000a03801982511681845116808217855250505050505090500191505060405180910390206000191614151561072e57600080fd5b6107388287610b1e565b90506107448287610d38565b1561074b57fe5b60408051808201909152600981527f6e756d546f6b656e73000000000000000000000000000000000000000000000060208201526107949060039083908763ffffffff610e8a16565b84600114156107b95760008681526020819052604090206003018054850190556107d1565b60008681526020819052604090206004018054850190555b600086815260208181526040808320600160a060020a038616808552600682018452828520805460ff191660011790558085526007820184528285208a90558a85529383526003810154600490910154825189815293840191909152828201526060820186905251879189917f9b19aaec524fad29c0ced9b9973a15e3045d7c3be156d71394ab40f0d5f119ff9181900360800190a4505050505050565b60008061087b83610dee565b151561088657600080fd5b50506000908152602081905260409020600481015460038201546002909201549082010260649091021190565b6000818152602081905260408120805460018201546002830154600384015460048501549395929491939092909181906108ec89610bbc565b92506108f789610905565b915050919395979092949650565b600061091082610a06565b151561091b57600080fd5b60008281526020819052604090206001015461093690610ddc565b158015610949575061094782610bbc565b155b92915050565b60008061095b83610a06565b151561096657600080fd5b5050600090815260208190526040902060048101546003909101540190565b600060208190529081526040902080546001820154600283015460038401546004909401549293919290919085565b600254600160a060020a031681565b60006109ce82610a06565b15156109d957600080fd5b50600090815260208181526040808320600160a060020a0394909416835260059093019052205460ff1690565b60008115801590610949575050600154101590565b600254600090600160a060020a03163314610a3557600080fd5b610a3e84610bbc565b1515610a4957600080fd5b831515610a5557600080fd5b821515610a6157600080fd5b610a6b8285610b1e565b60408051808201909152600a81527f636f6d6d697448617368000000000000000000000000000000000000000000006020820152909150610ab79060039083908663ffffffff610e8a16565b600084815260208181526040808320600160a060020a0386168085526005909101909252808320805460ff1916600117905551909186917f4199e129668e1d5c4fec4f85901506bf0957531d933d17b0b1843e7e3d37f3639190a350505050565b60015481565b600082826040516020018083600160a060020a0316600160a060020a03168152602001828152602001925050506040516020818303038152906040526040518082805190602001908083835b60208310610b895780518252601f199092019160209182019101610b6a565b5181516020939093036101000a600019018019909116921691909117905260405192018290039091209695505050505050565b6000610bc782610a06565b1515610bd257600080fd5b60008281526020819052604090205461094790610ddc565b6000610bf582610a06565b1515610c0057600080fd5b50600090815260208181526040808320600160a060020a0394909416835260069093019052205460ff1690565b6000806000610c3b85610dee565b1515610c4657600080fd5b600085815260208181526040808320600160a060020a0388168452600681019092529091205490925060ff161515610c815760009250610d30565b50600160a060020a038316600090815260078201602090815260408083205481517f3c5940590000000000000000000000000000000000000000000000000000000081526004810189905291516001909114933093633c594059936024808201949293918390030190829087803b158015610cfb57600080fd5b505af1158015610d0f573d6000803e3d6000fd5b505050506040513d6020811015610d2557600080fd5b505115158115151492505b505092915050565b60006104ff610d478484610b1e565b60408051808201909152600981527f6e756d546f6b656e73000000000000000000000000000000000000000000000060208201526003919063ffffffff610f0716565b60006104ff610d998484610b1e565b60408051808201909152600a81527f636f6d6d6974486173680000000000000000000000000000000000000000000060208201526003919063ffffffff610f0716565b600081610de7610e79565b1192915050565b6000610df982610a06565b1515610e0457600080fd5b60008281526020819052604090206001015461094990610ddc565b600160a060020a0381161515610e3457600080fd5b600254600160a060020a031615610e4a57600080fd5b6002805473ffffffffffffffffffffffffffffffffffffffff1916600160a060020a0392909216919091179055565b4290565b8181018281101561094957fe5b60405183815282516000918591859190602080830191908401908083835b60208310610ec75780518252601f199092019160209182019101610ea8565b51815160209384036101000a6000190180199092169116179052604080519290940182900390912060009081529a90525090972093909355505050505050565b6040518281528151600091829185918591602080830191908401908083835b60208310610f455780518252601f199092019160209182019101610f26565b51815160209384036101000a6000190180199092169116179052604080519290940182900390912060009081529a905250909720549796505050505050505600a165627a7a72305820c0ef263b6ee66ada9832d192b15a8786239124af2a16b5a4a21f032df8d8e84a0029",
  "source": "pragma solidity ^0.4.24;\n\nimport \"./AttributeStore.sol\";\nimport \"zeppelin-solidity/contracts/math/SafeMath.sol\";\nimport \"./IVoting.sol\";\n/**\n@title Partial-Lock-Commit-Reveal Voting scheme with ERC20 tokens\n@author Team: Aspyn Palatnick, Cem Ozer, Yorke Rhodes\n*/\ncontract Voting is IVoting {\n\n\n    // ============\n    // EVENTS:\n    // ============\n\n    event _VoteCommitted(uint indexed pollID, address indexed voter);\n    event _VoteRevealed(uint indexed pollID, uint numTokens, uint votesFor, uint votesAgainst, uint indexed choice, address indexed voter, uint salt);\n    event _PollCreated(uint commitEndDate, uint revealEndDate, uint indexed pollID);\n    event _VotingRightsGranted(uint numTokens, address indexed voter);\n    event _VotingRightsWithdrawn(uint numTokens, address indexed voter);\n    event _TokensRescued(uint indexed pollID, address indexed voter);\n    event _StakeWithdrawed(uint indexed pollID, address indexed voter, uint numTokens);\n\n    // ============\n    // MODIFIERS:\n    // ============\n\n    modifier onlyRegistry {\n        require(msg.sender == registry);\n        _;\n    }\n\n    // ============\n    // DATA STRUCTURES:\n    // ============\n\n    using AttributeStore for AttributeStore.Data;\n    using SafeMath for uint;\n\n    mapping(uint => Poll) public pollMap; // maps pollID to Poll struct\n\n    struct Poll {\n        uint commitEndDate;     /// expiration date of commit period for poll\n        uint revealEndDate;     /// expiration date of reveal period for poll\n        uint voteQuorum;\t    /// number of votes required for a proposal to pass\n        uint votesFor;          /// tally of votes supporting proposal\n        uint votesAgainst;      /// tally of votes countering proposal\n        mapping(address => bool) didCommit;   /// indicates whether an address committed a vote for this poll\n        mapping(address => bool) didReveal;   /// indicates whether an address revealed a vote for this poll\n        mapping(address => uint) voteOptions; /// stores the voteOption of an address that revealed\n    }\n\n    // ============\n    // STATE VARIABLES:\n    // ============\n\n    uint public pollNonce;\n    address public registry;\n\n    AttributeStore.Data store;\n\n    function set_registry(address registry_) external {\n        require(registry_ != address(0));\n        require(registry == address(0));\n\n        registry = registry_;\n    }\n\n    // =================\n    // VOTING INTERFACE:\n    // =================\n    /**\n    @notice Commits vote using hash of choice and secret salt to conceal vote until reveal\n    @param _pollID Integer identifier associated with target poll\n    @param _secretHash Commit keccak256 hash of voter's choice and salt (tightly packed in this order)\n    */\n    function commitVote(uint _pollID, bytes32 _secretHash, address voter) external onlyRegistry {\n        require(commitPeriodActive(_pollID));\n\n        // prevent user from committing to zero node placeholder\n        require(_pollID != 0);\n        // prevent user from committing a secretHash of 0\n        require(_secretHash != 0);\n\n        bytes32 UUID = attrUUID(voter, _pollID);\n\n        store.setAttribute(UUID, \"commitHash\", uint(_secretHash));\n\n        pollMap[_pollID].didCommit[voter] = true;\n\n        emit _VoteCommitted(_pollID, voter);\n    }\n\n\n    /**\n    @notice Reveals vote with choice and secret salt used in generating commitHash to attribute committed tokens\n    @param _pollID Integer identifier associated with target poll\n    @param _voteOption Vote choice used to generate commitHash for associated poll\n    @param _salt Secret number used to generate commitHash for associated poll\n    */\n\n    function revealVote(uint _pollID, uint _voteOption, uint _voteStake, uint _salt, address _voter) external onlyRegistry {\n\n        // Make sure the reveal period is active\n        require(revealPeriodActive(_pollID));\n        require(pollMap[_pollID].didCommit[_voter]);                         // make sure user has committed a vote for this poll\n        require(!pollMap[_pollID].didReveal[_voter]);                        // prevent user from revealing multiple times\n        require(keccak256(abi.encode(_voteOption, _voteStake, _salt)) == getCommitHash(_voter, _pollID)); // compare resultant hash from inputs to original commitHash\n\n        //  uint numTokens = getNumTokens(msg.sender, _pollID);\n        bytes32 UUID = attrUUID(_voter, _pollID);\n\n        assert(0 == getNumTokens(_voter, _pollID));\n        store.setAttribute(UUID, \"numTokens\", _voteStake);\n\n        if (_voteOption == 1) {// apply numTokens to appropriate poll choice\n            pollMap[_pollID].votesFor += _voteStake;\n        } else {\n            pollMap[_pollID].votesAgainst += _voteStake;\n        }\n\n        pollMap[_pollID].didReveal[_voter] = true;\n        pollMap[_pollID].voteOptions[_voter] = _voteOption;\n\n        emit _VoteRevealed(_pollID, _voteStake, pollMap[_pollID].votesFor, pollMap[_pollID].votesAgainst, _voteOption, _voter, _salt);\n    }\n\n\n    // ==================\n    // POLLING INTERFACE:\n    // ==================\n\n    /**\n    @dev Initiates a poll with canonical configured parameters at pollID emitted by PollCreated event\n    @param _commitDuration Length of desired commit period in seconds\n    @param _revealDuration Length of desired reveal period in seconds\n    */\n    function startPoll(uint voteQuorum, uint _commitDuration, uint _revealDuration) external onlyRegistry returns (uint pollID) {\n        pollNonce = pollNonce + 1;\n\n        uint commitEndDate = time().add(_commitDuration);\n        uint revealEndDate = commitEndDate.add(_revealDuration);\n\n        pollMap[pollNonce] = Poll({\n            voteQuorum: voteQuorum,\n            commitEndDate: commitEndDate,\n            revealEndDate: revealEndDate,\n            votesFor: 0,\n            votesAgainst: 0\n        });\n\n        emit _PollCreated(commitEndDate, revealEndDate, pollNonce);\n        return pollNonce;\n    }\n\n    /**\n    @notice Determines if proposal has passed\n    @dev Check if votesFor out of totalVotes exceeds votesQuorum (requires pollEnded)\n    @param _pollID Integer identifier associated with target poll\n    */\n    function result(uint _pollID) external view returns (bool passed) {\n        require(pollEnded(_pollID));\n\n        Poll storage poll = pollMap[_pollID];\n        return (100 * poll.votesFor) > (poll.voteQuorum * (poll.votesFor + poll.votesAgainst));\n    }\n\n    function getOverallStake(uint _pollId) external view returns (uint) {\n        require(pollExists(_pollId));\n        Poll storage poll = pollMap[_pollId];\n        return poll.votesFor + poll.votesAgainst;\n    }\n\n    function isWinner(uint _pollId, address voter) external view returns (bool) {\n        require(pollEnded(_pollId));\n        Poll storage poll = pollMap[_pollId];\n\n        if (!poll.didReveal[voter])\n            return false;\n\n        bool vote = poll.voteOptions[voter] == 1;\n\n        return vote == this.result(_pollId);\n    }\n\n    function getTotalNumberOfTokensForWinningOption(uint _pollID) constant external returns (uint numTokens) {\n        Poll storage poll = pollMap[_pollID];\n        return this.result(_pollID) ? poll.votesFor : poll.votesAgainst;\n    }\n\n\n    // ----------------\n    // POLLING HELPERS:\n    // ----------------\n\n    function pollInfo(uint _pollID) external view returns\n        (uint commitEndDate,\n        uint revealEndDate,\n        uint voteQuorum,\n        uint votesFor,\n        uint votesAgainst,\n        bool commitPeriodActive_,\n        bool revealPeriodActive_)\n    {\n        Poll storage poll = pollMap[_pollID];\n        commitEndDate = poll.commitEndDate;\n        revealEndDate = poll.revealEndDate;\n        voteQuorum = poll.voteQuorum;\n        votesFor = poll.votesFor;\n        votesAgainst = poll.votesAgainst;\n        commitPeriodActive_ = commitPeriodActive(_pollID);\n        revealPeriodActive_ = revealPeriodActive(_pollID);\n    }\n\n    /**\n    @notice Determines if poll is over\n    @dev Checks isExpired for specified poll's revealEndDate\n    @return Boolean indication of whether polling period is over\n    */\n    function pollEnded(uint _pollID) constant public returns (bool ended) {\n        require(pollExists(_pollID));\n\n        return isExpired(pollMap[_pollID].revealEndDate);\n    }\n\n    /**\n    @notice Checks if the commit period is still active for the specified poll\n    @dev Checks isExpired for the specified poll's commitEndDate\n    @param _pollID Integer identifier associated with target poll\n    @return Boolean indication of isCommitPeriodActive for target poll\n    */\n    function commitPeriodActive(uint _pollID) constant public returns (bool active) {\n        require(pollExists(_pollID));\n\n        return !isExpired(pollMap[_pollID].commitEndDate);\n    }\n\n    /**\n    @notice Checks if the reveal period is still active for the specified poll\n    @dev Checks isExpired for the specified poll's revealEndDate\n    @param _pollID Integer identifier associated with target poll\n    */\n    function revealPeriodActive(uint _pollID) constant public returns (bool active) {\n        require(pollExists(_pollID));\n\n        return !isExpired(pollMap[_pollID].revealEndDate) && !commitPeriodActive(_pollID);\n    }\n\n    /**\n    @dev Checks if user has committed for specified poll\n    @param _voter Address of user to check against\n    @param _pollID Integer identifier associated with target poll\n    @return Boolean indication of whether user has committed\n    */\n    function didCommit(address _voter, uint _pollID) constant public returns (bool committed) {\n        require(pollExists(_pollID));\n\n        return pollMap[_pollID].didCommit[_voter];\n    }\n\n    /**\n    @dev Checks if user has revealed for specified poll\n    @param _voter Address of user to check against\n    @param _pollID Integer identifier associated with target poll\n    @return Boolean indication of whether user has revealed\n    */\n    function didReveal(address _voter, uint _pollID) constant public returns (bool revealed) {\n        require(pollExists(_pollID));\n\n        return pollMap[_pollID].didReveal[_voter];\n    }\n\n    /**\n    @dev Checks if a poll exists\n    @param _pollID The pollID whose existance is to be evaluated.\n    @return Boolean Indicates whether a poll exists for the provided pollID\n    */\n    function pollExists(uint _pollID) constant public returns (bool exists) {\n        return (_pollID != 0 && _pollID <= pollNonce);\n    }\n\n    // ---------------------------\n    // DOUBLE-LINKED-LIST HELPERS:\n    // ---------------------------\n\n    /**\n    @dev Gets the bytes32 commitHash property of target poll\n    @param _voter Address of user to check against\n    @param _pollID Integer identifier associated with target poll\n    @return Bytes32 hash property attached to target poll\n    */\n    function getCommitHash(address _voter, uint _pollID) constant public returns (bytes32 commitHash) {\n        return bytes32(store.getAttribute(attrUUID(_voter, _pollID), \"commitHash\"));\n    }\n\n    /**\n    @dev Wrapper for getAttribute with attrName=\"numTokens\"\n    @param _voter Address of user to check against\n    @param _pollID Integer identifier associated with target poll\n    @return Number of tokens committed to poll in sorted poll-linked-list\n    */\n    function getNumTokens(address _voter, uint _pollID) constant public returns (uint numTokens) {\n        return store.getAttribute(attrUUID(_voter, _pollID), \"numTokens\");\n    }\n\n\n\n\n\n    // ----------------\n    // GENERAL HELPERS:\n    // ----------------\n\n    /**\n    @dev Checks if an expiration date has been reached\n    @param _terminationDate Integer timestamp of date to compare current timestamp with\n    @return expired Boolean indication of whether the terminationDate has passed\n    */\n    function isExpired(uint _terminationDate) constant public returns (bool expired) {\n        return (time() > _terminationDate);\n    }\n\n    /**\n    @dev Generates an identifier which associates a user and a poll together\n    @param _pollID Integer identifier associated with target poll\n    @return UUID Hash which is deterministic from _user and _pollID\n    */\n    function attrUUID(address _user, uint _pollID) public pure returns (bytes32 UUID) {\n        return keccak256(abi.encode(_user, _pollID));\n    }\n\n    // ----------------\n    // FOR UNIT TESTING:\n    // ----------------\n\n    function time() internal view returns (uint) {\n        return now;\n    }\n}\n",
  "sourcePath": "/home/algys/sources/dapp-tcr/contracts/Voting.sol",
  "compiler": {
    "name": "solc",
    "version": "0.4.24+commit.e67f0147.Emscripten.clang"
  },
  "schemaVersion": "2.0.1",
  "updatedAt": "2018-10-28T06:09:45.489Z"
}