{
  "contractName": "Voting",
  "abi": [
    {
      "constant": true,
      "inputs": [],
      "name": "INITIAL_POLL_NONCE",
      "outputs": [
        {
          "name": "",
          "type": "uint256"
        }
      ],
      "payable": false,
      "stateMutability": "view",
      "type": "function"
    },
    {
      "constant": true,
      "inputs": [
        {
          "name": "",
          "type": "uint256"
        }
      ],
      "name": "pollMap",
      "outputs": [
        {
          "name": "commitEndDate",
          "type": "uint256"
        },
        {
          "name": "revealEndDate",
          "type": "uint256"
        },
        {
          "name": "votesFor",
          "type": "uint256"
        },
        {
          "name": "votesAgainst",
          "type": "uint256"
        }
      ],
      "payable": false,
      "stateMutability": "view",
      "type": "function"
    },
    {
      "constant": true,
      "inputs": [],
      "name": "registry",
      "outputs": [
        {
          "name": "",
          "type": "address"
        }
      ],
      "payable": false,
      "stateMutability": "view",
      "type": "function"
    },
    {
      "constant": true,
      "inputs": [],
      "name": "pollNonce",
      "outputs": [
        {
          "name": "",
          "type": "uint256"
        }
      ],
      "payable": false,
      "stateMutability": "view",
      "type": "function"
    },
    {
      "inputs": [],
      "payable": false,
      "stateMutability": "nonpayable",
      "type": "constructor"
    },
    {
      "anonymous": false,
      "inputs": [
        {
          "indexed": true,
          "name": "pollID",
          "type": "uint256"
        },
        {
          "indexed": true,
          "name": "voter",
          "type": "address"
        }
      ],
      "name": "_VoteCommitted",
      "type": "event"
    },
    {
      "anonymous": false,
      "inputs": [
        {
          "indexed": true,
          "name": "pollID",
          "type": "uint256"
        },
        {
          "indexed": false,
          "name": "numTokens",
          "type": "uint256"
        },
        {
          "indexed": false,
          "name": "votesFor",
          "type": "uint256"
        },
        {
          "indexed": false,
          "name": "votesAgainst",
          "type": "uint256"
        },
        {
          "indexed": true,
          "name": "choice",
          "type": "uint256"
        },
        {
          "indexed": true,
          "name": "voter",
          "type": "address"
        },
        {
          "indexed": false,
          "name": "salt",
          "type": "uint256"
        }
      ],
      "name": "_VoteRevealed",
      "type": "event"
    },
    {
      "anonymous": false,
      "inputs": [
        {
          "indexed": false,
          "name": "commitEndDate",
          "type": "uint256"
        },
        {
          "indexed": false,
          "name": "revealEndDate",
          "type": "uint256"
        },
        {
          "indexed": true,
          "name": "pollID",
          "type": "uint256"
        },
        {
          "indexed": true,
          "name": "creator",
          "type": "address"
        }
      ],
      "name": "_PollCreated",
      "type": "event"
    },
    {
      "anonymous": false,
      "inputs": [
        {
          "indexed": false,
          "name": "numTokens",
          "type": "uint256"
        },
        {
          "indexed": true,
          "name": "voter",
          "type": "address"
        }
      ],
      "name": "_VotingRightsGranted",
      "type": "event"
    },
    {
      "anonymous": false,
      "inputs": [
        {
          "indexed": false,
          "name": "numTokens",
          "type": "uint256"
        },
        {
          "indexed": true,
          "name": "voter",
          "type": "address"
        }
      ],
      "name": "_VotingRightsWithdrawn",
      "type": "event"
    },
    {
      "anonymous": false,
      "inputs": [
        {
          "indexed": true,
          "name": "pollID",
          "type": "uint256"
        },
        {
          "indexed": true,
          "name": "voter",
          "type": "address"
        }
      ],
      "name": "_TokensRescued",
      "type": "event"
    },
    {
      "anonymous": false,
      "inputs": [
        {
          "indexed": true,
          "name": "pollID",
          "type": "uint256"
        },
        {
          "indexed": true,
          "name": "voter",
          "type": "address"
        },
        {
          "indexed": false,
          "name": "numTokens",
          "type": "uint256"
        }
      ],
      "name": "_StakeWithdrawed",
      "type": "event"
    },
    {
      "constant": false,
      "inputs": [
        {
          "name": "registry_",
          "type": "address"
        }
      ],
      "name": "set_registry",
      "outputs": [],
      "payable": false,
      "stateMutability": "nonpayable",
      "type": "function"
    },
    {
      "constant": false,
      "inputs": [
        {
          "name": "_pollID",
          "type": "uint256"
        },
        {
          "name": "_secretHash",
          "type": "bytes32"
        },
        {
          "name": "voter",
          "type": "address"
        }
      ],
      "name": "commitVote",
      "outputs": [],
      "payable": false,
      "stateMutability": "nonpayable",
      "type": "function"
    },
    {
      "constant": false,
      "inputs": [
        {
          "name": "_pollID",
          "type": "uint256"
        },
        {
          "name": "_voteOption",
          "type": "uint256"
        },
        {
          "name": "_voteStake",
          "type": "uint256"
        },
        {
          "name": "_salt",
          "type": "uint256"
        },
        {
          "name": "_voter",
          "type": "address"
        }
      ],
      "name": "revealVote",
      "outputs": [],
      "payable": false,
      "stateMutability": "nonpayable",
      "type": "function"
    },
    {
      "constant": false,
      "inputs": [
        {
          "name": "voteQuorum",
          "type": "uint256"
        },
        {
          "name": "_commitDuration",
          "type": "uint256"
        },
        {
          "name": "_revealDuration",
          "type": "uint256"
        }
      ],
      "name": "startPoll",
      "outputs": [
        {
          "name": "pollID",
          "type": "uint256"
        }
      ],
      "payable": false,
      "stateMutability": "nonpayable",
      "type": "function"
    },
    {
      "constant": true,
      "inputs": [
        {
          "name": "_pollID",
          "type": "uint256"
        }
      ],
      "name": "result",
      "outputs": [
        {
          "name": "passed",
          "type": "bool"
        }
      ],
      "payable": false,
      "stateMutability": "view",
      "type": "function"
    },
    {
      "constant": true,
      "inputs": [
        {
          "name": "_pollId",
          "type": "uint256"
        }
      ],
      "name": "getPollResult",
      "outputs": [
        {
          "name": "votesFor",
          "type": "uint256"
        },
        {
          "name": "votesAgainst",
          "type": "uint256"
        }
      ],
      "payable": false,
      "stateMutability": "view",
      "type": "function"
    },
    {
      "constant": false,
      "inputs": [
        {
          "name": "_pollId",
          "type": "uint256"
        }
      ],
      "name": "getOverallStake",
      "outputs": [
        {
          "name": "",
          "type": "uint256"
        }
      ],
      "payable": false,
      "stateMutability": "nonpayable",
      "type": "function"
    },
    {
      "constant": false,
      "inputs": [
        {
          "name": "_pollId",
          "type": "uint256"
        },
        {
          "name": "voter",
          "type": "address"
        }
      ],
      "name": "isWinner",
      "outputs": [
        {
          "name": "",
          "type": "bool"
        }
      ],
      "payable": false,
      "stateMutability": "nonpayable",
      "type": "function"
    },
    {
      "constant": true,
      "inputs": [
        {
          "name": "_pollID",
          "type": "uint256"
        }
      ],
      "name": "pollEnded",
      "outputs": [
        {
          "name": "ended",
          "type": "bool"
        }
      ],
      "payable": false,
      "stateMutability": "view",
      "type": "function"
    },
    {
      "constant": true,
      "inputs": [
        {
          "name": "_pollID",
          "type": "uint256"
        }
      ],
      "name": "commitPeriodActive",
      "outputs": [
        {
          "name": "active",
          "type": "bool"
        }
      ],
      "payable": false,
      "stateMutability": "view",
      "type": "function"
    },
    {
      "constant": true,
      "inputs": [
        {
          "name": "_pollID",
          "type": "uint256"
        }
      ],
      "name": "revealPeriodActive",
      "outputs": [
        {
          "name": "active",
          "type": "bool"
        }
      ],
      "payable": false,
      "stateMutability": "view",
      "type": "function"
    },
    {
      "constant": true,
      "inputs": [
        {
          "name": "_voter",
          "type": "address"
        },
        {
          "name": "_pollID",
          "type": "uint256"
        }
      ],
      "name": "didCommit",
      "outputs": [
        {
          "name": "committed",
          "type": "bool"
        }
      ],
      "payable": false,
      "stateMutability": "view",
      "type": "function"
    },
    {
      "constant": true,
      "inputs": [
        {
          "name": "_voter",
          "type": "address"
        },
        {
          "name": "_pollID",
          "type": "uint256"
        }
      ],
      "name": "didReveal",
      "outputs": [
        {
          "name": "revealed",
          "type": "bool"
        }
      ],
      "payable": false,
      "stateMutability": "view",
      "type": "function"
    },
    {
      "constant": true,
      "inputs": [
        {
          "name": "_pollID",
          "type": "uint256"
        }
      ],
      "name": "pollExists",
      "outputs": [
        {
          "name": "exists",
          "type": "bool"
        }
      ],
      "payable": false,
      "stateMutability": "view",
      "type": "function"
    },
    {
      "constant": true,
      "inputs": [
        {
          "name": "_voter",
          "type": "address"
        },
        {
          "name": "_pollID",
          "type": "uint256"
        }
      ],
      "name": "getCommitHash",
      "outputs": [
        {
          "name": "commitHash",
          "type": "bytes32"
        }
      ],
      "payable": false,
      "stateMutability": "view",
      "type": "function"
    },
    {
      "constant": true,
      "inputs": [
        {
          "name": "_voter",
          "type": "address"
        },
        {
          "name": "_pollID",
          "type": "uint256"
        }
      ],
      "name": "getNumTokens",
      "outputs": [
        {
          "name": "numTokens",
          "type": "uint256"
        }
      ],
      "payable": false,
      "stateMutability": "view",
      "type": "function"
    },
    {
      "constant": true,
      "inputs": [
        {
          "name": "_terminationDate",
          "type": "uint256"
        }
      ],
      "name": "isExpired",
      "outputs": [
        {
          "name": "expired",
          "type": "bool"
        }
      ],
      "payable": false,
      "stateMutability": "view",
      "type": "function"
    },
    {
      "constant": true,
      "inputs": [
        {
          "name": "_user",
          "type": "address"
        },
        {
          "name": "_pollID",
          "type": "uint256"
        }
      ],
      "name": "attrUUID",
      "outputs": [
        {
          "name": "UUID",
          "type": "bytes32"
        }
      ],
      "payable": false,
      "stateMutability": "pure",
      "type": "function"
    }
  ],
  "bytecode": "0x608060405234801561001057600080fd5b506000600155610e6c806100256000396000f3006080604052600436106101275763ffffffff7c01000000000000000000000000000000000000000000000000000000006000350416632173a10f811461012c57806332ed3d601461015357806336dbd853146101715780633c594059146101a0578063441c77c0146101cc5780635135d91f146101e45780636148fed5146101fc5780637b1039991461023a5780637f97e8361461026b57806388d21ff31461028f57806391d522f4146102a757806397508f36146102ce578063a1103f37146102e3578063a4439dc514610307578063aa7ca4641461031f578063bdd415af14610343578063c888fcc314610367578063d138209214610398578063d901402b146103bc578063d9548e53146103e0578063ee684830146103f8578063f1e300bb14610410575b600080fd5b34801561013857600080fd5b50610141610431565b60408051918252519081900360200190f35b34801561015f57600080fd5b50610141600435602435604435610436565b34801561017d57600080fd5b5061019e600435602435604435606435600160a060020a03608435166104fb565b005b3480156101ac57600080fd5b506101b860043561076f565b604080519115158252519081900360200190f35b3480156101d857600080fd5b506101b86004356107a5565b3480156101f057600080fd5b506101416004356107ef565b34801561020857600080fd5b50610214600435610825565b604080519485526020850193909352838301919091526060830152519081900360800190f35b34801561024657600080fd5b5061024f61084c565b60408051600160a060020a039092168252519081900360200190f35b34801561027757600080fd5b506101b8600160a060020a036004351660243561085b565b34801561029b57600080fd5b506101b860043561089e565b3480156102b357600080fd5b5061019e600435602435600160a060020a03604435166108b3565b3480156102da57600080fd5b50610141610998565b3480156102ef57600080fd5b50610141600160a060020a036004351660243561099e565b34801561031357600080fd5b506101b8600435610a4b565b34801561032b57600080fd5b506101b8600160a060020a0360043516602435610a79565b34801561034f57600080fd5b506101b8600435600160a060020a0360243516610abc565b34801561037357600080fd5b5061037f600435610bc7565b6040805192835260208301919091528051918290030190f35b3480156103a457600080fd5b50610141600160a060020a0360043516602435610bfd565b3480156103c857600080fd5b50610141600160a060020a0360043516602435610c56565b3480156103ec57600080fd5b506101b8600435610ca8565b34801561040457600080fd5b506101b8600435610cad565b34801561041c57600080fd5b5061019e600160a060020a0360043516610cde565b600081565b600180548101905560008080610452428663ffffffff610d3816565b9150610464828563ffffffff610d3816565b60408051608081018252848152602080820184815260008385018181526060850182815260018054845283865292879020955186559251858301555160028501559051600390930192909255905482518681529182018490528251939450339390927f75c3234b322da18df8c948bde9b9983e5a43633c4e2647d4d9f4f15c0706f05d928290030190a35050600154949350505050565b6000610506866107a5565b151561051157600080fd5b600086815260208181526040808320600160a060020a038616845260040190915290205460ff16151561054357600080fd5b600086815260208181526040808320600160a060020a038616845260050190915290205460ff161561057457600080fd5b61057e8287610c56565b604080516020808201899052818301889052606080830188905283518084039091018152608090920192839052815191929182918401908083835b602083106105d85780518252601f1990920191602091820191016105b9565b6001836020036101000a03801982511681845116808217855250505050505090500191505060405180910390206000191614151561061557600080fd5b600086815260208181526040808320600160a060020a03861684526007019091529020805485019055610648828761099e565b60408051808201909152600981527f6e756d546f6b656e73000000000000000000000000000000000000000000000060208201529091506106949060039083908763ffffffff610d4516565b84600114156106b95760008681526020819052604090206002018054850190556106d1565b60008681526020819052604090206003018054850190555b600086815260208181526040808320600160a060020a038616808552600582018452828520805460ff191660011790558085526006820184528285208a90558a85529383526002810154600390910154825189815293840191909152828201526060820186905251879189917f9b19aaec524fad29c0ced9b9973a15e3045d7c3be156d71394ab40f0d5f119ff9181900360800190a4505050505050565b60008061077b83610cad565b151561078657600080fd5b5050600090815260208190526040902060038101546002909101541190565b60006107b08261089e565b15156107bb57600080fd5b6000828152602081905260409020600101546107d690610ca8565b1580156107e957506107e782610a4b565b155b92915050565b6000806107fb8361089e565b151561080657600080fd5b5050600090815260208190526040902060038101546002909101540190565b60006020819052908152604090208054600182015460028301546003909301549192909184565b600254600160a060020a031681565b60006108668261089e565b151561087157600080fd5b50600090815260208181526040808320600160a060020a0394909416835260049093019052205460ff1690565b600081158015906107e9575050600154101590565b60006108be84610a4b565b15156108c957600080fd5b8315156108d557600080fd5b8215156108e157600080fd5b6108eb828561099e565b60408051808201909152600a81527f636f6d6d6974486173680000000000000000000000000000000000000000000060208201529091506109379060039083908663ffffffff610d4516565b600084815260208181526040808320600160a060020a0386168085526004909101909252808320805460ff1916600117905551909186917f4199e129668e1d5c4fec4f85901506bf0957531d933d17b0b1843e7e3d37f3639190a350505050565b60015481565b600082826040516020018083600160a060020a0316600160a060020a03166c01000000000000000000000000028152601401828152602001925050506040516020818303038152906040526040518082805190602001908083835b60208310610a185780518252601f1990920191602091820191016109f9565b5181516020939093036101000a600019018019909116921691909117905260405192018290039091209695505050505050565b6000610a568261089e565b1515610a6157600080fd5b6000828152602081905260409020546107e790610ca8565b6000610a848261089e565b1515610a8f57600080fd5b50600090815260208181526040808320600160a060020a0394909416835260059093019052205460ff1690565b6000806000610aca85610cad565b1515610ad557600080fd5b600085815260208181526040808320600160a060020a0388168452600581019092529091205490925060ff161515610b105760009250610bbf565b50600160a060020a038316600090815260068201602090815260408083205481517f3c5940590000000000000000000000000000000000000000000000000000000081526004810189905291516001909114933093633c594059936024808201949293918390030190829087803b158015610b8a57600080fd5b505af1158015610b9e573d6000803e3d6000fd5b505050506040513d6020811015610bb457600080fd5b505115158115151492505b505092915050565b600080610bd383610cad565b1515610bde57600080fd5b5050600090815260208190526040902060028101546003909101549091565b6000610c4f610c0c848461099e565b60408051808201909152600981527f6e756d546f6b656e73000000000000000000000000000000000000000000000060208201526003919063ffffffff610dc216565b9392505050565b6000610c4f610c65848461099e565b60408051808201909152600a81527f636f6d6d6974486173680000000000000000000000000000000000000000000060208201526003919063ffffffff610dc216565b421190565b6000610cb88261089e565b1515610cc357600080fd5b6000828152602081905260409020600101546107e990610ca8565b600160a060020a0381161515610cf357600080fd5b600254600160a060020a031615610d0957600080fd5b6002805473ffffffffffffffffffffffffffffffffffffffff1916600160a060020a0392909216919091179055565b818101828110156107e957fe5b60405183815282516000918591859190602080830191908401908083835b60208310610d825780518252601f199092019160209182019101610d63565b51815160209384036101000a6000190180199092169116179052604080519290940182900390912060009081529a90525090972093909355505050505050565b6040518281528151600091829185918591602080830191908401908083835b60208310610e005780518252601f199092019160209182019101610de1565b51815160209384036101000a6000190180199092169116179052604080519290940182900390912060009081529a905250909720549796505050505050505600a165627a7a72305820ec645492e2cc0880f253737d8c47eabdd9449acbe0933d831c5266894e4afa5b0029",
  "source": "pragma solidity ^0.4.24;\n\nimport \"./AttributeStore.sol\";\nimport \"zeppelin-solidity/contracts/math/SafeMath.sol\";\nimport \"./IVoting.sol\";\n/**\n@title Partial-Lock-Commit-Reveal Voting scheme with ERC20 tokens\n@author Team: Aspyn Palatnick, Cem Ozer, Yorke Rhodes\n*/\ncontract Voting is IVoting {\n\n\n    // ============\n    // EVENTS:\n    // ============\n\n    event _VoteCommitted(uint indexed pollID, address indexed voter);\n    event _VoteRevealed(uint indexed pollID, uint numTokens, uint votesFor, uint votesAgainst, uint indexed choice, address indexed voter, uint salt);\n    event _PollCreated(uint commitEndDate, uint revealEndDate, uint indexed pollID, address indexed creator);\n    event _VotingRightsGranted(uint numTokens, address indexed voter);\n    event _VotingRightsWithdrawn(uint numTokens, address indexed voter);\n    event _TokensRescued(uint indexed pollID, address indexed voter);\n    event _StakeWithdrawed(uint indexed pollID, address indexed voter, uint numTokens);\n\n    // ============\n    // MODIFIERS:\n    // ============\n\n    modifier onlyRegistry {\n        require(msg.sender == registry);\n        _;\n    }\n\n    // ============\n    // DATA STRUCTURES:\n    // ============\n\n    using AttributeStore for AttributeStore.Data;\n    using SafeMath for uint;\n\n    mapping(uint => Poll) public pollMap; // maps pollID to Poll struct\n\n    struct Poll {\n        uint commitEndDate;     /// expiration date of commit period for poll\n        uint revealEndDate;     /// expiration date of reveal period for poll\n        uint votesFor;          /// tally of votes supporting proposal\n        uint votesAgainst;      /// tally of votes countering proposal\n        mapping(address => bool) didCommit;   /// indicates whether an address committed a vote for this poll\n        mapping(address => bool) didReveal;   /// indicates whether an address revealed a vote for this poll\n        mapping(address => uint) voteOptions; /// stores the voteOption of an address that revealed\n        mapping(address => uint) lockedStakes; ///\n        mapping(address => uint) withdrawedStakes;\n    }\n\n    // ============\n    // STATE VARIABLES:\n    // ============\n\n    uint constant public INITIAL_POLL_NONCE = 0;\n    uint public pollNonce;\n    address public registry;\n\n    AttributeStore.Data store;\n\n    constructor() public {\n        pollNonce = INITIAL_POLL_NONCE;\n    }\n\n    function set_registry(address registry_) external {\n        require(registry_ != address(0));\n        require(registry == address(0));\n\n        registry = registry_;\n    }\n\n    // =================\n    // VOTING INTERFACE:\n    // =================\n    /**\n    @notice Commits vote using hash of choice and secret salt to conceal vote until reveal\n    @param _pollID Integer identifier associated with target poll\n    @param _secretHash Commit keccak256 hash of voter's choice and salt (tightly packed in this order)\n    */\n    function commitVote(uint _pollID, bytes32 _secretHash, address voter) external {\n        require(commitPeriodActive(_pollID));\n\n        // prevent user from committing to zero node placeholder\n        require(_pollID != 0);\n        // prevent user from committing a secretHash of 0\n        require(_secretHash != 0);\n\n        bytes32 UUID = attrUUID(voter, _pollID);\n\n        store.setAttribute(UUID, \"commitHash\", uint(_secretHash));\n\n        pollMap[_pollID].didCommit[voter] = true;\n\n        emit _VoteCommitted(_pollID, voter);\n    }\n\n\n    /**\n    @notice Reveals vote with choice and secret salt used in generating commitHash to attribute committed tokens\n    @param _pollID Integer identifier associated with target poll\n    @param _voteOption Vote choice used to generate commitHash for associated poll\n    @param _salt Secret number used to generate commitHash for associated poll\n    */\n\n    function revealVote(uint _pollID, uint _voteOption, uint _voteStake, uint _salt, address _voter) external {\n        // make sure msg.sender has enough voting rights\n\n        // Make sure the reveal period is active\n        require(revealPeriodActive(_pollID));\n        require(pollMap[_pollID].didCommit[_voter]);                         // make sure user has committed a vote for this poll\n        require(!pollMap[_pollID].didReveal[_voter]);                        // prevent user from revealing multiple times\n        require(keccak256(abi.encodePacked(_voteOption, _voteStake, _salt)) == getCommitHash(_voter, _pollID)); // compare resultant hash from inputs to original commitHash\n\n        pollMap[_pollID].lockedStakes[_voter] += _voteStake;\n\n        //  uint numTokens = getNumTokens(msg.sender, _pollID);\n        bytes32 UUID = attrUUID(_voter, _pollID);\n\n        store.setAttribute(UUID, \"numTokens\", _voteStake);\n\n        if (_voteOption == 1) {// apply numTokens to appropriate poll choice\n            pollMap[_pollID].votesFor += _voteStake;\n        } else {\n            pollMap[_pollID].votesAgainst += _voteStake;\n        }\n\n        pollMap[_pollID].didReveal[_voter] = true;\n        pollMap[_pollID].voteOptions[_voter] = _voteOption;\n\n        emit _VoteRevealed(_pollID, _voteStake, pollMap[_pollID].votesFor, pollMap[_pollID].votesAgainst, _voteOption, _voter, _salt);\n    }\n\n\n    // ==================\n    // POLLING INTERFACE:\n    // ==================\n\n    /**\n    @dev Initiates a poll with canonical configured parameters at pollID emitted by PollCreated event\n    @param _commitDuration Length of desired commit period in seconds\n    @param _revealDuration Length of desired reveal period in seconds\n    */\n    function startPoll(uint voteQuorum, uint _commitDuration, uint _revealDuration) external returns (uint pollID) {\n        pollNonce = pollNonce + 1;\n\n        uint commitEndDate = block.timestamp.add(_commitDuration);\n        uint revealEndDate = commitEndDate.add(_revealDuration);\n\n        pollMap[pollNonce] = Poll({\n            commitEndDate: commitEndDate,\n            revealEndDate: revealEndDate,\n            votesFor: 0,\n            votesAgainst: 0\n        });\n\n        emit _PollCreated(commitEndDate, revealEndDate, pollNonce, msg.sender);\n        return pollNonce;\n    }\n\n    /**\n    @notice Determines if proposal has passed\n    @dev Check if votesFor out of totalVotes exceeds votesQuorum (requires pollEnded)\n    @param _pollID Integer identifier associated with target poll\n    */\n    function result(uint _pollID) constant external returns (bool passed) {\n        require(pollEnded(_pollID));\n\n        Poll storage poll = pollMap[_pollID];\n        return poll.votesFor > poll.votesAgainst;\n    }\n\n    function getPollResult(uint _pollId) public view returns (uint votesFor, uint votesAgainst) {\n        require(pollEnded(_pollId));\n        return (pollMap[_pollId].votesFor, pollMap[_pollId].votesAgainst);\n    }\n\n    function getOverallStake(uint _pollId) external returns (uint) {\n        require(pollExists(_pollId));\n        Poll storage poll = pollMap[_pollId];\n        return poll.votesFor + poll.votesAgainst;\n    }\n\n    function isWinner(uint _pollId, address voter) external returns (bool) {\n        require(pollEnded(_pollId));\n        Poll storage poll = pollMap[_pollId];\n\n        if (!poll.didReveal[voter])\n            return false;\n\n        bool vote = poll.voteOptions[voter] == 1;\n\n        return vote == this.result(_pollId);\n    }\n\n    // ----------------\n    // POLLING HELPERS:\n    // ----------------\n\n\n    /**\n    @notice Determines if poll is over\n    @dev Checks isExpired for specified poll's revealEndDate\n    @return Boolean indication of whether polling period is over\n    */\n    function pollEnded(uint _pollID) constant public returns (bool ended) {\n        require(pollExists(_pollID));\n\n        return isExpired(pollMap[_pollID].revealEndDate);\n    }\n\n    /**\n    @notice Checks if the commit period is still active for the specified poll\n    @dev Checks isExpired for the specified poll's commitEndDate\n    @param _pollID Integer identifier associated with target poll\n    @return Boolean indication of isCommitPeriodActive for target poll\n    */\n    function commitPeriodActive(uint _pollID) constant public returns (bool active) {\n        require(pollExists(_pollID));\n\n        return !isExpired(pollMap[_pollID].commitEndDate);\n    }\n\n    /**\n    @notice Checks if the reveal period is still active for the specified poll\n    @dev Checks isExpired for the specified poll's revealEndDate\n    @param _pollID Integer identifier associated with target poll\n    */\n    function revealPeriodActive(uint _pollID) constant public returns (bool active) {\n        require(pollExists(_pollID));\n\n        return !isExpired(pollMap[_pollID].revealEndDate) && !commitPeriodActive(_pollID);\n    }\n\n    /**\n    @dev Checks if user has committed for specified poll\n    @param _voter Address of user to check against\n    @param _pollID Integer identifier associated with target poll\n    @return Boolean indication of whether user has committed\n    */\n    function didCommit(address _voter, uint _pollID) constant public returns (bool committed) {\n        require(pollExists(_pollID));\n\n        return pollMap[_pollID].didCommit[_voter];\n    }\n\n    /**\n    @dev Checks if user has revealed for specified poll\n    @param _voter Address of user to check against\n    @param _pollID Integer identifier associated with target poll\n    @return Boolean indication of whether user has revealed\n    */\n    function didReveal(address _voter, uint _pollID) constant public returns (bool revealed) {\n        require(pollExists(_pollID));\n\n        return pollMap[_pollID].didReveal[_voter];\n    }\n\n    /**\n    @dev Checks if a poll exists\n    @param _pollID The pollID whose existance is to be evaluated.\n    @return Boolean Indicates whether a poll exists for the provided pollID\n    */\n    function pollExists(uint _pollID) constant public returns (bool exists) {\n        return (_pollID != 0 && _pollID <= pollNonce);\n    }\n\n    // ---------------------------\n    // DOUBLE-LINKED-LIST HELPERS:\n    // ---------------------------\n\n    /**\n    @dev Gets the bytes32 commitHash property of target poll\n    @param _voter Address of user to check against\n    @param _pollID Integer identifier associated with target poll\n    @return Bytes32 hash property attached to target poll\n    */\n    function getCommitHash(address _voter, uint _pollID) constant public returns (bytes32 commitHash) {\n        return bytes32(store.getAttribute(attrUUID(_voter, _pollID), \"commitHash\"));\n    }\n\n    /**\n    @dev Wrapper for getAttribute with attrName=\"numTokens\"\n    @param _voter Address of user to check against\n    @param _pollID Integer identifier associated with target poll\n    @return Number of tokens committed to poll in sorted poll-linked-list\n    */\n    function getNumTokens(address _voter, uint _pollID) constant public returns (uint numTokens) {\n        return store.getAttribute(attrUUID(_voter, _pollID), \"numTokens\");\n    }\n\n\n\n\n\n    // ----------------\n    // GENERAL HELPERS:\n    // ----------------\n\n    /**\n    @dev Checks if an expiration date has been reached\n    @param _terminationDate Integer timestamp of date to compare current timestamp with\n    @return expired Boolean indication of whether the terminationDate has passed\n    */\n    function isExpired(uint _terminationDate) constant public returns (bool expired) {\n        return (block.timestamp > _terminationDate);\n    }\n\n    /**\n    @dev Generates an identifier which associates a user and a poll together\n    @param _pollID Integer identifier associated with target poll\n    @return UUID Hash which is deterministic from _user and _pollID\n    */\n    function attrUUID(address _user, uint _pollID) public pure returns (bytes32 UUID) {\n        return keccak256(abi.encodePacked(_user, _pollID));\n    }\n\n\n}\n",
  "sourcePath": "/home/algys/sources/dapp-tcr/contracts/Voting.sol",
  "compiler": {
    "name": "solc",
    "version": "0.4.24+commit.e67f0147.Emscripten.clang"
  },
  "schemaVersion": "2.0.1",
  "updatedAt": "2018-10-27T18:24:57.803Z"
}